:020000040800F2
:10000000802D0120DD2302083D1B0208B1230208D8
:10001000B1230208B1230208B12302080000000046
:100020000000000000000000000000003D25020864
:10003000B123020800000000A9240208B92803081F
:1000400011280208112802081128020811280208A4
:100050001128020811280208112802081128020894
:100060001128020811280208112802081128020884
:100070001128020811280208112802081128020874
:100080001128020811280208112802081128020864
:100090001128020811280208112802081128020854
:1000A0001128020811280208112802081128020844
:1000B0001128020811280208112802081128020834
:1000C0001128020811280208112802081128020824
:1000D0001128020811280208112802081128020814
:1000E0001128020811280208112802081128020804
:1000F00011280208112802081128020811280208F4
:1001000011280208112802081128020811280208E3
:1001100011280208112802081128020811280208D3
:1001200011280208112802081128020811280208C3
:1001300011280208112802081128020811280208B3
:1001400011280208112802081128020811280208A3
:100150001128020811280208112802081128020893
:100160001128020811280208112802081128020883
:100170001128020811280208112802081128020873
:100180001128020811280208112802081128020863
:100190001128020811280208112802081128020853
:1001A0001128020811280208112802081128020843
:1001B0001128020811280208112802081128020833
:1001C0001128020811280208112802081128020823
:0801D0001128020811280208A1
:1001D800FFFFFFFFFFFFFFFFFFFFFFFFFFFFFFFF27
:1001E800FFFFFFFFFFFFFFFFFFFFFFFFFFFFFFFF17
:0801F800FFFFFFFFFFFFFFFF07
:1002000090F800F06DE9024520F007016FF0000C56
:1002100010F0070491F820F040F049804FF00004FE
:100220006FF00700D1E9002391F840F000F10800D9
:1002300082FA4CF2A4FA8CF283FA4CF3A2FA8CF311
:100240004BBBD1E9022382FA4CF200F10800A4FA78
:100250008CF283FA4CF3A2FA8CF3E3B9D1E90423CC
:1002600082FA4CF200F10800A4FA8CF283FA4CF303
:10027000A2FA8CF37BB9D1E9062301F1200182FABD
:100280004CF200F10800A4FA8CF283FA4CF3A2FAC3
:100290008CF3002BC6D0002A04BF04301A4612BAD1
:1002A000B2FA82F2FDE8024500EBD2007047D1E9D4
:1002B000002304F00305C4F100004FEAC50514F063
:1002C000040F91F840F00CFA05F562EA05021CBF34
:1002D00063EA050362464FF00004A9E7000000004E
:1002E000A2EB0300704700BF02780B78012A28BFF9
:1002F0009A42F5D16DE9044540EA0104CDE902676F
:100300006FF0000C4FEA447212B380EA010414F05B
:10031000070F6AD100F0070420F0070004F003057E
:1003200021F007014FEAC505F0E8042314F0040F9B
:10033000F1E804670CFA05F462EA040266EA0406CE
:100340000AD063EA0403624667EA0407664603E0EC
:10035000F0E80423F1E8046782FA4CF582EA060427
:10036000A4FA8CF46CBB83FA4CF583EA0705A5FA72
:100370008CF595B950E9022351E9026782FA4CF5F0
:1003800082EA0604A4FA8CF483FA4CF583EA0705A2
:10039000A5FA8CF52543DBD09CB92DBAB5FA85F4C6
:1003A00024F0070427FA04F1DDE9026723FA04F3D5
:1003B00003F0FF0001F0FF01FDE80445A0EB0100A0
:1003C000704724BAB4FA84F424F0070426FA04F13E
:1003D000DDE9026722FA04F202F0FF0001F0FF01FA
:1003E000FDE80445A0EB0100704714F0030F3CD179
:1003F00010F0030428D150F8082B51F8083B82FA7A
:100400004CF582EA0305A5FA8CF55DB950F8042C89
:1004100051F8043C82FA4CF582EA0305A5FA8CF502
:10042000002DE8D02DBAB5FA85F424F0070423FA9C
:1004300004F122FA04F202F0FF0001F0FF01FDE8EE
:100440000445A0EB010070474FEAC40420F003000C
:1004500050F8082B21F0030151F8083B0CFA04F482
:1004600062EA040263EA0403C9E710F003041AD045
:10047000A1EB040120F00300E40750F8042B06D0A0
:100480000FD28B785FFAA2F4E41A06D12BB1CB78A5
:100490005FFAB2F4E41A00D11BB920465DF8104BA4
:1004A000704701F1040150F8042BCC0721F003013F
:1004B00051F8043B48D824D222F07F4482FA4CF50C
:1004C00094EA1325A5FA8CF50AD165B951F8043BD5
:1004D00084EA0204B4EB036F0ED150F8042BEBE76F
:1004E0004FEA132355E035F07F454DD10878FDE8FC
:1004F0000445C0F1000070474FEA126203F0FF03A9
:1005000047E002EA1C4482FA4CF594EA1345A5FA46
:100510008CF50AD165B951F8043B84EA0204B4EBC6
:10052000034F0CD150F8042BEBE74FEA134330E0B4
:1005300015EA1C4528D10B884FEA124229E04FEA00
:10054000124203EA1C4324E002F0FF0482FA4CF555
:1005500094EA1365A5FA8CF50AD165B951F8043B04
:1005600084EA0204B4EB032F09D150F8042BEBE723
:100570004FEA13630DE015F0FF0F05D10B684FEA4A
:10058000122223F07F4304E04FF00000FDE8044511
:10059000704712BA1BBA82FA4CF482EA0304A4FA36
:1005A0008CF5B5FA85F402FA04F203FA04F34FEA83
:1005B0001260FDE80445A0EB1360704700000000E6
:1005C00001F0FF01102A2BDB10F0070F08D010F804
:1005D000013B013A8B422DD010F0070F42B3F6D108
:1005E000F0B441EA012141EA014122F007047FF021
:1005F00000070023F0E80256083C85EA010586EA78
:10060000010685FA47F5A3FA87F586FA47F6A5FAB3
:1006100087F68EB9EED1F0BC01F0FF0102F00702BF
:1006200032B110F8013B013A83EA010313B1F8D16A
:100630000020704701387047002D06BF354603384B
:10064000073815F0010F07D1013015F4807F02BF84
:10065000013015F4C03F0130F0BC0138704700BFD5
:1006600081F0004102E000BF83F0004330B54FEA63
:1006700041044FEA430594EA050F08BF90EA020FD0
:100680001FBF54EA000C55EA020C7FEA645C7FEA63
:10069000655C00F0E2804FEA5454D4EB5555B8BF86
:1006A0006D420CDD2C4480EA020281EA030382EAF7
:1006B000000083EA010180EA020281EA0303362D89
:1006C00088BF30BD11F0004F4FEA01314FF4801C5C
:1006D0004CEA113102D0404261EB410113F0004F6E
:1006E0004FEA03334CEA133302D0524263EB430325
:1006F00094EA050F00F0A780A4F10104D5F1200EC3
:100700000DDB02FA0EFC22FA05F2801841F100011D
:1007100003FA0EF2801843FA05F359410EE0A5F1F1
:1007200020050EF1200E012A03FA0EFC28BF4CF022
:10073000020C43FA05F3C01851EBE37101F00045D8
:1007400007D54FF0000EDCF1000C7EEB00006EEBE5
:100750000101B1F5801F1BD3B1F5001F0CD349086F
:100760005FEA30004FEA3C0C04F101044FEA4452C6
:1007700012F5800F80F09A80BCF1004F08BF5FEA4D
:10078000500C50F1000041EB045141EA050130BD2D
:100790005FEA4C0C404141EB0101013C28BFB1F53F
:1007A000801FE9D291F0000F04BF01460020B1FA8A
:1007B00081F308BF2033A3F10B03B3F120020CDA5D
:1007C0000C3208DD02F1140CC2F10C0201FA0CF03B
:1007D00021FA02F10CE002F11402D8BFC2F1200CA0
:1007E00001FA02F120FA0CFCDCBF41EA0C01904056
:1007F000E41AA2BF01EB0451294330BD6FEA04049F
:100800001F3C1CDA0C340EDC04F11404C4F1200289
:1008100020FA04F001FA02F340EA030021FA04F39B
:1008200045EA030130BDC4F10C04C4F1200220FAF2
:1008300002F001FA04F340EA0300294630BD21FA30
:1008400004F0294630BD94F0000F83F4801306BFF6
:1008500081F480110134013D4EE77FEA645C18BFEA
:100860007FEA655C29D094EA050F08BF90EA020F81
:1008700005D054EA000C04BF1946104630BD91EA79
:10088000030F1EBF0021002030BD5FEA545C05D17C
:100890004000494128BF41F0004130BD14F58004BB
:1008A0003CBF01F5801130BD01F0004545F0FE412F
:1008B00041F470014FF0000030BD7FEA645C1ABF64
:1008C000194610467FEA655C1CBF0B46024650EA9B
:1008D000013406BF52EA033591EA030F41F40021C7
:1008E00030BD00BF90F0000F04BF0021704730B54D
:1008F0004FF4806404F132044FF000054FF0000122
:1009000050E700BF90F0000F04BF0021704730B5E2
:100910004FF4806404F1320410F0004548BF4042B7
:100920004FF000013EE700BF42004FEAE2014FEA0C
:1009300031014FEA02701FBF12F07F4393F07F4FE7
:1009400081F06051704732F07F4208BF704793F0EA
:100950007F4F04BF41F40021704730B54FF46074FD
:1009600001F0004521F000411CE700BF50EA010200
:1009700008BF704730B54FF000050AE050EA0102A9
:1009800008BF704730B511F0004502D5404261EB19
:1009900041014FF4806404F132045FEA915C3FF45A
:1009A000D8AE4FF003025FEADC0C18BF03325FEAF7
:1009B000DC0C18BF033202EBDC02C2F1200300FAA8
:1009C00003FC20FA02F001FA03FE40EA0E0021FACD
:1009D00002F11444BDE600BF70B54FF0FF0C4CF4BB
:1009E000E06C1CEA11541DBF1CEA135594EA0C0F6D
:1009F00095EA0C0F00F0DEF82C4481EA030621EAA8
:100A00004C5123EA4C5350EA013518BF52EA0335E2
:100A100041F4801143F4801338D0A0FB02CE4FF094
:100A20000005E1FB02E506F00042E0FB03E54FF0C4
:100A30000006E1FB03569CF0000F18BF4EF0010EBC
:100A4000A4F1FF04B6F5007F64F5407404D25FEAB8
:100A50004E0E6D4146EB060642EAC62141EA55516B
:100A60004FEAC52040EA5E504FEACE2EB4F1FD0CAD
:100A700088BFBCF5E06F1ED8BEF1004F08BF5FEA2B
:100A8000500E50F1000041EB045170BD06F00046DD
:100A900046EA010140EA020081EA0301B4EB5C048A
:100AA000C2BFD4EB0C0541EA045170BD41F4801182
:100AB0004FF0000E013C00F3AB8014F1360FDEBFA7
:100AC000002001F0004170BDC4F10004203C35DA83
:100AD0000C341BDC04F11404C4F1200500FA05F306
:100AE00020FA04F001FA05F240EA020001F00042A7
:100AF00021F0004110EBD37021FA04F642EB06011D
:100B00005EEA430E08BF20EAD37070BDC4F10C0446
:100B1000C4F1200500FA04F320FA05F001FA04F20A
:100B200040EA020001F0004110EBD37041F10001F6
:100B30005EEA430E08BF20EAD37070BDC4F1200501
:100B400000FA05F24EEA020E20FA04F301FA05F269
:100B500043EA020321FA04F001F0004121FA04F211
:100B600020EA020000EBD3705EEA430E08BF20EAE1
:100B7000D37070BD94F0000F0FD101F0004640001B
:100B800041EB010111F4801F08BF013CF7D041EA9D
:100B9000060195F0000F18BF704703F000465200A1
:100BA00043EB030313F4801F08BF013DF7D043EA72
:100BB0000603704794EA0C0F0CEA135518BF95EA28
:100BC0000C0F0CD050EA410618BF52EA4306D1D1AF
:100BD00081EA030101F000414FF0000070BD50EACE
:100BE000410606BF1046194652EA430619D094EA58
:100BF0000C0F02D150EA013613D195EA0C0F05D142
:100C000052EA03361CBF104619460AD181EA030195
:100C100001F0004141F0FE4141F470014FF000004D
:100C200070BD41F0FE4141F4780170BD70B54FF0E8
:100C3000FF0C4CF4E06C1CEA11541DBF1CEA135568
:100C400094EA0C0F95EA0C0F00F0A7F8A4EB05044A
:100C500081EA030E52EA03354FEA013100F0888041
:100C60004FEA03334FF0805545EA131343EA12630A
:100C70004FEA022245EA111545EA10654FEA0026BF
:100C80000EF000419D4208BF964244F1FD0404F578
:100C9000407402D25B084FEA3202B61A65EB0305D4
:100CA0005B084FEA32024FF480104FF4002CB6EB91
:100CB000020E75EB030E22BFB61A754640EA0C0011
:100CC0005B084FEA3202B6EB020E75EB030E22BF51
:100CD000B61A754640EA5C005B084FEA3202B6EB92
:100CE000020E75EB030E22BFB61A754640EA9C0051
:100CF0005B084FEA3202B6EB020E75EB030E22BF21
:100D0000B61A754640EADC0055EA060E18D04FEADE
:100D1000051545EA16754FEA06164FEAC30343EA7E
:100D200052734FEAC2025FEA1C1CC0D111F4801F4B
:100D30000BD141EA00014FF000004FF0004CB6E744
:100D400011F4801F04BF01430020B4F1FD0C88BFE3
:100D5000BCF5E06F3FF6AFAEB5EB030C04BFB6EBEE
:100D6000020C5FEA500C50F1000041EB045170BDE1
:100D70000EF0004E4EEA113114EB5C04C2BFD4EB0E
:100D80000C0541EA045170BD41F480114FF0000E92
:100D9000013C90E645EA060E8DE60CEA135594EA0E
:100DA0000C0F08BF95EA0C0F3FF43BAF94EA0C0F11
:100DB0000AD150EA01347FF434AF95EA0C0F7FF486
:100DC00025AF104619462CE795EA0C0F06D152EADA
:100DD00003353FF4FDAE1046194622E750EA4106BE
:100DE00018BF52EA43067FF4C5AE50EA41047FF4CF
:100DF0000DAF52EA43057FF4EBAE12E74FF0FF3C34
:100E000006E000BF4FF0010C02E000BF4FF0010C04
:100E10004DF804CD4FEA410C7FEA6C5C4FEA430C7D
:100E200018BF7FEA6C5C1BD001B050EA410C0CBFCC
:100E300052EA430C91EA030F02BF90EA020F00202E
:100E4000704710F1000F91EA030F58BF994208BF95
:100E500090422CBFD8176FEAE37040F00100704752
:100E60004FEA410C7FEA6C5C02D150EA013C07D1A9
:100E70004FEA430C7FEA6C5CD6D152EA033CD3D0F4
:100E80005DF8040B704700BF8446104662468C46EE
:100E90001946634600E000BF01B5FFF7B7FF002821
:100EA00048BF10F1000F01BD4DF808EDFFF7F4FF4A
:100EB0000CBF012000205DF808FB00BF4DF808EDD5
:100EC000FFF7EAFF34BF012000205DF808FB00BFF8
:100ED0004DF808EDFFF7E0FF94BF012000205DF81A
:100EE00008FB00BF4DF808EDFFF7CEFF94BF0120CF
:100EF00000205DF808FB00BF4DF808EDFFF7C4FFC8
:100F000034BF012000205DF808FB00BF4FEA41021A
:100F100012F5001215D211D56FF47873B3EB62524B
:100F200012D94FEAC12343F0004343EA505311F072
:100F3000004F23FA02F018BF404270474FF0000004
:100F4000704750EA013005D111F0004008BF6FF042
:100F5000004070474FF00000704700BF4A0011D2B8
:100F600012F5001211D20DD56FF47873B3EB625203
:100F70000ED44FEAC12343F0004343EA505323FA0F
:100F800002F070474FF00000704750EA013002D184
:100F90004FF0FF3070474FF0000070474FEA4102BA
:100FA000B2F1E04324BFB3F5001CDCF1FE5C0DD9C7
:100FB00001F0004C4FEAC0024CEA5070B2F1004F11
:100FC00040EB830008BF20F00100704711F0804F14
:100FD00021D113F13872BCBF01F00040704741F4D9
:100FE00080114FEA5252C2F11802C2F1200C10FADD
:100FF0000CF320FA02F018BF40F001004FEAC123C1
:101000004FEAD32303FA0CFC40EA0C0023FA02F364
:101010004FEA4303CCE77FEA625307D150EA01333A
:101020001EBF4FF0FE4040F44000704701F000400A
:1010300040F0FE4040F40000704700BF7BB972B939
:101040000029BEBF00204FF0004106E008BF002885
:101050001CBF6FF000414FF0FF3000F075B8ADF1EC
:10106000080C6DE904CE002909DB002B1ADB00F027
:1010700047F9DDF804E0DDE9022304B0704740429F
:1010800061EB4101002B1BDB00F03AF9DDF804E0D5
:10109000DDE9022304B0404261EB4101524263EBBF
:1010A00043037047524263EB430300F029F9DDF834
:1010B00004E0DDE9022304B0404261EB41017047E6
:1010C000524263EB430300F01BF9DDF804E0DDE975
:1010D000022304B0524263EB4303704753B94AB949
:1010E000002908BF00281CBF4FF0FF314FF0FF3030
:1010F00000F02AB8ADF1080C6DE904CE00F000F95B
:10110000DDF804E0DDE9022304B07047D0B50C4BF4
:10111000002206460F46FFF75FFCFFF71FFF04465D
:10112000FFF7E0FB074B0022FFF756FC02460B4699
:1011300030463946FFF798FAFFF710FF2146D0BD39
:101140000000F03D0000F041704700BF844641EAD6
:10115000000313F003036DD1403A41D351F8043B2F
:1011600040F8043B51F8043B40F8043B51F8043B81
:1011700040F8043B51F8043B40F8043B51F8043B71
:1011800040F8043B51F8043B40F8043B51F8043B61
:1011900040F8043B51F8043B40F8043B51F8043B51
:1011A00040F8043B51F8043B40F8043B51F8043B41
:1011B00040F8043B51F8043B40F8043B51F8043B31
:1011C00040F8043B51F8043B40F8043B51F8043B21
:1011D00040F8043B51F8043B40F8043B403ABDD290
:1011E000303211D351F8043B40F8043B51F8043B32
:1011F00040F8043B51F8043B40F8043B51F8043BF1
:1012000040F8043B103AEDD20C3205D351F8043BC0
:1012100040F8043B043AF9D2043208D0D2071CBF8C
:1012200011F8013B00F8013B01D30B8803806046B5
:10123000704700BF082A13D38B078DD010F003032B
:101240008AD0C3F10403D21ADB071CBF11F8013B9B
:1012500000F8013B80D331F8023B20F8023B7BE7EA
:10126000043AD9D3013A11F8013B00F8013BF9D215
:101270000B7803704B7843708B78837060467047AF
:101280004FEA410C7FEA6C5C02D150EA013C0AD182
:101290004FEA430C7FEA6C5C02D152EA033C02D174
:1012A0004FF0000070474FF001007047430803F013
:1012B0005533C01A00F03333800800F0333018443F
:1012C00000EB10104FF0013300F00F305843000EC8
:1012D000704738B50022002304460D46FFF7EEFDA7
:1012E00028B920462946BDE83840FFF70FBF204601
:1012F00005F10041FFF70AFF404261EB410138BDB3
:101300002DE9F04786468C460846089E15467446E9
:101310001946002B40F0C2808542B2FA82F245D9CC
:101320004AB1C2F1200300FA02FC2EFA03F3954001
:1013300043EA0C0C94404FEA154EA8B2BCFBFEF8F1
:10134000230C0EFB18CC08FB00F943EA0C4399452B
:1013500028D9EB1808F1FF3704D2994502D9A8F132
:1013600002072B44A3EB0903A4B2B3FBFEFC0EFB64
:101370001C330CFB00F044EA0344A04214D92C199E
:101380000CF1FF3304D2A04202D9ACF102032C4489
:10139000241A43EA07401EB1D4400023346073602E
:1013A000BDE8F0874746DDE76346F1E792BB431BA4
:1013B00001214FEA154EAFB2B3FBFEFC200C0EFB31
:1013C0001C330CFB07F840EA0343984562D9EB183D
:1013D0000CF1FF3004D2984502D9ACF102002B4445
:1013E000A3EB0803A4B2B3FBFEFC0EFB1C330CFB07
:1013F00007F744EA0344A7424ED92C190CF1FF33F6
:1014000004D2A74202D9ACF102032C44E41B43EA04
:101410000040C0E7C2F1200320FA03F1954090405C
:101420002EFA03F303434FEA154EAFB2B1FBFEFCB5
:101430000EFB1C10190C0CFB07F841EA0041884513
:1014400004FA02F422D969180CF1FF3004D288455D
:1014500002D9ACF102002944A1EB08019BB2B1FB17
:10146000FEFC0EFB1C110CFB07F743EA01439F42F5
:101470000ED9EB180CF1FF3104D29F4202D9ACF126
:1014800002012B44DB1B41EA004192E76046E3E79F
:101490006146F7E76046A3E76346B7E7834206D9AC
:1014A00016B9002108467BE7C6E900E0F9E7B3FA80
:1014B00083F78FB9834201D3724508D8BEEB02048B
:1014C00060EB030301209C461EB9002168E7384603
:1014D000FAE7C6E9004CF8E7C7F1200CBB4022FA56
:1014E0000CF41C432EFA0CF120FA0CF3B840014323
:1014F0004FEA14490EFA07F5B3FBF9F81FFA84FE18
:1015000009FB18300B0C08FB0EFA43EA00439A451E
:1015100002FA07F240D9E31808F1FF3004D29A45E5
:1015200002D9A8F102002344A3EB0A0389B2B3FB5A
:10153000F9F809FB183308FB0EFE41EA03418E451A
:101540002CD9611808F1FF3304D28E4502D9A8F1D5
:101550000203214443EA0040A0FB0298A1EB0E01E4
:101560004145CE46434602D306D14D4504D2B9EBA0
:10157000020E68EB04030138002EA6D0B5EB0E0274
:1015800061EB030101FA0CFC22FA07F34CEA0303B6
:10159000F940C6E9003198E74046C5E74346D9E738
:1015A00070B5064682B0184855F054FE20B3044684
:1015B00083683A21DB689847A3686A461B69302133
:1015C000204698470198FFF79DF90DA3D3E9002322
:1015D000FFF72CFB044600980D46FFF793F90B46E6
:1015E000024629462046FFF741F8FFF7D7FC03469D
:1015F0003360002002B070BD6FF00500FAE700BF55
:101600000000000080842E41082F06080000000022
:101610002DE9F0434A4E83B000AF0C460546082240
:10162000394630460DF0DCFD18B1464803685907CD
:1016300054D13B682B700EF0E5F920280BD8032815
:101640003CD9414B043880B2C340DA073AD40C3756
:10165000BD46BDE8F083802802D0B0F5807F37D149
:101660003A4D0822394628460DF0BAFD18B13548E2
:1016700003685B0746D17868FFF744F92CA3D3E9E8
:101680000023FFF7D3FA804638688946FFF73AF916
:1016900002460B4640464946FEF7E8FFFFF77EFC50
:1016A000FFF742F924A3D3E90023FFF795F9FFF7E9
:1016B00075FC0C372060BD46BDE8F083013880B270
:1016C0000128C4D8224B23600C37BD46BDE8F08307
:1016D0004028C5D00C37BD46BDE8F083E84688B049
:1016E0006B461C499E611A4659614FF400761A49AF
:1016F0009E8342F8101F00234FF4E25119F086FF39
:10170000C54696E76E4688B06B46124A5A611A463D
:1017100011499D614FF4007CA3F81CC042F8101FD2
:1017200000234FF4E25119F071FFB546A3E700BF63
:101730000000000080842E41C74B37894184584007
:10174000503406080C1C00201110001080340608CC
:101750000000484358340608030000010000000060
:10176000B0B502298AB000AF0AD0092923D0444875
:10177000036803F00703022B5DD82837BD46B0BDD0
:101780003F48036803F00703022B67D808223D484F
:10179000B9180DF025FD3B7A012BEED100200AF09F
:1017A000F9FA384C0822B91820460DF019FD3B7A99
:1017B000012BF7D0E1E70023C7E90233C7E904337F
:1017C000C7E90633C7E9083307F108000DF0F0FC5C
:1017D0002C4907F10800FEF787FD30B12A4907F1CF
:1017E0000800FEF781FD0028C7D1391DF81CFFF75E
:1017F0000FFF7868FFF798F81FA3D3E90023FFF7DE
:1018000015FAFFF7CBFB00EE100A0BF06BF94FF067
:10181000FF324FF0FF331D4856F066FB1C4B012290
:101820001A701A4856F034FB1A4B186856F0E4FE4A
:101830002837BD46B0BD6C4688B06B46164D5D611D
:101840001A460325996142F8105F00234FF4C651F0
:1018500019F0DCFE2837A546BD46B0BD0F4BC7E9E1
:101860000613002307F118024FF4865119F0CEFE3B
:101870008CE700BFAFF30080C74B378941845840E5
:101880000C1C00205034060880340608A48900206F
:1018900086A80020548900205C9C060800330608B6
:1018A0002DE990432DED028B83B010EE100A00AFAE
:1018B000B0EE408AFFF738F8DFED357AB4EEE78A0C
:1018C000F1EE10FA2ED42EA3D3E9002380468946E8
:1018D000FFF712FB30BBFDEEC87A17EE904A2046A8
:1018E000FFF710F802460B4640464946FEF7BCFE9D
:1018F00025A3D3E90023FFF76FF8264B002280468B
:101900008946FFF7DBFA68B91DA3D3E900234046F7
:101910004946FFF7F1FA28B9404649463C60FFF7CF
:10192000F5FA78601C4C0A230822394620460DF04F
:1019300045FF18B1194803685B0705D10C37BD4650
:10194000BDEC028BBDE89083E84688B06B46144935
:1019500059611A4613499C614FF4007CA3F81CC0DE
:1019600042F8101F00234FF4E25119F04FFE0C37DC
:10197000C546BD46BDEC028BBDE89083AFF3008049
:101980000000C0FFFFFFDF410000000080842E4107
:10199000000000CF0000E0C1803406080C1C0020CD
:1019A000BC3506080300000110B5044688B00122CA
:1019B00011461D4856F05CFA1C491D48042213F0DC
:1019C000F5FE1C4B1C600CF04DFB0BF0F9F80CF015
:1019D00079F80CF0CDF80CF0A1FC0BF0B7FA0BF095
:1019E00001F90CF00BFE144B01229FED0D7B1A70D8
:1019F00000220A20CDE90302CDE9012200928DEDFB
:101A0000067B0E4B0E490F484FF4006255F0F2FF73
:101A10000D4B18600D4908B0BDE8104055F082BF6D
:101A20000000000000000000C8890020ADC10008CF
:101A3000BC890020E489002089A8002059C2000840
:101A400080B10020E0200020E0890020E83E060868
:101A500070B59AB00AF0A0FC022801D01AB070BD8F
:101A6000514E0024214670680F94CDE90944CDE918
:101A70000B44CDE90D44ADF8404050F01BFF0AF097
:101A800053FA05464948CDE902540DF02FFC0DF0FC
:101A9000ADFF09AA02A9806C0DF0AAFC09AB019365
:101AA00006F11803142200932146414B159411A806
:101AB000CDE91144CDE9134458F0CCFD706911A96A
:101AC00050F0F8FE3B4B019306F1280314220093DB
:101AD0002146374B159411A8CDE91144CDE91344A3
:101AE00058F0B8FD706A11A950F0E4FE1E2221469C
:101AF00009A858F0BFFC75B1012D26D02422002181
:101B000011A858F0B7FC11A809F014FC11A80BF0AB
:101B100023F81AB070BD284A159507CA09AB01937E
:101B20001C4606F13803009303C4214B228029464A
:101B3000142211A8CDE91155CDE9135558F08AFDAD
:101B4000706B11A950F0B6FED8E711A80AF0B4F9ED
:101B50001698FEF7E9FE12A3D3E90023FEF73CFF37
:101B6000164BCDE900011E22214609A858F072FD4E
:101B700009AB019306F13803009321460C4B0894FE
:101B8000142204A8CDE90444CDE9064458F062FDCE
:101B9000706B04A950F08EFEB0E700BFAFF3008079
:101BA000DB8AFD65F7642440488A0020503406082B
:101BB00084A20608E8890020503F06085C3F06081A
:101BC00000B50F48836C002B83B00CDD4FF47A72A4
:101BD00002FB03F30A229FED087BA3FB02238DED9A
:101BE000007B57F09DFB4DF02DFA0021642056F04C
:101BF00017FFF8E7AFF300800000000000000000CE
:101C0000D8210020000000002DE9F047244B1B687C
:101C100082B08A46002B36D09A881C680E2A1EA7EE
:101C2000D7E9006705464FF0000105D034B32346DD
:101C300024689A880E2AF9D193F82020AA42F5D177
:101C4000D869694608F0FEFC00BB0198FEF75AFE11
:101C500032463B46FEF7EAFF804600988946FEF78B
:101C600051FE02460B4640464946FEF7FFFCFFF791
:101C700095F90121CAF80000002CD8D119B12046ED
:101C800002B0BDE8F0870023CAF800304FF0FF34FF
:101C9000204602B0BDE8F0870000000080842E419D
:101CA0000C8F0020000000002DE9F04F2C4B1E6827
:101CB00083B0002E3CD0B38834680E2B0FF2980905
:101CC000D9E90089834605D094B326462468B388B1
:101CD0000E2BF9D10C21012057F002FF6946054671
:101CE000A0B3F06908F0AEFC824650BB96F82030F5
:101CF0002B710198FEF706FE42464B46FEF796FF13
:101D0000064600980F46FEF7FDFD0B460246394693
:101D10003046FEF7ABFCFFF741F9DBF80430A86072
:101D2000C5F800A043B11D60CBF80450002CCCD105
:101D3000002003B0BDE8F08FCBF80050CBF8045082
:101D4000C2E74FF0FF3003B0BDE8F08F6FF00B003B
:101D5000EFE700BFAFF300800000000080842E4159
:101D60000C8F0020000000002DE9F047244B1B6879
:101D700082B08A46002B36D09A881C680D2A1EA78E
:101D8000D7E9006705464FF0000105D034B323467C
:101D900024689A880D2AF9D193F82020AA42F5D117
:101DA000D869694608F062FC00BB0198FEF7AAFDFD
:101DB00032463B46FEF73AFF804600988946FEF7DA
:101DC000A1FD02460B4640464946FEF74FFCFFF791
:101DD000E5F80121CAF80000002CD8D119B120463D
:101DE00002B0BDE8F0870023CAF800304FF0FF349E
:101DF000204602B0BDE8F0870000000080842E413C
:101E00000C8F0020000000002DE9F04F2C4B1E68C5
:101E100083B0002E3CD0B38834680D2B0FF29809A4
:101E2000D9E90089834605D094B326462468B3884F
:101E30000D2BF9D10C21012057F052FE69460546C1
:101E4000A0B3F06908F012FC824650BB96F820302F
:101E50002B710198FEF756FD42464B46FEF7E6FE13
:101E6000064600980F46FEF74DFD0B4602463946E2
:101E70003046FEF7FBFBFFF791F8DBF80430A86073
:101E8000C5F800A043B11D60CBF80450002CCCD1A4
:101E9000002003B0BDE8F08FCBF80050CBF8045021
:101EA000C2E74FF0FF3003B0BDE8F08F6FF00B00DA
:101EB000EFE700BFAFF300800000000080842E41F8
:101EC0000C8F0020000000002DE9F04F9B466A4B6C
:101ED00089B01D689DF848A0002D00F0C380AB8834
:101EE0002C68032BCDE9001207468E464FF0000602
:101EF00009D0072B5BD0002C00F0AC80254624686D
:101F0000AB88032BF5D195F82030BB42F3D1E869BB
:101F100002A9013608F0BEFB002840F0A380039818
:101F2000FEF7F0FC52A3D3E90023FEF77FFE8046C4
:101F300002988946FEF7E6FC02460B4640464946B3
:101F4000FEF794FBFFF72AF8009B18600598FEF750
:101F5000D9FC47A3D3E90023FEF768FE8046049826
:101F60008946FEF7CFFC02460B4640464946FEF73F
:101F70007DFBFFF713F8019B18600798FEF7C2FC82
:101F80003BA3D3E90023FEF751FE8046069889461D
:101F9000FEF7B8FC0B46024649464046FEF766FB94
:101FA000FEF7FCFFCBF80000AB88072BA3D195F818
:101FB000203053459FD1E86902A9013608F0C6FBDD
:101FC00000284FD10398FEF79DFC29A3D3E90023F5
:101FD000FEF72CFE804602988946FEF793FC0246E7
:101FE0000B4640464946FEF741FBFEF7D7FF139BE1
:101FF00018600598FEF786FC1DA3D3E90023FEF7C1
:1020000015FE804604988946FEF77CFC02460B4686
:1020100040464946FEF72AFBFEF7C0FF149B1860B6
:102020000798FEF76FFC12A3D3E90023FEF7FEFD2D
:10203000804606988946FEF765FC0B4602464946EF
:102040004046FEF713FBFEF7A9FF159B1860002C16
:102050007FF454AF012E4FF0FF30C8BF002009B00D
:10206000BDE8F08F4FF0FF3009B0BDE8F08F00BF42
:102070000000000080842E410C8F00200000000032
:10208000F0B5834E3378012BC1B000F0F580814B61
:10209000044693E803000025012706953C2205909D
:1020A0008DF8181018A82946CDE90A55CDE90F5525
:1020B000CDE90755CDE90C55CDE91155CDE91355BD
:1020C000CDE915553770179509950E9558F0D2F949
:1020D0009FED6B7B8DED007B9FED6B7B2946622234
:1020E00027A88DED027B58F0C5F93A4631466A487B
:1020F000A047082269466948A047082269466848FF
:10210000A047082269466748A047082269466648F2
:10211000A047082269466548A047082269466448E6
:10212000A047082269466348A047082269466248DA
:10213000A047082269466148A047082269466048CE
:10214000A047082269465F48A047082269465E48C2
:10215000A047082269465D48A047082269465C48B6
:10216000A047082269465B48A047082269465A48AA
:10217000A047082269465948A0470822694658489E
:10218000A047082269465748A04708226946564892
:10219000A04708220DEB02015448A04708226946D7
:1021A0005348A04727A962225248A047402217A9B6
:1021B0005148A047082269465048A04714220DEB19
:1021C00002014F48A04714220AA94E48A0471422F2
:1021D0000FA94D48A047082269464C48A04708224D
:1021E00069464B48A047082269464A48A04708224A
:1021F00069464948A047082269464848A04708223E
:1022000069464748A047082269464648A047082231
:1022100069464548A047082269464448A047082225
:1022200069464348A04714220DEB02014148A047EC
:10223000082269464048A047082269463F48A0470F
:10224000082269463E48A047082269463D48A04703
:10225000082269463C48A047082269463B48A047F7
:10226000082269463A48A04705A914223948A047E0
:10227000394869460822A047002041B0F0BD00BFA0
:10228000000000000000000040000000000000000E
:102290008FA800202C470608344706083C4706084C
:1022A0004847060854470608604706086C47060872
:1022B0007847060884470608904706089C470608A2
:1022C000A8470608B4470608C0470608C8470608D6
:1022D000D4470608E0470608EC470608F847060812
:1022E000044806081048060880340608003F06081F
:1022F0001C4806082C4806084048060850480608AE
:102300006048060870480608804806089448060891
:10231000A0480608AC480608B8480608C44806089D
:10232000D0480608DC480608EC480608F8480608C5
:1023300008490608184906082449060830490608CD
:102340003C490608484906085449060860490608F9
:102350006C490608243F06085034060800000000B7
:102360002DE9F04F93B005461CF028FF0446944831
:10237000FFF79AFC28BB012D40F0BE80904B1F68F0
:10238000FFB10FF23429D9E900893E68DFF860A275
:10239000B868FEF7C9FA42464B46FEF71DFB012D11
:1023A00083468C4652464FF00301204600F0B5802C
:1023B0003B79CDE900BC1DF04DFF16B137463668BC
:1023C000E6E7804E7E480CF04FFC3046FFF71CFDE0
:1023D00038BB012D72D1D6F80090B9F1000F00F092
:1023E000A280D9F80080DFF80CA2DFF8F8B1D9F8A4
:1023F0000800FEF799FA012D06460F4652464FF0A7
:102400000301204600F0838099F80430CDE900678D
:102410001DF020FFB8F1000F03D0C146D8F80080AE
:10242000E5E768480CF032FC674B68481B78007899
:1024300010A90FAA11AECDE90032CDE902160EABFC
:102440000DAA0CA9FFF740FD012D7FD00E98FEF7D5
:102450006BFA02460B460D98CDE90423FEF764FAA9
:102460000B4602460C98CDE90223FEF75DFA584A66
:10247000CDE90001204603211DF0ECFE1198FEF786
:1024800053FA02460B461098CDE90423FEF74CFAA6
:102490000B4602460F98CDE90223FEF745FA4D4A56
:1024A000CDE90001204603211DF0D4FE4A4A08214F
:1024B00020461DF0CFFE13B0BDE8F08F474A032140
:1024C00020461DF0C7FED6F80090B9F1000F88D164
:1024D00030460CF0DBFB3C4B3C481B78007811A9E4
:1024E00010AACDE902210FAACDE900320CA90EAB4A
:1024F0000DAAFFF7E9FCA9E7394A032120461DF0A0
:10250000A9FE2F4B1F68002F7FF43BAF59E7CDE9A1
:1025100000675A461DF09EFE7CE7CDE900BC314ABB
:102520001DF098FE49E730460CF0B0FB264B2748DB
:102530001B78007811A910AACDE902210FAACDE9D4
:1025400000320CA90EAB0DAAFFF7BEFC1198FEF7E6
:10255000EBF902460B461098CDE90A23FEF7E4F9A1
:1025600002460B460F98CDE90823FEF7DDF9024637
:102570000B460E98CDE90623FEF7D6F902460B4628
:102580000D98CDE90423FEF7CFF90B4602460C98CF
:10259000CDE90223FEF7C8F9134ACDE90001204630
:1025A00003211DF057FE114A032120461DF052FE63
:1025B00013B0BDE8F08F00BFDB8AFD65F7642440EF
:1025C000F08F0020E88F002090A8002091A8002024
:1025D000609206088C920608B49206082C920608AF
:1025E000F8910608049206083C92060814AC060806
:1025F0000C920608E091060800B5134989B0002046
:1026000010F04EF80FF0F8FD104855F0D7FB9FED95
:102610000C7B00220820CDE90302CDE901220092C3
:102620008DED067B0A4B0B490B484FF4805255F059
:10263000E1F90A4909B05DF804EB55F073B900BF40
:1026400000000000000000001916010800900020A2
:102650009114010800C50020B0240020209A06082B
:1026600000B5134989B0012010F01AF80FF056FF99
:10267000104855F0A3FB9FED0C7B00220220CDE912
:102680000302CDE9012200928DED067B0A4B0B4936
:102690000B484FF4006255F0ADF90A4909B05DF8F6
:1026A00004EB55F03FB900BF00000000000000003F
:1026B0006D2301082C9000200522010880D5002000
:1026C000A8250020CC9A060800B589B0104855F01E
:1026D00075FB9FED0D7B00220220CDE90302CDE9C1
:1026E000012200928DED067B0A4B0B490B484FF4FB
:1026F000C06255F07FF90A4909B05DF804EB55F066
:1027000011B900BFAFF3008000000000000000001E
:1027100060950020E956010880E6002098270020F7
:1027200068A306080000000010B58EB000B31C4B73
:1027300018601C4855F042FB1B491C4855F0ACFC86
:102740009FED157B00220120CDE90302CDE9012296
:1027500000928DED067B164B164917484FF4007218
:1027600055F048F915490EB0BDE8104055F0DAB8FB
:10277000134C23685B0703D14FF0FF300EB010BD40
:10278000104A0223CDE90C324FF4825103460CAAC1
:10279000204618F03BFFEFE70000000000000000BB
:1027A0009895002078950020ED5B0108A429002071
:1027B000015A010800ED00209028002008A4060816
:1027C000AC1C002010A406082DE9F04705468AB08D
:1027D0000F46164656F0AEFC03465A183C4842F1E6
:1027E0000002A0FB024C2CF0030404EB9C04121B1F
:1027F0009B1A4FF0CC3C61F100010CFB03FC00FB89
:1028000001CCA3FB003084445C08012F44EACC7463
:102810004FEA5C0845D0766833782D2B3AD02D48A6
:102820003146FDF761FD002843D12046414626A3ED
:10283000D3E90023FEF702FC06460C461046194673
:10284000254A0023FEF7FAFB80460F46104619463C
:102850004EF660220023FEF7F1FB824689461046C1
:1028600019464FF47A720023FEF7E8FBCDE904A97C
:10287000CDE90601CDE90823CDE90064174ACDF87A
:1028800008800397082128461DF0E4FC00200AB0C8
:10289000BDE8F0877378702BC1D1B378002BC4D01A
:1028A000BDE7CDE900480E4A082128461DF0D2FCBC
:1028B000ECE728460B4A334601211DF0CBFC6FF0B4
:1028C0000400E4E7AFF30080005C26050000000090
:1028D000CDCCCCCC18B7060880EE36003CB7060845
:1028E00004B7060824B7060800B5034683B000F114
:1028F0003C02BFF35B8F52E8001F21F0020142E867
:10290000001CBCF1000FF6D1BFF35B8FBFF35B8FF0
:1029100052E800CF4CF0010C42E800C10029F7D189
:10292000BFF35B8F9A6B0A239FED057BA2FB03230A
:102930008DED007B56F0F4FC03B05DF804FB00BFA6
:10294000000000000000000010B59FED0F7B88B074
:102950000469002201230A21CDE902210493009099
:1029600001928DED067B0A4B0A494FF4806204F117
:10297000080055F03FF8206008B0BDE8104055F061
:10298000F3BD00BFAFF300800000000000000000B6
:10299000B14D0208001601202DE9F84F14460569D3
:1029A00000293ED1B5F900302A7B954983FB0232DC
:1029B000A3FB010301FB0233820F42EA830220F0F2
:1029C000404C22F0404294444FF6ED7202EAE3722A
:1029D0000CEB137C94448B4AA2FB0C12ACEB02016F
:1029E00002EB5102920BC2EBC232ACEB020C864AF4
:1029F000864902EAE3729444B0EB0C00844A00FB7F
:102A000001F163EBEC7302FB0311A0FB0202114422
:102A1000804A0023FEF712FBC4E900020020BDE853
:102A2000F88F0139062900F2DB81DFE811F0AD00F3
:102A3000E100F7009B01D301D6010700B5F90610AC
:102A40002A8A81FB02124B1842EB02075E1842EB06
:102A500007073F0247EA16673602761A67EB020756
:102A6000FF0147EA5667F601761A67EB0207BF00D7
:102A700047EA9677B600761A67EB0207FF0047EA47
:102A80005677F6005CA3D3E9002330463946FEF7BB
:102A9000D5FA614A2060394630460023FEF7CEFA67
:102AA0005C4A0023FEF7CAFA6260B5F908102A8A68
:102AB00081FB02124B1842EB02075E1842EB07073C
:102AC0003F0247EA16673602761A67EB0207FF01F4
:102AD00047EA5667F601761A67EB0207BF0047EA36
:102AE0009677B600761A67EB0207FF0047EA56773B
:102AF000F60041A3D3E9002330463946FEF79EFA9B
:102B0000454AA060002330463946FEF797FA414A0D
:102B10000023FEF793FAE260B5F90A102A8A81FBD6
:102B200002124B1842EB02065D1842EB0606360213
:102B300046EA15662D026D1A66EB0206F60146EAB4
:102B40005566ED016D1A66EB0206B60046EA95760B
:102B5000AD006D1A66EB0206F60046EA5576ED000A
:102B600025A3D3E9002328463146FEF767FA2A4A0F
:102B70002061002328463146FEF760FA254A0023EB
:102B8000FEF75CFA626149E7B5F902302A7B1C491D
:102B900083FB0232A3FB010301FB0233810F41EAF5
:102BA000830120F0404221F040410A444FF6ED718C
:102BB00001EAE37102EB13720A441249A1FB0251CC
:102BC000551A01EB5501890BC1EBC131521A0E495F
:102BD0000F4D01EAE3710A440C49801A00FB01F130
:102BE00063EBE27305FB0311A0FB050529440FE726
:102BF000B5F90430CAE700BF006BC53F5D050000B2
:102C00003AA39500050002000280FFFFFFDFFFEFFF
:102C1000FF7FFFBF40420F004CFF5900B5F9003065
:102C20002A7BDFF8DCB1DFF8DC81DFF8DC91704F64
:102C300083FB0232A3FB0B130BFB02338A0F42EA26
:102C4000830222F0404021F040424FF6ED7A0244E8
:102C500002EB13720AEAE3700244A8FB0260161A40
:102C600000EB5600800BC0EBC030121A09EAE3708B
:102C70000244604E881A63EBE27307FB00F106FB27
:102C80000313A0FB060119445B4A0023FEF7D6F9A3
:102C9000C4E90002B5F902302A7B83FB0232A3FBB0
:102CA0000B030BFB0233820F42EA830222F0404106
:102CB00020F040420A4402EB13720AEAE3710A442C
:102CC000A8FB02C1A2EB010C01EB5C01890BC1EB7B
:102CD000C131521A09EAE3710A44801A63EBE273C4
:102CE00007FB00F106FB0313A0FB06011944424A4F
:102CF0000023FEF7A3F9C4E90202B5F904302A7BE8
:102D000083FB0232A3FB0B130BFB02338A0F42EA55
:102D1000830222F0404021F0404202440AEAE37A72
:102D200002EB13725244A8FB0208A2EB080008EB66
:102D300050084FEA9830C0EBC03009EAE379121A24
:102D40004A44881A63EBE27307FB00F106FB0311A8
:102D5000A0FB0606284A31440023FEF76FF9C4E9B8
:102D600004025BE6B5F906102A8A81FB02124B18B1
:102D700042EB02065D1842EB0606360246EA15668D
:102D80002D026D1A66EB0206F60146EA5566ED0164
:102D90006D1A66EB0206B60046EA9576AD006D1A2E
:102DA00066EB0206F60046EA5576ED000EA3D3E97F
:102DB000002328463146FEF741F9104A20600023DF
:102DC00028463146FEF73AF90B4A0023FEF736F95A
:102DD000626023E6B5F90810C6E7B5F90A10C3E743
:102DE0006FF085001BE600BF006BC53F5D0500006E
:102DF000FFDFFFEFFF7FFFBF40420F004CFF590096
:102E00003AA39500050002000280FFFF00000000C9
:102E10002DE9F0470446076982B016460D460029A1
:102E200000F0DB80606883680DF10602D3F804804F
:102E300042210123C047002871D1606883680DF1E9
:102E40000702D3F804807D210123C047002866D102
:102E5000002D00F0EA806868FDF754FD88A3D3E9EF
:102E60000023FDF7E3FE804628688946FDF74AFD0A
:102E700002460B4640464946FDF7F8FB9DF8062002
:102E8000774B9DF807A002F0F005002280468946A6
:102E9000FEF728F8002845D0724B002240464946EC
:102EA000FEF70CF800283DD045F006054AF0020375
:102EB000062005F03F02B8738DF807308DF8062024
:102EC00066B13368022B00F09C80043B18BF0123DD
:102ED0005B0122F0300213438DF80630606883688E
:102EE0000DF106029D6842210123A847B8B94FF4AD
:102EF000E17055F0C1FD60689DF80710836801F02E
:102F00000F019C688DF8071001230DF107027D2148
:102F1000A04720B94FF47A7055F0AEFD002002B002
:102F2000BDE8F0874F4B002240464946FDF7DAFFE7
:102F300038B14D4B002240464946FDF7BFFF0028FF
:102F400061D1494B002240464946FDF7CBFF00289E
:102F500047D1464B002240464946FDF7C3FF38B1F2
:102F6000434B002240464946FDF7A8FF002862D1A6
:102F70003F4B002240464946FDF7B4FF38B13D4B78
:102F8000002240464946FDF799FF00285FD1394BA2
:102F9000002240464946FDF7A5FF30B1364B0022DE
:102FA00040464946FDF78AFF98BB334B0022404616
:102FB0004946FDF797FF30B1304B00224046494665
:102FC000FDF77CFF58BB2D4B404649460022FDF7DC
:102FD00089FFB0BB0AF0FD036BE7002A7FF422AF44
:102FE0009CE7224B002240464946FDF767FF002838
:102FF000AFD045F008024AF00203082042F0C002B8
:1030000059E7102365E745F007054AF0020307205A
:103010004FE745F00B024AF002030B20EEE745F0C4
:103020000C024AF002030C20E8E7002E3FF476AFD2
:103030009DF8062045E745F009024AF00203092001
:10304000DCE745F00D024AF002030D20D6E745F01B
:103050000A024AF002030A20D0E700BFAFF3008063
:10306000000039400000494000005940000069401C
:103070000000794000008940000099400000A9400C
:103080000000000080842E412DE9F04704460769C6
:1030900082B016460D46002900F0E2806068836821
:1030A0000DF10602D3F8048040210123C047002817
:1030B00077D1606883680DF10702D3F804807D2121
:1030C0000123C04700286CD1002D00F0A981686859
:1030D000FDF718FCC8A3D3E90023FDF7A7FD804640
:1030E00028688946FDF70EFC02460B4640464946D5
:1030F000FDF7BCFA9DF80650B34B9DF807A00022DF
:103100008046894605F0F005FDF7ECFE00284BD01F
:10311000AE4B002240464946FDF7D0FE002843D082
:1031200045F001054AF0040A012005F07F05787397
:103130008DF807A08DF80650002E00F00B81336843
:10314000202B26DC002B2ADD013B1F2B27D8DFE8B4
:1031500013F0650163012600BF002600260026004B
:10316000F90026002600260026002600260026005C
:1031700065012600260026002600260026002600DF
:10318000260026002600260026002600260026000F
:103190006301402B00F09C80802B00F0D3806FF007
:1031A000850002B0BDE8F087884B002240464946C2
:1031B000FDF798FE40B1864B002240464946FDF798
:1031C0007DFE002840F0EB80814B002240464946BE
:1031D000FDF788FE002848D17E4B00224046494634
:1031E000FDF780FE40B17C4B002240464946FDF78A
:1031F00065FE002840F01D81774B0022404649467D
:10320000FDF770FE40B1754B002240464946FDF780
:1032100055FE002840F0F480704B0022404649469D
:10322000FDF760FE40B16E4B002240464946FDF777
:1032300045FE002840F0EA80694B0022404649469E
:10324000FDF750FEF8B1674B002240464946FDF7B6
:1032500035FEC0B145F007054AF0040A072064E7CF
:10326000002A7FF41BAF00209BE75A4B0022404608
:103270004946FDF723FE0028AED045F003054AF08D
:10328000040A032051E7574B002240464946FDF708
:1032900029FEF8B1544B002240464946FDF70EFE88
:1032A000C0B145F008054AF0040A082365F07F051F
:1032B0007B738DF807A08DF80650002E4AD0336836
:1032C000022B00F0A980042B00F0A880012B39D13B
:1032D000202238E0444B002240464946FDF702FEDA
:1032E00060B1424B002240464946FDF7E7FD28B158
:1032F00045F009054AF0040A0923D7E73B4B0022B1
:1033000040464946FDF7EEFD00284ED1384B0022DD
:1033100040464946FDF7E6FD40B1364B00224046A7
:103320004946FDF7CBFD002840F08F80314B4046E9
:1033300049460022FDF7D6FD002840F080800AF0C3
:10334000FB0AF2E630229DF8063023F030031343E7
:103350008DF80630606883680DF106029D68402193
:103360000123A84700287FF41CAF4FF4E17055F00B
:1033700083FB60689DF80710836801F00F019C686B
:103380008DF8071001230DF107027D21A0470028C9
:103390007FF407AF4FF47A7055F06EFB63E745F0AA
:1033A00002054AF0040A0220BFE6114B0022404603
:1033B0004946FDF783FD0028A8D045F00A054AF0EC
:1033C000040A0A2372E700BF0000E93F0000F93F4A
:1033D0000000094000001940000029400000394069
:1033E0000000494000005940000069400000794059
:1033F00000008940000099400000000080842E41B8
:1034000045F005054AF0040A05208EE645F006055C
:103410004AF0040A062088E6102294E7002292E788
:10342000002E3FF420AF7A7B3368072A3FF648AF7F
:1034300086E645F004054AF0040A042075E645F0E6
:103440000C054AF0040A0C2330E745F00B054AF05E
:10345000040A0B232AE700BF70B582B04FF0000CBE
:1034600005698DF800C0044604E0B04700282BDB56
:103470009DF800C0606886681CF0200F76684FF0E9
:1034800001036A464FF00301EFD006230421B04741
:10349000002819DB9DF802209DF801109DF80530E9
:1034A000120442EA01229DF800109FED097B0A43B5
:1034B0009DF80410AA611B0443EA01239DF8031040
:1034C00085ED087B0B43EB6102B070BDAFF300806C
:1034D000000000000000000030B5642293B04FF4FB
:1034E000E021054640F082FF58B9154928464AF0C8
:1034F000F3FA95F8543043F0010385F8543013B0D3
:1035000030BD044668464AF0D1FA9FED0B7B0C4B68
:103510000C4A0B94CDE9005300214FF6FF73684627
:103520008DED087B0E940A910792ADF840304AF079
:1035300025FB13B030BD00BF0100000001000000FA
:10354000AD3B0508C1DC040830B5838F93B0044659
:103550002BB990F85830DB0718D413B030BD68464B
:103560004AF0A4FA9FED0C7B0D4BA58F0D4A0792F4
:10357000CDE9004301210C4B039368468DED087B98
:10358000CDE90A154AF0FAFA13B030BD13B0BDE820
:10359000304050F055BB00BF0000000000000000AC
:1035A00061390508C1DC0408E93C05080000000099
:1035B0002DE9F04F8DB0446802AF6068F9607A6021
:1035C00053F086FE002800F08180238A3B60D4E916
:1035D0000159AB6807F110025B68494628469847D5
:1035E000041E57DBD7E9044BFA684FF47A7302FBE9
:1035F00003F3A3FB04A603FB0B6631463EA3D3E90A
:1036000000235046FDF76AFD4FF0FF383C4BB86091
:10361000D04573EB06063BD3D7ED017A9FED397A9F
:10362000F8EE676AC6EE877A97ED037ADFED366AC1
:10363000B8EE477A67EE877A67EEA67AFCEEE77A0D
:1036400017EE903AA3FB046403FB0B4421462AA324
:10365000D3E900233046FDF741FD294AB04572EB1E
:103660000404034614D3B968AA68994238BF6FF0BE
:1036700015040FD3396800911468BA684946284682
:10368000A047044630B920462C37BD46BDE8F08F30
:103690006FF085041D4803685B07F4D06D4688B061
:1036A00002AB1B4AFE685A611A469E6104217E687D
:1036B000DE6142F8101F00234FF4015117F0A6FFFE
:1036C0002046AD462C37BD46BDE8F08F0F4C236831
:1036D0005A0702D16FF01204D5E70E4A0223C7E958
:1036E00008324FF48251034607F12002204617F0BA
:1036F0008DFFEFE7AFF3008000CA9A3B00000000A7
:10370000FFC99A3B0000C84200007A44FC1C00201C
:10371000CC140708B41407082DE9F04F8FB04468A3
:10372000066902AF054601221146304654F0A0FB5F
:1037300000233376F3617566A06953F0C9FD002854
:1037400000F0C680E58BA069217F45F40032D0F8F7
:1037500010C0D0F808E015F0010F4FF00103DCF8BD
:10376000005003FA01F314BF2B4325EA0303CCF8FE
:103770000030DEF800309847054648B16E480368CF
:103780005E0740F08E8028463437BD46BDE8F08F96
:1037900006F12000694A6A4900F0C2FC42F2107248
:1037A0003223C6E91A23606853F092FD002800F026
:1037B0009980217DE368F960218A7B61D4E9016900
:1037C000B960B36807F118025B684946304698470C
:1037D000051E55DB7A69BD694FF47A7302FB03F36A
:1037E000FA697A601146A3FB05A203FB012B504640
:1037F0004FA3D3E900235946FDF770FC4FF0FF3883
:10380000504B3861D04573EB0B0368D3FA684E4BCD
:1038100097ED057ADFED4D6AA3FB02235B0907EE06
:10382000903AB8EE477AF8EEE77A7A6867EE877AE8
:1038300067EEA67AFCEEE77A17EE903AA3FB05A5B1
:1038400003FB025529463AA3D3E900235046FDF76E
:1038500045FC3C4AD04572EB050503463FD3396928
:10386000B268994238BF6FF0150509D3B968009165
:1038700015683A6949463046A8470546002882D06F
:103880002D4803685B073FF47EAF6E4688B0247D09
:1038900002AB7A69DC612E4C9A6104211A465C61A4
:1038A00009E06E4688B0247F02ABC3E90645294A89
:1038B0005A6104211A4642F8101F00234FF40151A7
:1038C00017F0A4FE2846B5463437BD46BDE8F08F54
:1038D000194D2B68590716D16FF0120553E76FF099
:1038E0008505CDE7144C23685A07F5D01A4A022300
:1038F000C7E90A324FF48251034607F128022046F5
:1039000017F084FEE8E76E4688B0247F02AB134AC6
:103910005A611A4603219C6142F8101F4FF4C251AC
:103920000346284617F072FEB546D5E7AFF3008090
:1039300000CA9A3B00000000FC1C0020F94B05085F
:10394000054D0508FFC99A3B1F85EB5100007A44DD
:10395000CC140708A0150708B4140708C8160708F0
:103960002DE9F843034600AF10EE100AD3F810809B
:10397000FCF7DAFF40A3D3E9002304460D46FDF728
:103980009DFA00285ED13EA3D3E9002320462946B4
:10399000FDF7B2FA0646002854D137A3D3E9002335
:1039A00020462946FCF760FE37A3D3E90023FDF744
:1039B0003DF9FDF7F3FADFED2A7A07EE100A67EE1C
:1039C000277A17EE900AFCF7AFFF23A3D3E9002371
:1039D000FDF72CF9FDF7C2FA1FFA80F9214D2846B0
:1039E00053F076FC88B3AC681F4923682846984793
:1039F0004FF0FF324FF0FF33404654F075FA01218B
:103A000063684A4628469847044630B9404654F011
:103A10003FFA2046BD46BDE8F883144803685B07BB
:103A2000F4D06D4688B06B4611499C611A465961C5
:103A3000032342F8103F4FF4C251334617F0E6FD1E
:103A4000AD46E3E76FF01504E3E72968094813F092
:103A5000F1FF4FF0FF34DCE76666666666660A4093
:103A600000008045C42406089C190708001D00209A
:103A7000E4180708C8180708EC51B81E856B2040E9
:103A8000A4703D0AD7633440BA490C022B870D401D
:103A90002DE9F04344680569206889B053F018FCAB
:103AA000002835D001221146284654F0E1F9D4E926
:103AB0000078A668B4F80C90BB6802AA5B6841461F
:103AC00038469847002836DB029D039A4FF47A73F4
:103AD00006FB03F3A5FB036503FB025530461EA35B
:103AE000D3E900232946FDF7F9FA174B4FF0FF31D0
:103AF000B142AB4102461ED3BB68CDF800901D68B1
:103B0000414638460023A847A8B909B0BDE8F0836C
:103B10000E4C23685B0702D16FF01200F5E70C4AE8
:103B20000223CDE906324FF48251034606AA20460D
:103B300017F06CFDF0E70748616813F07BFF4FF06A
:103B4000FF30E2E7AFF30080FFC99A3B541C00202E
:103B5000B4140708A019070800CA9A3B0000000027
:103B60002DE9F0474568076984B04FF0FF324FF008
:103B7000FF33384654F0B8F995E84005B5F80C9095
:103B8000B36802AA5B68414630469847041E2BDBA7
:103B9000029C039A4FF47A7303FB0AF3A4FB03A479
:103BA00003FB0244214618A3D3E900235046FDF746
:103BB00095FA134B4FF0FF315145A341024638BFF0
:103BC0006FF0850410D3B368CDF800901C684146AF
:103BD00030460023A047044630B9384654F058F91F
:103BE000204604B0BDE8F0876968064813F022FF5C
:103BF000384654F04DF9204604B0BDE8F08700BFC8
:103C0000FFC99A3BA019070800CA9A3B00000000B0
:103C10002DE9F04F4468D0F810808BB04FF0FF32A0
:103C20004FF0FF33404654F05FF9A389A76804932F
:103C3000D4E90059AB6808AA5B684946284698470A
:103C4000061E53DB089A099906924FF47A7A0AFB0A
:103C500007F3A3FB022603FB0166079105921046BA
:103C6000314629A3D3E90023FDF738FA059A284BFA
:103C700003904FF0FF3B934573EB060634D3384671
:103C8000FCF730FE234B0022FCF7A6FEFDF766F999
:103C9000069B0AFB00F0A0FB036A079B00FB03AA3C
:103CA000514619A3D3E900233046FDF717FA184A05
:103CB000B34572EB0A0A034616D30399AA689942E0
:103CC00038BF6FF0150611D3049900911668039A56
:103CD00049462846B047064640B9404654F0D8F811
:103CE00030460BB0BDE8F08F6FF0850661680A487A
:103CF00013F0A0FE404654F0CBF830460BB0BDE8C0
:103D0000F08F00BFAFF3008000CA9A3B00000000B4
:103D1000FFC99A3B0000E03FA0190708000000001F
:103D20002DE9F04F85B09846119B83739FED307B52
:103D3000129B0373073200F1580304460026C0E9C2
:103D400016330D4622F0070A01F140030421866074
:103D5000C6734173524684ED067BAA211846DDF8EE
:103D600038B0DDF84C9056F085FB109BC4F8A46089
:103D7000C4E9270A0AF1400702930F9B2F44CDE9BB
:103D800000B3294643463A4620461EF053FC0F9B9B
:103D9000E366109B6665C4E9198B23674FF0100238
:103DA000EFF3118382F31288BFF36F8F124DAA6A6B
:103DB0006267AC6283F31188BFF36F8FB9F1000FB4
:103DC00011D049461F2204F1780057F05FFC84F8B7
:103DD0009760AB680BB1D3F8A830C4F8A830384668
:103DE00005B0BDE8F08F84F87890F2E7AFF300807B
:103DF0000000000000000000CCA700200000000030
:103E00002DE9F04F2DED028B9FED4F8B87B000F524
:103E100080734F4F0593054600F584794FF00008F5
:103E20004FF01003EFF3118683F31288BFF36F8F07
:103E3000D5F8F840002C5FD0D5F8FC202368C5F8F1
:103E4000F830944208BFC5F8FC30D5F8103143F083
:103E50000203C5F81031E368626823F0040343F0FD
:103E60000103E36086F31188BFF36F8F204690470C
:103E70004FF01003EFF3118A83F31288BFF36F8FB3
:103E8000E3689A0723F001010FD4E160D5F81031FF
:103E900023F00203C5F810318AF31188BFF36F8F46
:103EA000DB05BDD454F00CFDBAE7386823F00303FA
:103EB000E3600028EAD0436806689C424FF0000B9C
:103EC000014608D0002EE1D030468B464368366864
:103ED0009C420146F6D10168BBF1000F2DD0CBF812
:103EE00000107B68984208BFC7F804B040F8088B00
:103EF00053F0CEFF5946E5E7D5F8103123F0040220
:103F00005907C5F8102109D48DED008B059ACDF81D
:103F1000088031460F4854F037FF81E70022012125
:103F2000484654F0F9FE0028EED000220121484610
:103F300054F0F2FE0028F1D1E6E77B683960984240
:103F4000D4D17960D2E700BFFFFFFFFFFFFFFFFF83
:103F5000E8860020F8A7002030B5044689B000208C
:103F6000C4F8F800C4F8FC000C9D04F58070C4E9A6
:103F7000400004F58470C4E942000DB3287900289C
:103F800040F2011008BF01209FED0F7BC4F8100123
:103F90000020CDE90100039304908DED067B0C4BCE
:103FA0000094204653F026FD25B1296811B1204622
:103FB00053F0B8FC204609B0BDE8304053F018BDBE
:103FC0000120E1E7AFF30080FFFFFFFFFFFFFFFFEE
:103FD000013E00080000000010B54FF01003EFF3A1
:103FE000118483F31288BFF36F8F10F80B3C13F02A
:103FF000280217D150F8101C69B150E906319FED25
:104000000C7B0B60596010F80B3C40F8102C00ED55
:10401000067B03F0FD0323F0140300F80B3C183873
:1040200054F0B8F984F31188BFF36F8F10BD00BF4F
:1040300000000000000000004FF01003EFF31182B9
:1040400083F31288BFF36F8F83686BB1D0E90031BF
:104050009FED097B0B605960437B80ED007B23F073
:10406000020300214373816082F31188BFF36F8FD5
:10407000704700BFAFF300800000000000000000A8
:1040800003464FF01001EFF3118281F31288BFF362
:104090006F8F0068834213D068B1D0E900319FED83
:1040A0000C7B0B605960437B80ED007B23F00203A7
:1040B00000214373816082F31188BFF36F8F7047D3
:1040C000002082F31188BFF36F8F7047AFF3008039
:1040D00000000000000000004FF01003EFF3118219
:1040E00083F31288BFF36F8F83686BB1D0E900311F
:1040F0009FED097B0B605960437B80ED007B23F0D3
:10410000020300214373816082F31188BFF36F8F34
:10411000183054F017BF00BF00000000000000007E
:104120009FED097B10B4002300F11804C0E9064498
:1041300080ED007BC0E908125DF8044B0363436324
:10414000704700BFAFF300800000000000000000D7
:104150002DE9F04F1C462DED028BB54B1B689DB031
:104160000025834618468846079218950893FCF761
:1041700047F8002182460020CDE90401424617920B
:10418000174612F8013B2D2B5ED801A151F823F000
:1041900067430008494200084942000849420008B4
:1041A00049420008494200084942000849420008C3
:1041B000494200087F4100087F4100087F41000814
:1041C0007F4100087F410008494200084942000839
:1041D0004942000849420008494200084942000893
:1041E0004942000849420008494200084942000883
:1041F0004942000849420008494200084942000873
:104200004942000849420008494200084942000862
:104210007F4100084942000849420008494200081D
:104220004942000849420008494200084942000842
:10423000494200084942000849420008CD490008A7
:1042400049420008E149000800220992302B00F0A1
:10425000998000220A922F2B1C4640F212854FF0C3
:10426000000938464E464D4613E00130082D1790A0
:10427000C8BF09EB89090478C6BF03EB4903A3F162
:104280003009A2F130062F2C05F10105234640F339
:10429000BB8006EB8602392C03EB4202E5DD089970
:1042A000524657F0B1F9034600287CD117990A46C7
:1042B0005144179112F80A40002D40F09B85302C94
:1042C00040F07F850A461346013217921478302C4D
:1042D000F9D0C1F101010B44A4F13102082A36D80A
:1042E000179F03F1010A0023A4F1300E01253C467B
:1042F0000B9306EB86060EEB46060023621C179214
:104300006478A4F13001092900F24583179C013338
:104310008E460029F2D0012B08BF05F1010C00F0F8
:10432000FB8603EB050C0CF1FF3003E05600A842BE
:1043300000F0F286082D06EB860205F10105F5D99D
:10434000102DDCBF09EB89094FEA4909EFE7652C1D
:1043500040F0498300220B929246012208920A9A69
:104360001A4340F03183079B9FED2F8B0BB1C3F8AD
:104370000080B0EE480AF0EE680A1DB0BDEC028B7A
:10438000BDE8F08F7B7803F0DF03582B00F0358415
:10439000013717973B78302BFAD0002B00F0DB82E7
:1043A00001220A9257E700230B959A460893652C41
:1043B00044D0452C42D000220E92002D40F08C803B
:1043C0000A9A1A4340F0C782089B002BCBD1692C74
:1043D00000F0A88400F3DE83492C00F0A3844E2C67
:1043E000C1D1144917A85AF04DF80028BBD0179B2B
:1043F0001B78282B00F060850F4805F061F8B0EEBF
:10440000408AF0EE608AA8E20899524657F0FCF81C
:1044100003460028C7D1179A0B9502EB0A011791A2
:1044200012F80A409A466CE7000000000000000005
:10443000F8250708C020070838B80608002D8ED0D8
:10444000DDF85C8008F10102179298F801402B2CEE
:1044500000F0A4822D2C00F091824FF0000CA4F10A
:104460003000092800F29282302C179A0AD10132CA
:1044700017921478302CFAD0A4F1310108299AD877
:10448000A4F13000511C179154782F2C40F30A846A
:104490008E460E9708E0013117919EF801402F2CAF
:1044A000A7F1300006DD8E4600EB8007392C04EBC7
:1044B0004707F0DD891A08290E9F40F3F38344F67D
:1044C0001F620E92BCF1000F3FF477AF0E9A52427A
:1044D0000E92002D3FF474AF0B9A1346002A08BFCA
:1044E0002B4630460B93FCF7FDF90B460246CDE90F
:1044F00004230E9B102DA3EB0A032C46A8BF102407
:10450000092D0A9317DD524B03EBC40353E9122321
:10451000FCF762FA0246484690468946FCF7E2F903
:1045200002460B4640464946FCF7A0F80F2DCDE960
:10453000040100F3B0810A9B002B00F042820A9B29
:1045400040F37082162B40F3B4830A9AC5F1250319
:10455000934280F239842C1B144414F00F000AD0CB
:104560003B4901EBC001DDE90423D1E90001FCF77F
:1045700033FACDE9040134F00F034DD0B3F59A7F3F
:1045800000F37583102BDFF8D8E04FEA231440F3D3
:10459000F784DDE904234FF0000C0897F046E1466C
:1045A000774614F0010F104619464FEA640409F1EA
:1045B000010907D0D8E90023FCF70EFA4FF0010CEF
:1045C00002460B46012C08F10808EAD1BE46089FB6
:1045D000BCF1000F01D0CDE90423059BA3F1547376
:1045E0000EEBC9010593DDE90423D1E90001FCF7D5
:1045F000F3F9184BCDE904010B400A4616498B42EA
:1046000000F23583A1F580118B4240F25084134AA9
:104610004FF0FF33CDE90432002308930B9A009644
:104620002B46394658465AF081F91390002800F07D
:104630001E830A9A0E9B002AAAEB0303A8BF00233D
:104640000B934FF0000922EAE2731293CA46E3E0AB
:10465000402E06080000F07F0000A07CFFFFEF7FE7
:10466000182E0608D21A1F2AA4EB020400F3538264
:10467000012303FA02F500231093089B26444444C7
:10468000A0451E444346A8BF2346B342A8BF3346B5
:10469000002B03DDE41AF61AA8EB03080B9B002B92
:1046A00000F3E281002C00F3F8810A9B002B00F359
:1046B0002882002E00F31A82B8F1000F08DD51465F
:1046C000424658465AF01AFB8246002800F01782EC
:1046D00018993A4658465AF0ABFB8146002800F03C
:1046E0000E820023C268C36051460E925AF07EFBD0
:1046F0000028C0F21184059E00F089835146484687
:104700005AF038FD55EC104B00224FF08043204604
:104710002946FCF7DDFB002800F096810E9B002B5C
:1047200040F00682049B002B40F09482C6F31303F2
:10473000002B40F03482B44B002220462946FCF77F
:10474000BDFB002840F05A83B04B0022204629468A
:10475000FCF742F90A460146CDE9101202F1004386
:104760000C900D93DFF8AC82A94B06EA0808984537
:10477000DDE90C4500F0E381089B1BB3B8F1D46F71
:1047800020D89DA3D3E90023DDE91001FCF7A0FBAD
:10479000A0B1DDE91001FCF7E1FB012838BF0120E1
:1047A000FCF7A0F80E9BCDE91001002B40F0CF8262
:1047B00001F1004314901593DDE9144505F1D6632A
:1047C000A3EB0805B0EE480AF0EE680A5AF0E2FBE7
:1047D000204653EC102B2946FCF7FEF853EC182B1F
:1047E000FBF744FFCDE904010C46089B23B9894B34
:1047F0002340984500F0DC81189958465AF03CF85F
:10480000394658465AF038F8514658465AF034F866
:10481000494658465AF030F8139C584661685AF099
:1048200005F80746002800F06A8122699DED048B97
:104830000232920004F10C010C30FCF787FCB0EE60
:10484000480AF0EE680A1AAA19A958465AF032FC2A
:104850001890002800F02A81012158465AF010F9DA
:104860008246002800F04B81199B002BC0F2398151
:104870000B9A129E03EB0208089A1A9C9B1A234477
:10488000654A013B9342C4F13604FFF6EBAE0023C8
:1048900010930125F1E60A9B2C1B1C44002C3FF7CA
:1048A0005CAE3FF4B9AE644214F00F020AD05B4B29
:1048B00003EBC203DDE90401D3E90023FCF7B6F9F9
:1048C000CDE9040124113FF4A7AE1F2C40DC14F005
:1048D000100318BF6A230893DDE90423DFF8408141
:1048E0004FF0000C14F0010F1046194607D0D8E91C
:1048F0000023FCF771F84FF0010C02460B466410E0
:1049000008F10808EED1BCF1000F01D0CDE9042375
:10491000089BA3B1DDE90401C1F30A52C2F16B03A4
:10492000002B0ADD1F2B40F399830020342B0490C9
:1049300040F39C834FF05C7305936A230893DDE991
:10494000040100220023FCF7AFFA00283FF466AE12
:104950002223CBF800309FED2A8B079A0AB1179BD0
:104960001360099B002B3FF404AD18EE901A18EE6B
:10497000102A01F1004343EC182BFAE44FF0010C2C
:1049800008F10202179298F8024068E50022CDF87B
:104990005C800E9211E50122089208E54FF0000CB0
:1049A000EEE71A9A04921B9A03F2334322F4801220
:1049B00042EA03530593290742BF059B43F0004396
:1049C00005939DED048BC8E7002539E50023099385
:1049D0007A1C17927B78002B3FF4C5AC174635E460
:1049E00001230993F4E7452C3FF4B4AC012208926B
:1049F000E6E400BFAFF300800000C0FFFFFFDF412F
:104A000000000000000000000000F03F0000E03F58
:104A10000000E07F0000F07F02FCFFFF402E060850
:104A2000F02D06081633FFF636AF0E9BAAEB0302F5
:104A3000B54B03EBC203DDE90401D3E90023FCF726
:104A4000F5F841EC180B88E7B04B204629460022C8
:104A5000FBF7C2FF0E9BCDE91001002B63D101F1E2
:104A600000430C900D937DE651461A4658465AF085
:104A7000EBF88246002842D00146189A58465AF070
:104A80002DF800283BD00E901899584659F0F4FEA6
:104A90000E9B1893002C7FF708AE189922465846B3
:104AA0005AF02CF9189000287FF4FFAD05469FEDD1
:104AB000888B2223CBF800302946584659F0DCFE7B
:104AC0003946584659F0D8FE5146584659F0D4FE5A
:104AD0001399584659F0D0FE4946584659F0CCFE35
:104AE0003BE7129ADDF82C80D61AC5E639463246E5
:104AF00058465AF003F9074600287FF4DDAD189DAB
:104B0000D5E73946129A58465AF09EF807460028CB
:104B10007FF4CFADF3E77E4AD31A012202FA03F302
:104B200010931546A9E59DED107B8DED0C7B19E6E4
:104B30009FED697B8DED0C7B8DED107B12E6A6F170
:104B400054730593DDE9044545EC104B5AF022FA05
:104B5000DDE90C2351EC100BFBF73EFF22462B4600
:104B6000FBF784FD6B4A6C4B0A409A42CDE9040185
:104B700040F2838018EE902A03F154739A4203D1D5
:104B800018EE103A0133BAD0644A4FF0FF33CDE942
:104B9000043231E66E2C3FF424ACFFF7E4BB9FED0A
:104BA000507B8DED0C7B9FED4C7B8DED107BD9E523
:104BB000DDE9105628463146FCF78BFBFBF7DEFE9D
:104BC00002460B4628463146FBF74EFD0E9D049EDD
:104BD000C4F31304354302460B462543CDE90E23A7
:104BE00026D141A3D3E90023FCF768F900283FF45C
:104BF00003AE9DED048B189D5EE7099B019318ABF6
:104C000002940093464A19AB17A9584659F04AF93D
:104C100010F0070405463FF49EAE062C40F09C8041
:104C2000079B0BB101371F609FED318BFFF7A1BBD5
:104C300031A3D3E90023FCF741F90028D9D1DDE9FC
:104C40000E012FA3D3E90023FCF756F900283FF407
:104C5000D3ADCEE7049B012BA1D1002E9FD1189C90
:104C600022239FED238B2546CBF8003024E7222317
:104C70009FED178BCBF800306FE601F1547405946B
:104C8000B3E508995246384656F0BEFC002800F0BD
:104C90008E8000230B9399461E469A461D46089324
:104CA000FFF787BB44F61F629042A8BF10460E90E4
:104CB00008E40A98144901EBC001DDE90423D1E9B5
:104CC0000001FBF789FE41EC180B46E6AFF30080CC
:104CD000000000000000F07F000000000000F03F36
:104CE000000000000000F0BF9535A094FFFFCF3F0B
:104CF00000000000000000009535A094FFFFDF3F9A
:104D000035E5AF350000E03F402E06080000E03FEB
:104D1000E2FBFFFF0000F07FFFFF9F7CFFFFEF7FC4
:104D2000D8200708BA4917A859F0ACFB00283FF46F
:104D30001AAB179BB749013B17A8179359F0A2FB71
:104D400010B9179B013317939FEDAB8B05E69DEDD3
:104D5000107B8DED147B2FE5189A3AB135211AA8F6
:104D60005AF036FA1899584659F086FD013C199BBD
:104D7000042C3FF620AE01A252F824F0A34900080B
:104D8000A54D00089F4D0008914D0008A34900085B
:104D90004FF0FF336FF00040CDE904300BE69E4B3F
:104DA000059308E61A9B04931B9B059303E617994A
:104DB0000B465144179113F80A4006468146FFF707
:104DC0007EBA0023FFF788BA944CC5F10F0504EBB7
:104DD000C501DDE90423D1E90001FBF7FDFD0A9BD4
:104DE0005D1B04EBC504D4E90023FBF7F5FD41ECA2
:104DF000180BB2E50B958246FFF783BA9FED807BD7
:104E00008DED0C7B9FED807B8DED107BAAE40E9BDE
:104E1000DDF840C08249A846C6F31302002B5ED0DD
:104E20008A4200F00A81BCF1000F37D1049B1D4279
:104E300037D0B0EE480AF0EE680A5AF0ABF8089B9B
:104E400051EC100B002B00F04081C6F30A53C3F164
:104E50006B03002B07DD1C0504F17F53002203F5D3
:104E60004013FBF7B9FD02460B4651EC180BFBF75C
:104E7000FDFB189C41EC180B51EC180B694B002200
:104E8000FBF7AAFD41EC180B18EE903A034308BF5C
:104E90002223254608BFCBF800300DE61CEA060F9A
:104EA000C7D1189C089B2546002BE5D104E602F1EA
:104EB00054730593FFF7B0BB5B4917A81AAA59F0C2
:104EC000FDFA05287FF498AA1B9B43F0FF4343F4A7
:104ED000E00305931A9B04939DED048B3DE5002AA6
:104EE00052D1DDE90401002840F0A080089B002B8E
:104EF00040F0F58021F00044240D2405A4F5801431
:104F00006FEA14536FEA035305934FF0FF33049392
:104F10009DED048B189DCFE5DDE904010E9B034355
:104F2000BFD1C1F31303002BBBD121F00044240DEA
:104F30002405B4F1D66FA046B3D9D9F814301BB903
:104F4000D9F81030012BACDD49460122584659F002
:104F5000D5FE5146814659F049FF0028A1DD089B46
:104F6000002BCBD0A8F580166FEA16536FEA0353D7
:104F700005934FF0FF3304939DED048B189C7BE762
:104F80004FF00009FFF729BBBCF1000F2ED1049BA5
:104F90001D4286D0B0EE480AF0EE680A59F0FAFFDA
:104FA000089B51EC100B002B68D0C6F30A53C3F1D9
:104FB0006B03002B07DD1C0504F17F53002203F572
:104FC0004013FBF709FD02460B4651EC180BFBF7AB
:104FD0004BFB02460B4643EC182B00220023FBF749
:104FE00063FF00287FF43BAE189C45E71CEA060FE0
:104FF0003FF457AFCEE700BF000000000000F07F95
:10500000000000000000E0BF000000000000E03FE2
:10501000B4200708B82007080000F07F402E0608DB
:10502000FFFF0F0000005039C4200708BCF1000F3B
:10503000DCD128423FF435AFACE7DDE90412089B30
:105040000C467BBB0B46013377D0BCF1000F7FF4DD
:1050500025AF14EA080F3FF424AFEAE64FF0FF3221
:1050600002FA03F3049A1A40049266E4C2F14B0276
:105070004FF0FF3393400B4005935EE402460B462E
:1050800051EC180BFBF7F0FA189C02460B4643EC68
:10509000182B002200232546FBF706FF00283FF4CB
:1050A0000BADDDE52A4A3240B2F1D46F2BD9611C39
:1050B000CBD128498E423FF422AD02F580130593EF
:1050C000002304939DED048BEBE602460B4651EC66
:1050D000180BFBF7CBFA189D41EC180BECE4DFF84A
:1050E000708006EA0808B8F1D66F3FF63BAF189D0E
:1050F000B8F15C7F2C463FF6BFAE22239FED128BAA
:10510000CBF80030D8E4100DC0F16B004FF0FF3148
:1051100081408C4299D1D0E7082D9A4402DC654643
:10512000FFF7E7B8BCF1100FDCBF09EB890901EB11
:10513000490965460023FFF7E1B8064A96423FF465
:10514000DEAC01323240B8E7000000000000000091
:105150000000F07FFFFFEF7F2DE9F04F2DED028B78
:10516000D3B00C46CDE9080192460B9359F0E2FA10
:10517000036813931846FBF743F8A38912901D06A2
:1051800003D52369002B00F08A870023CDF810A0F7
:10519000CDE92733CDE91533CDE917330E931493B9
:1051A0000793049B9FEDA27B1B7829AA8DED107BB2
:1051B00026929346002B00F0EB81DDF810A004E06E
:1051C0001AF8013F002B00F01C81252BF8D1049B1D
:1051D000BAEB030540F01A819AF80030002B00F07A
:1051E000D78100239AF801508DF87B3006930AF19D
:1051F000010A4FF0FF3903930AF1010AA5F12003D8
:105200005A2B00F23B81DFE813F0A5023901390186
:105210009E023901390139016A00390139016602FA
:10522000780239017102850239017E025B005B0060
:105230005B005B005B005B005B005B005B003901B7
:10524000390139013901390139013901CF013901F8
:1052500034028700CF01CF01CF0139013901390173
:105260003901C20239013901B50039013901390169
:105270003E023901B0023901390101073901390112
:10528000390139013901390139013901CF013901B8
:1052900034028B00CF01CF01CF01F2028B008000DE
:1052A0003901E8023901DA02B900C9028000390186
:1052B0003E027D00250739013901280739017D00AB
:1052C000A5F1300300221AF8015B02EB820203EB26
:1052D0004202A5F13003092BF5D906928EE7089D0D
:1052E000284659F027FA436817931846FAF788FFBB
:1052F00018900446284659F01DFA83681593002C2F
:1053000040F070869AF8005076E7039B9AF80050B8
:1053100043F0200303936FE7039B43F010030393D1
:10532000039B9C0640F194810B9B073323F00703FA
:105330001A46596852F8083B0B920A460029C0F2F7
:10534000BB85B9F1FF3F00F0F587039921F0800696
:1053500053EA020100F05A850A2B72F1000180F035
:105360007C8730338DF847310DF247130396049351
:10537000012634E0039B43F010030393039B13F0D7
:10538000200200F054810B9B073323F007031946DA
:105390005A6851F8083B0B91039921F4806600216B
:1053A0000020B9F1FF3F8DF87B0000F0938226F0DA
:1053B0008000039053EA020040F08B82B9F1000FA5
:1053C00040F0C187002940F0268516F001061BBF7A
:1053D00030238DF8473152AB0DF24713049300236D
:1053E000B145CDE90C3349469DF87B200A93B8BFFF
:1053F000314605910F93002A52D0059B0133059346
:105400004EE0049BBAEB030500F0C280049B289F8A
:10541000CBE90035279B01332F44072B289727938F
:105420000ADC0BF1080B079B2B440793D4E600BF63
:105430000000000000000000DDE9080126AA5AF083
:10544000B7F980B90DF1A40BEDE7DDE9080126AA53
:105450005AF0AEF9002800F08A800A9B1BB10A9925
:10546000089858F02BFA099B9B89590601F1E582AF
:10547000079853B0BDEC028BBDE8F08F002D00F013
:10548000878000228DF8E4508DF87B200123CDE940
:105490000C2205931E4639AB0A9291460F92049353
:1054A000039B13F0020302D0059902310591039981
:1054B00011F0840405D1DDE905010F1A002F00F376
:1054C0004183289F8AB1279A0DF17B010132013770
:1054D000CBF80010072A4FF0010128972792CBF84C
:1054E000041000F387830BF1080B83B1279B1FAADD
:1054F00001330237CBF80020072B4FF00202289728
:105500002793CBF8042000F383830BF1080B802C46
:1055100000F0FC81A9EB0608B8F1000F00F342820D
:10552000039BDA0500F16D81049BCBF80030279BCB
:10553000CBF804600133F519072B2895279300F366
:10554000AA820BF1080B039B580705D5DDE905235B
:105550009C1A002C00F36E83DDE9062305998A422C
:10556000ACBF9B185B180793002D7FF46EAF002330
:1055700027930A9B1BB10A99089858F09FF90DF1DF
:10558000A40BCDF810A0049B1B78002B7FF415AE64
:10559000289B002B3FF467AF099C089826AA214658
:1055A0005AF006F9A38960E70B9B073323F0070342
:1055B000B3EC027B57EC176B0B9327F000431B9364
:1055C0008DED1A7ADDE91A01AE4B4FF0FF328DED09
:1055D000107BFBF755FE002840F09B84DDE91A01A3
:1055E000A84B4FF0FF32FBF773FC002840F091848A
:1055F0000022002330463946FBF760FC002840F0CB
:105600005B879DF87B20039B9F4C23F080030393D3
:105610009E4B472DC8BF1C4603210023CDE90C3308
:1056200004940A9305910E4699460F93E3E60B996D
:1056300051F8043B0B91039911F010017FF4ACAECB
:10564000039A12F0400000F019879BB20A46A3E6C5
:105650000B9A52F8043B0B92039AD00600F1558442
:10566000039A510640F14D8443F3C03211461BB2F8
:1056700064E60B9B002253F8041B8DF87B208DF809
:10568000E4100B9302E70B9F57F8043B04930026AA
:105690008DF87B60002B00F09E86B9F1FF3F00F093
:1056A0000D8504984A463146FAF78AFF0A90002889
:1056B00001F025810A9B049A0B97B1469E1A26EAAF
:1056C000E673CDE90C999DF87B200593CDF82890E1
:1056D000CDF83C908FE60B9B53F8042B0692002AE2
:1056E00080F20A84069A0B9352420692039B9AF820
:1056F000005043F0040303937EE52B239AF80050F7
:105700008DF87B3078E5039B9AF8005043F08003D6
:10571000039371E5524612F8015B2A2D01F01982BC
:10572000A5F13003092B92464FF000093FF666AD14
:105730001AF8015B09EB890903EB4909A5F130036C
:10574000092BF5D95AE5039B9AF8005043F0010361
:10575000039351E59DF87B309AF80050002B7FF4BD
:105760004BAD20238DF87B3046E5039B43F01006BC
:1057700016F0200200F089830B9B073323F0070308
:1057800019465A6851F8083B0B91012108E6039B22
:105790009AF8005043F0080303932DE50B9A039BFE
:1057A00043F0020652F8043B0B9247F63002ADF884
:1057B0007C20374A1492022100227825F0E5039BD1
:1057C0009E0640F1FD830B9B079A1B681A60D21757
:1057D0005A600B9B04330B93D3E69AF80050039B5B
:1057E0006C2D00F0538443F01003039304E59AF802
:1057F0000050039B682D00F0408443F04003039366
:10580000FAE4652D40F35381DDE910010022002305
:10581000FBF74AFB002800F04982279B1D4ACBF882
:105820000020013301370122072B28972793CBF85B
:10583000042000F38E850BF1080B209B0E9A9342F7
:1058400004DB039BDB0701D43D467CE6129B139AE5
:10585000DD19CBE90023279B28950133072B2793DC
:1058600000F3FE830BF1080B0E9B5C1E002C7FF7F0
:105870006AAE102C279B084F40F37885DDE9088934
:10588000102611E0FFFFEF7FEC20070870AB060841
:10589000F8200708B4900608142107080BF1080B3C
:1058A000103C102C40F3628501331035072BCBE9F7
:1058B0000076CDE92735F1DD26AA4946404659F064
:1058C00077FF00287FF4C9ADDDE927350DF1A40B82
:1058D000E6E7039E01293FF43FAD022900F07681FF
:1058E00052AC03F00701DB0843EA4273D2083031BF
:1058F00053EA0207204604F8011DF2D1F707049489
:1059000000F1768252AB03961E1B68E5DDE90523A4
:10591000A3EB0208B8F1000F7FF7FCADB8F1100F50
:105920003A46279BC04F29DD19951C961024DDE9C6
:105930000865194606E0A8F11008B8F1100F0BF140
:10594000080B18DD013110320729CBE90074CDE9CD
:105950002712F0DD26AA294630460DF1A40B59F096
:1059600027FF00287FF479ADA8F11008B8F1100FD7
:10597000DDE92712E6DC199D1C9E0B460133CBF8AE
:105980000070072B08EB0207CDE92737CBF804801E
:1059900000F30E85A9EB0608B8F1000F0BF1080B18
:1059A0007FF7BEADB8F1100F3A46279B9E4F2EDD14
:1059B0005946089CC3464FF01009B84637462E4654
:1059C000099D06E0ABF1100BBBF1100F01F10801CE
:1059D00018DD013394481032072BC1E90009CDE9E5
:1059E0002732EFDD26AA2946204659F0E1FE00289D
:1059F0007FF433ADABF1100BBBF1100FDDE92732B3
:105A000029A9E6DC35463E464746D8468B46013353
:105A1000CBF80070072B08EB0207CDE92737CBF84E
:105A2000048000F325820BF1080B79E5279B7F4961
:105A3000CBF8001001337D1C0121072B28952793FB
:105A4000CBF8041000F34A850BF1080B002A40F054
:105A5000E084039B0E9A03F0010313433FF473ADFC
:105A6000129B139A5919CBE90023279B28910133E4
:105A7000072B279300F3EF850BF1080B049ACBF863
:105A800000200E9ACBF8042001335518072BCDE9DE
:105A900027357FF756ADDDE9080126AA59F088FEC3
:105AA00000287FF4DAAC289D0DF1A40B4BE50E9B8A
:105AB000012B0BF1080640F37A81049BCBF80030F0
:105AC000279B013301370122072B28972793CBF817
