:020000040800F2
:100000008029012045AE0108DBC10408FDAD0108CF
:10001000FDAD0108FDAD0108FDAD010800000000C7
:1000200000000000000000000000000071AF0108A7
:10003000FDAD010800000000DDAE0108C594020816
:1000400079B2010879B2010879B2010879B20108E0
:1000500079B2010879B2010879B2010879B20108D0
:1000600079B2010879B2010879B2010879B20108C0
:1000700079B2010879B2010879B2010879B20108B0
:1000800079B2010879B2010879B2010879B20108A0
:1000900079B2010879B2010879B2010879B2010890
:1000A00079B2010879B2010879B2010879B2010880
:1000B00079B2010879B2010879B2010879B2010870
:1000C00079B2010879B2010879B2010879B2010860
:1000D00079B2010879B2010879B2010879B2010850
:1000E00079B2010879B2010879B2010879B2010840
:1000F00079B2010879B2010879B2010879B2010830
:1001000079B2010879B2010879B2010879B201081F
:1001100079B2010879B2010879B2010879B201080F
:1001200079B2010879B2010879B2010879B20108FF
:1001300079B2010879B2010879B2010879B20108EF
:1001400079B2010879B2010879B2010879B20108DF
:1001500079B2010879B2010879B2010879B20108CF
:1001600079B2010879B2010879B2010879B20108BF
:1001700079B2010879B2010879B2010879B20108AF
:1001800079B2010879B2010879B2010879B201089F
:1001900079B2010879B2010879B2010879B201088F
:1001A00079B2010879B2010879B2010879B201087F
:1001B00079B2010879B2010879B2010879B201086F
:1001C00079B2010879B2010879B2010879B201085F
:0801D00079B2010879B20108BF
:1001D800FFFFFFFFFFFFFFFFFFFFFFFFFFFFFFFF27
:1001E800FFFFFFFFFFFFFFFFFFFFFFFFFFFFFFFF17
:0801F800FFFFFFFFFFFFFFFF07
:1002000090F800F06DE9024520F007016FF0000C56
:1002100010F0070491F820F040F049804FF00004FE
:100220006FF00700D1E9002391F840F000F10800D9
:1002300082FA4CF2A4FA8CF283FA4CF3A2FA8CF311
:100240004BBBD1E9022382FA4CF200F10800A4FA78
:100250008CF283FA4CF3A2FA8CF3E3B9D1E90423CC
:1002600082FA4CF200F10800A4FA8CF283FA4CF303
:10027000A2FA8CF37BB9D1E9062301F1200182FABD
:100280004CF200F10800A4FA8CF283FA4CF3A2FAC3
:100290008CF3002BC6D0002A04BF04301A4612BAD1
:1002A000B2FA82F2FDE8024500EBD2007047D1E9D4
:1002B000002304F00305C4F100004FEAC50514F063
:1002C000040F91F840F00CFA05F562EA05021CBF34
:1002D00063EA050362464FF00004A9E7000000004E
:1002E000A2EB0300704700BF02780B78012A28BFF9
:1002F0009A42F5D16DE9044540EA0104CDE902676F
:100300006FF0000C4FEA447212B380EA010414F05B
:10031000070F6AD100F0070420F0070004F003057E
:1003200021F007014FEAC505F0E8042314F0040F9B
:10033000F1E804670CFA05F462EA040266EA0406CE
:100340000AD063EA0403624667EA0407664603E0EC
:10035000F0E80423F1E8046782FA4CF582EA060427
:10036000A4FA8CF46CBB83FA4CF583EA0705A5FA72
:100370008CF595B950E9022351E9026782FA4CF5F0
:1003800082EA0604A4FA8CF483FA4CF583EA0705A2
:10039000A5FA8CF52543DBD09CB92DBAB5FA85F4C6
:1003A00024F0070427FA04F1DDE9026723FA04F3D5
:1003B00003F0FF0001F0FF01FDE80445A0EB0100A0
:1003C000704724BAB4FA84F424F0070426FA04F13E
:1003D000DDE9026722FA04F202F0FF0001F0FF01FA
:1003E000FDE80445A0EB0100704714F0030F3CD179
:1003F00010F0030428D150F8082B51F8083B82FA7A
:100400004CF582EA0305A5FA8CF55DB950F8042C89
:1004100051F8043C82FA4CF582EA0305A5FA8CF502
:10042000002DE8D02DBAB5FA85F424F0070423FA9C
:1004300004F122FA04F202F0FF0001F0FF01FDE8EE
:100440000445A0EB010070474FEAC40420F003000C
:1004500050F8082B21F0030151F8083B0CFA04F482
:1004600062EA040263EA0403C9E710F003041AD045
:10047000A1EB040120F00300E40750F8042B06D0A0
:100480000FD28B785FFAA2F4E41A06D12BB1CB78A5
:100490005FFAB2F4E41A00D11BB920465DF8104BA4
:1004A000704701F1040150F8042BCC0721F003013F
:1004B00051F8043B48D824D222F07F4482FA4CF50C
:1004C00094EA1325A5FA8CF50AD165B951F8043BD5
:1004D00084EA0204B4EB036F0ED150F8042BEBE76F
:1004E0004FEA132355E035F07F454DD10878FDE8FC
:1004F0000445C0F1000070474FEA126203F0FF03A9
:1005000047E002EA1C4482FA4CF594EA1345A5FA46
:100510008CF50AD165B951F8043B84EA0204B4EBC6
:10052000034F0CD150F8042BEBE74FEA134330E0B4
:1005300015EA1C4528D10B884FEA124229E04FEA00
:10054000124203EA1C4324E002F0FF0482FA4CF555
:1005500094EA1365A5FA8CF50AD165B951F8043B04
:1005600084EA0204B4EB032F09D150F8042BEBE723
:100570004FEA13630DE015F0FF0F05D10B684FEA4A
:10058000122223F07F4304E04FF00000FDE8044511
:10059000704712BA1BBA82FA4CF482EA0304A4FA36
:1005A0008CF5B5FA85F402FA04F203FA04F34FEA83
:1005B0001260FDE80445A0EB1360704700000000E6
:1005C00001F0FF01102A2BDB10F0070F08D010F804
:1005D000013B013A8B422DD010F0070F42B3F6D108
:1005E000F0B441EA012141EA014122F007047FF021
:1005F00000070023F0E80256083C85EA010586EA78
:10060000010685FA47F5A3FA87F586FA47F6A5FAB3
:1006100087F68EB9EED1F0BC01F0FF0102F00702BF
:1006200032B110F8013B013A83EA010313B1F8D16A
:100630000020704701387047002D06BF354603384B
:10064000073815F0010F07D1013015F4807F02BF84
:10065000013015F4C03F0130F0BC0138704700BFD5
:1006600081F0004102E000BF83F0004330B54FEA63
:1006700041044FEA430594EA050F08BF90EA020FD0
:100680001FBF54EA000C55EA020C7FEA645C7FEA63
:10069000655C00F0E2804FEA5454D4EB5555B8BF86
:1006A0006D420CDD2C4480EA020281EA030382EAF7
:1006B000000083EA010180EA020281EA0303362D89
:1006C00088BF30BD11F0004F4FEA01314FF4801C5C
:1006D0004CEA113102D0404261EB410113F0004F6E
:1006E0004FEA03334CEA133302D0524263EB430325
:1006F00094EA050F00F0A780A4F10104D5F1200EC3
:100700000DDB02FA0EFC22FA05F2801841F100011D
:1007100003FA0EF2801843FA05F359410EE0A5F1F1
:1007200020050EF1200E012A03FA0EFC28BF4CF022
:10073000020C43FA05F3C01851EBE37101F00045D8
:1007400007D54FF0000EDCF1000C7EEB00006EEBE5
:100750000101B1F5801F1BD3B1F5001F0CD349086F
:100760005FEA30004FEA3C0C04F101044FEA4452C6
:1007700012F5800F80F09A80BCF1004F08BF5FEA4D
:10078000500C50F1000041EB045141EA050130BD2D
:100790005FEA4C0C404141EB0101013C28BFB1F53F
:1007A000801FE9D291F0000F04BF01460020B1FA8A
:1007B00081F308BF2033A3F10B03B3F120020CDA5D
:1007C0000C3208DD02F1140CC2F10C0201FA0CF03B
:1007D00021FA02F10CE002F11402D8BFC2F1200CA0
:1007E00001FA02F120FA0CFCDCBF41EA0C01904056
:1007F000E41AA2BF01EB0451294330BD6FEA04049F
:100800001F3C1CDA0C340EDC04F11404C4F1200289
:1008100020FA04F001FA02F340EA030021FA04F39B
:1008200045EA030130BDC4F10C04C4F1200220FAF2
:1008300002F001FA04F340EA0300294630BD21FA30
:1008400004F0294630BD94F0000F83F4801306BFF6
:1008500081F480110134013D4EE77FEA645C18BFEA
:100860007FEA655C29D094EA050F08BF90EA020F81
:1008700005D054EA000C04BF1946104630BD91EA79
:10088000030F1EBF0021002030BD5FEA545C05D17C
:100890004000494128BF41F0004130BD14F58004BB
:1008A0003CBF01F5801130BD01F0004545F0FE412F
:1008B00041F470014FF0000030BD7FEA645C1ABF64
:1008C000194610467FEA655C1CBF0B46024650EA9B
:1008D000013406BF52EA033591EA030F41F40021C7
:1008E00030BD00BF90F0000F04BF0021704730B54D
:1008F0004FF4806404F132044FF000054FF0000122
:1009000050E700BF90F0000F04BF0021704730B5E2
:100910004FF4806404F1320410F0004548BF4042B7
:100920004FF000013EE700BF42004FEAE2014FEA0C
:1009300031014FEA02701FBF12F07F4393F07F4FE7
:1009400081F06051704732F07F4208BF704793F0EA
:100950007F4F04BF41F40021704730B54FF46074FD
:1009600001F0004521F000411CE700BF50EA010200
:1009700008BF704730B54FF000050AE050EA0102A9
:1009800008BF704730B511F0004502D5404261EB19
:1009900041014FF4806404F132045FEA915C3FF45A
:1009A000D8AE4FF003025FEADC0C18BF03325FEAF7
:1009B000DC0C18BF033202EBDC02C2F1200300FAA8
:1009C00003FC20FA02F001FA03FE40EA0E0021FACD
:1009D00002F11444BDE600BF70B54FF0FF0C4CF4BB
:1009E000E06C1CEA11541DBF1CEA135594EA0C0F6D
:1009F00095EA0C0F00F0DEF82C4481EA030621EAA8
:100A00004C5123EA4C5350EA013518BF52EA0335E2
:100A100041F4801143F4801338D0A0FB02CE4FF094
:100A20000005E1FB02E506F00042E0FB03E54FF0C4
:100A30000006E1FB03569CF0000F18BF4EF0010EBC
:100A4000A4F1FF04B6F5007F64F5407404D25FEAB8
:100A50004E0E6D4146EB060642EAC62141EA55516B
:100A60004FEAC52040EA5E504FEACE2EB4F1FD0CAD
:100A700088BFBCF5E06F1ED8BEF1004F08BF5FEA2B
:100A8000500E50F1000041EB045170BD06F00046DD
:100A900046EA010140EA020081EA0301B4EB5C048A
:100AA000C2BFD4EB0C0541EA045170BD41F4801182
:100AB0004FF0000E013C00F3AB8014F1360FDEBFA7
:100AC000002001F0004170BDC4F10004203C35DA83
:100AD0000C341BDC04F11404C4F1200500FA05F306
:100AE00020FA04F001FA05F240EA020001F00042A7
:100AF00021F0004110EBD37021FA04F642EB06011D
:100B00005EEA430E08BF20EAD37070BDC4F10C0446
:100B1000C4F1200500FA04F320FA05F001FA04F20A
:100B200040EA020001F0004110EBD37041F10001F6
:100B30005EEA430E08BF20EAD37070BDC4F1200501
:100B400000FA05F24EEA020E20FA04F301FA05F269
:100B500043EA020321FA04F001F0004121FA04F211
:100B600020EA020000EBD3705EEA430E08BF20EAE1
:100B7000D37070BD94F0000F0FD101F0004640001B
:100B800041EB010111F4801F08BF013CF7D041EA9D
:100B9000060195F0000F18BF704703F000465200A1
:100BA00043EB030313F4801F08BF013DF7D043EA72
:100BB0000603704794EA0C0F0CEA135518BF95EA28
:100BC0000C0F0CD050EA410618BF52EA4306D1D1AF
:100BD00081EA030101F000414FF0000070BD50EACE
:100BE000410606BF1046194652EA430619D094EA58
:100BF0000C0F02D150EA013613D195EA0C0F05D142
:100C000052EA03361CBF104619460AD181EA030195
:100C100001F0004141F0FE4141F470014FF000004D
:100C200070BD41F0FE4141F4780170BD70B54FF0E8
:100C3000FF0C4CF4E06C1CEA11541DBF1CEA135568
:100C400094EA0C0F95EA0C0F00F0A7F8A4EB05044A
:100C500081EA030E52EA03354FEA013100F0888041
:100C60004FEA03334FF0805545EA131343EA12630A
:100C70004FEA022245EA111545EA10654FEA0026BF
:100C80000EF000419D4208BF964244F1FD0404F578
:100C9000407402D25B084FEA3202B61A65EB0305D4
:100CA0005B084FEA32024FF480104FF4002CB6EB91
:100CB000020E75EB030E22BFB61A754640EA0C0011
:100CC0005B084FEA3202B6EB020E75EB030E22BF51
:100CD000B61A754640EA5C005B084FEA3202B6EB92
:100CE000020E75EB030E22BFB61A754640EA9C0051
:100CF0005B084FEA3202B6EB020E75EB030E22BF21
:100D0000B61A754640EADC0055EA060E18D04FEADE
:100D1000051545EA16754FEA06164FEAC30343EA7E
:100D200052734FEAC2025FEA1C1CC0D111F4801F4B
:100D30000BD141EA00014FF000004FF0004CB6E744
:100D400011F4801F04BF01430020B4F1FD0C88BFE3
:100D5000BCF5E06F3FF6AFAEB5EB030C04BFB6EBEE
:100D6000020C5FEA500C50F1000041EB045170BDE1
:100D70000EF0004E4EEA113114EB5C04C2BFD4EB0E
:100D80000C0541EA045170BD41F480114FF0000E92
:100D9000013C90E645EA060E8DE60CEA135594EA0E
:100DA0000C0F08BF95EA0C0F3FF43BAF94EA0C0F11
:100DB0000AD150EA01347FF434AF95EA0C0F7FF486
:100DC00025AF104619462CE795EA0C0F06D152EADA
:100DD00003353FF4FDAE1046194622E750EA4106BE
:100DE00018BF52EA43067FF4C5AE50EA41047FF4CF
:100DF0000DAF52EA43057FF4EBAE12E74FF0FF3C34
:100E000006E000BF4FF0010C02E000BF4FF0010C04
:100E10004DF804CD4FEA410C7FEA6C5C4FEA430C7D
:100E200018BF7FEA6C5C1BD001B050EA410C0CBFCC
:100E300052EA430C91EA030F02BF90EA020F00202E
:100E4000704710F1000F91EA030F58BF994208BF95
:100E500090422CBFD8176FEAE37040F00100704752
:100E60004FEA410C7FEA6C5C02D150EA013C07D1A9
:100E70004FEA430C7FEA6C5CD6D152EA033CD3D0F4
:100E80005DF8040B704700BF8446104662468C46EE
:100E90001946634600E000BF01B5FFF7B7FF002821
:100EA00048BF10F1000F01BD4DF808EDFFF7F4FF4A
:100EB0000CBF012000205DF808FB00BF4DF808EDD5
:100EC000FFF7EAFF34BF012000205DF808FB00BFF8
:100ED0004DF808EDFFF7E0FF94BF012000205DF81A
:100EE00008FB00BF4DF808EDFFF7CEFF94BF0120CF
:100EF00000205DF808FB00BF4DF808EDFFF7C4FFC8
:100F000034BF012000205DF808FB00BF4FEA41021A
:100F100012F5001215D211D56FF47873B3EB62524B
:100F200012D94FEAC12343F0004343EA505311F072
:100F3000004F23FA02F018BF404270474FF0000004
:100F4000704750EA013005D111F0004008BF6FF042
:100F5000004070474FF00000704700BF4A0011D2B8
:100F600012F5001211D20DD56FF47873B3EB625203
:100F70000ED44FEAC12343F0004343EA505323FA0F
:100F800002F070474FF00000704750EA013002D184
:100F90004FF0FF3070474FF0000070474FEA4102BA
:100FA000B2F1E04324BFB3F5001CDCF1FE5C0DD9C7
:100FB00001F0004C4FEAC0024CEA5070B2F1004F11
:100FC00040EB830008BF20F00100704711F0804F14
:100FD00021D113F13872BCBF01F00040704741F4D9
:100FE00080114FEA5252C2F11802C2F1200C10FADD
:100FF0000CF320FA02F018BF40F001004FEAC123C1
:101000004FEAD32303FA0CFC40EA0C0023FA02F364
:101010004FEA4303CCE77FEA625307D150EA01333A
:101020001EBF4FF0FE4040F44000704701F000400A
:1010300040F0FE4040F40000704700BF7BB972B939
:101040000029BEBF00204FF0004106E008BF002885
:101050001CBF6FF000414FF0FF3000F057B8ADF10A
:10106000080C6DE904CE002909DB002B1ADB00F027
:1010700012F9DDF804E0DDE9022304B070474042D4
:1010800061EB4101002B1BDB00F005F9DDF804E00A
:10109000DDE9022304B0404261EB4101524263EBBF
:1010A00043037047524263EB430300F0F4F8DDF86A
:1010B00004E0DDE9022304B0404261EB41017047E6
:1010C000524263EB430300F0E6F8DDF804E0DDE9AB
:1010D000022304B0524263EB4303704753B94AB949
:1010E000002908BF00281CBF4FF0FF314FF0FF3030
:1010F00000F00CB8ADF1080C6DE904CE00F0CBF8AF
:10110000DDF804E0DDE9022304B07047704700BF5A
:10111000844641EA000313F003036DD1403A41D302
:1011200051F8043B40F8043B51F8043B40F8043BC1
:1011300051F8043B40F8043B51F8043B40F8043BB1
:1011400051F8043B40F8043B51F8043B40F8043BA1
:1011500051F8043B40F8043B51F8043B40F8043B91
:1011600051F8043B40F8043B51F8043B40F8043B81
:1011700051F8043B40F8043B51F8043B40F8043B71
:1011800051F8043B40F8043B51F8043B40F8043B61
:1011900051F8043B40F8043B51F8043B40F8043B51
:1011A000403ABDD2303211D351F8043B40F8043BF1
:1011B00051F8043B40F8043B51F8043B40F8043B31
:1011C00051F8043B40F8043B103AEDD20C3205D301
:1011D00051F8043B40F8043B043AF9D2043208D0F9
:1011E000D2071CBF11F8013B00F8013B01D30B886B
:1011F00003806046704700BF082A13D38B078DD049
:1012000010F003038AD0C3F10403D21ADB071CBF1A
:1012100011F8013B00F8013B80D331F8023B20F884
:10122000023B7BE7043AD9D3013A11F8013B00F8BD
:10123000013BF9D20B7803704B7843708B78837045
:10124000604670474FEA410C7FEA6C5C02D150EA7D
:10125000013C0AD14FEA430C7FEA6C5C02D152EAAE
:10126000033C02D14FF0000070474FF0010070477F
:10127000430803F05533C01A00F03333800800F000
:101280003330184400EB10104FF0013300F00F30F2
:101290005843000E70472DE9F04786468C460846B5
:1012A000089E154674461946002B40F0C2808542C0
:1012B000B2FA82F245D94AB1C2F1200300FA02FC27
:1012C0002EFA03F3954043EA0C0C94404FEA154E76
:1012D000A8B2BCFBFEF8230C0EFB18CC08FB00F9EF
:1012E00043EA0C43994528D9EB1808F1FF3704D29B
:1012F000994502D9A8F102072B44A3EB0903A4B234
:10130000B3FBFEFC0EFB1C330CFB00F044EA034471
:10131000A04214D92C190CF1FF3304D2A04202D9F7
:10132000ACF102032C44241A43EA07401EB1D44016
:10133000002334607360BDE8F0874746DDE763460D
:10134000F1E792BB431B01214FEA154EAFB2B3FB4D
:10135000FEFC200C0EFB1C330CFB07F840EA034399
:10136000984562D9EB180CF1FF3004D2984502D9A8
:10137000ACF102002B44A3EB0803A4B2B3FBFEFCC8
:101380000EFB1C330CFB07F744EA0344A7424ED97B
:101390002C190CF1FF3304D2A74202D9ACF102039D
:1013A0002C44E41B43EA0040C0E7C2F1200320FACA
:1013B00003F1954090402EFA03F303434FEA154E94
:1013C000AFB2B1FBFEFC0EFB1C10190C0CFB07F8B6
:1013D00041EA0041884504FA02F422D969180CF167
:1013E000FF3004D2884502D9ACF102002944A1EBB8
:1013F00008019BB2B1FBFEFC0EFB1C110CFB07F7B6
:1014000043EA01439F420ED9EB180CF1FF3104D29D
:101410009F4202D9ACF102012B44DB1B41EA00419F
:1014200092E76046E3E76146F7E76046A3E7634675
:10143000B7E7834206D916B9002108467BE7C6E91B
:1014400000E0F9E7B3FA83F78FB9834201D372451D
:1014500008D8BEEB020460EB030301209C461EB9D2
:10146000002168E73846FAE7C6E9004CF8E7C7F11B
:10147000200CBB4022FA0CF41C432EFA0CF120FA8B
:101480000CF3B84001434FEA14490EFA07F5B3FBD9
:10149000F9F81FFA84FE09FB18300B0C08FB0EFA52
:1014A00043EA00439A4502FA07F240D9E31808F1EB
:1014B000FF3004D29A4502D9A8F102002344A3EBDD
:1014C0000A0389B2B3FBF9F809FB183308FB0EFED7
:1014D00041EA03418E452CD9611808F1FF3304D24B
:1014E0008E4502D9A8F10203214443EA0040A0FB43
:1014F0000298A1EB0E014145CE46434602D306D1E8
:101500004D4504D2B9EB020E68EB04030138002EFE
:10151000A6D0B5EB0E0261EB030101FA0CFC22FA36
:1015200007F34CEA0303F940C6E9003198E7404667
:10153000C5E74346D9E70000F8B50C461546401A02
:10154000FFF7E0F920A3D3E90023FFF745FA0646A9
:101550000F46281BFFF7D6F902460B4630463946A0
:10156000FFF764FB9FED121B41EC100B00F084FDB4
:1015700051EC100B0022124BFFF778F89FED0E1B79
:1015800041EC100B00F078FD53EC102B00200D49BE
:10159000FFF74CFB02460B4600200A49FFF764F8B0
:1015A000FFF7DCFCC0B2642828BF6420F8BD00BF90
:1015B0000000000000001240000000000000084091
:1015C0000000F03F0040594048E17A14AE47F53F33
:1015D0002DE9F04385B000AF04460D460822B91846
:1015E0008B480AF0E1FE002852D06E4600233B7182
:1015F00002237B7188B0EC461CF1100214D00E203F
:1016000022B1042802DD834BCCF8143000233B7058
:1016100002237B70AAB1082802DD7D4BCCF818307C
:101620000CF11C0300210AE06FF00040E8E701F133
:10163000100EBE441EF810EC03F801EB0131012935
:10164000F5D90D2842DD0E234AB10321397100215D
:101650007971B9710121F9717868CCF81000002115
:101660006FF300016FF341016FF382016FF3C50166
:10167000012060F38811C3F30A0363F353216FF36E
:101680001F510023644815F06BFCB54600232370FE
:101690003B7A23700BF0C8FB20281AD803B2002B2A
:1016A00042D001381F283FD8DFE800F0A7A43EA1B0
:1016B0003E3E3E9E3E3E3E3E3E3E3E9B3E3E3E3E8D
:1016C0003E3E3E3E3E3E3E3E3E3E3E986FF01B035B
:1016D000BAE7802802D0B0F5807F23D10822B9185C
:1016E0004E480AF061FE002855D06E4600233B713B
:1016F00002237B7188B06C4614F1100218D00E20C2
:101700001AB1042801DD434B636100233B700223BF
:101710007B70D2B1082801DD404BA36104F11C03AA
:10172000002110E04028D9D01437BD46BDE8F08331
:101730006FF00040E4E701F1100CBC441CF810CC41
:1017400003F801CB01310129F5D90D2843DD0E2322
:1017500042B10321397100217971B9710121F97107
:101760007868206100216FF300016FF341016FF38E
:1017700082016FF3C501012060F38811C3F30A03EE
:1017800063F353216FF31F510023234815F0E8FB47
:10179000B546234B2B60B868FFF7B4F880468946FE
:1017A000F868FFF7AFF816A3D3E90023FFF73EFA76
:1017B00002460B4640464946FEF758FFFFF7EEFB50
:1017C000FFF7B2F810A3D3E90023FFF705F9FFF7FD
:1017D000E5FB2860A8E76FF01B03B9E7104B2B600F
:1017E000A2E70F4B2B609FE70D4B2B609CE70C4B48
:1017F0002B6099E70A4B2B6096E7094B2B6093E728
:101800000000000080842E41C74B37894184584036
:10181000341E06083C1E0608A4160608641E0608A8
:101820000000484300000000B0B590B000AF0229AE
:1018300019D0092949D06C4688B06B4613F11002C3
:1018400000F082800C2042B18446042801DD564D10
:101850005D61BCF1080F7ADD99610B2840F39C8033
:101860004FF00C0C75E0514BFB6302233B720023DD
:101870007B72BB72FB72BA68BA63194663F30001EC
:1018800063F3410163F3820163F3C501032262F351
:101890008811082262F3532163F31F5107F13802C4
:1018A000434815F05DFB07F1080006F01BF93B7A91
:1018B000012B6ED1002006F08BFD07F1080006F029
:1018C00011F93B7A012BF8D063E00023BB60FB6089
:1018D0003B617B61BB61FB613B627B6207F108009E
:1018E0000AF048FD334907F10800FEF7FDFC30B16E
:1018F000314907F10800FEF7F7FC002849D1391DEE
:10190000F81CFFF765FE7868FFF70EF824A3D3E90B
:101910000023FFF78BF9FFF741FB00EE100A07F0F9
:1019200075FD264C4FF0FF324FF0FF3320463EF05E
:1019300087FA234B01221A7020463EF059FA214BB8
:1019400018683EF06DFD24E06FF000407BE76FF01B
:101950001B0C3AB10321397200217972B972F97204
:10196000B868186100216FF300016FF341016FF354
:1019700082016FF3C501032363F38811CCF30A03DB
:1019800063F353216FF31F510023094815F0E8FA60
:10199000A5464037BD46B0BD6FF01B0CD9E700BF70
:1019A000C74B378941845840A0770608E81C0608D1
:1019B000A4160608341E0608641E0608CC7700200C
:1019C000C7B700208077002030B59DB007F066F8DB
:1019D000022801D01DB030BD002414941594169433
:1019E0001794189419941A94ADF86C4021462C4B16
:1019F00058685CF067FC06F01FFE054612901394D1
:101A000028480AF077FD0AF02FFE14AA12A9806C6C
:101A100047F069FA012114A807F0FEF902212248D3
:101A200007F0FAF91E22214614A840F055F875B1C6
:101A3000012D16D0242200210DEB020040F04CF8BD
:101A400009A805F08FFE09A807F004FDC2E7174AB0
:101A500014AB07CA03C31A80032114A807F0DCF9EA
:101A6000E8E702A806F0C4FD0798FEF75DFF0AA3A9
:101A7000D3E90023FEF7B0FFCDE900010C4B1E2295
:101A8000002114A840F004F9032114A807F0C4F9B8
:101A9000D0E700BFAFF30080DB8AFD65F764244028
:101AA00060780020341E060800780020102D0608FB
:101AB0001C2D0608000000002DE9F04383B0054608
:101AC0008846294B1B683BB11C6804B113B1002147
:101AD00089462CE01C46FAE71C46F8E793F82020DC
:101AE000AA4228D16946D86947F03BF88146C0B977
:101AF0000098FEF707FF06460F460198FEF702FF23
:101B000017A3D3E90023FFF791F802460B463046AE
:101B10003946FEF7ABFDFFF741FAC8F80000012196
:101B200009E04FF0FF3910E02246234614465BB12E
:101B30009A880E2AD2D0002CF6D02268002AF4D03F
:101B4000002CF2D12246F0E719B1484603B0BDE8B7
:101B5000F0830023C8F800304FF0FF39F5E700BFED
:101B60000000000080842E41947D002000000000D1
:101B700000B583B0034600F13C02BFF35B8F52E82F
:101B8000001F21F0020142E8001CBCF1000FF6D159
:101B9000BFF35B8FBFF35B8F52E800CF4CF0010CBB
:101BA00042E800C10029F7D1BFF35B8F996B8B0F1F
:101BB0008A00521843F1000392185B419FED047BA9
:101BC0008DED007B3FF0BCF803B05DF804FB00BF77
:101BD000000000000000000010B588B00346046952
:101BE00004F108009FED0C7B8DED067B0122049231
:101BF0000A2203920022029201920093084B4FF4B2
:101C0000806208495EF0F5FB20603EF0BDFC08B044
:101C100010BD00BFAFF30080000000000000000016
:101C200069CA0408001201202DE9F04F85B006466C
:101C30000F461546984683685B6802AA98470028B5
:101C40002FDB029CDDF80C90A5FB04AB05FB09BB68
:101C500019A3D3E9002350465946FFF73FFA05463A
:101C60004FF0FF335345164B73EB0B031CD3A8FB0C
:101C700004A408FB094410A3D3E9002350462146DD
:101C8000FFF72CFA03464FF0FF3252450C4AA241AF
:101C90000DD3BDF8382000922A46394630465DF013
:101CA00055FF05B0BDE8F08F6FF08500F9E76FF0E4
:101CB0008500F6E7AFF3008000CA9A3B0000000001
:101CC000FFC99A3B0000000008B5DFED0B7A60EE1B
:101CD000277A17EE900AFEF727FE05A3D3E9002323
:101CE000FEF7A4FFFFF73AF980B208BDAFF300801A
:101CF0006666666666660A40000080450000000071
:101D00002DE9F04182B000AF066910EE100AFEF72F
:101D10000BFE04460D464EA3D3E90023FFF7CEF891
:101D2000002840F084804CA3D3E9002320462946B4
:101D3000FFF7E2F800287DD145A3D3E90023204630
:101D40002946FEF791FC46A3D3E90023FEF76EFF78
:101D5000FFF724F900EE100AFFF7B6FF04463848F3
:101D60005EF036FAF0B1364DD5F80880D8F800307C
:101D70003449284698474FF0FF324FF0FF33304642
:101D80003EF05EF8D8F804302246012128469847F4
:101D9000044678B930463EF02BF820460837BD4659
:101DA000BDE8F081264B1968274847F070FF4FF0D7
:101DB000FF34F2E76D4688B06B4613F1100230D065
:101DC0000C214AB10846042903DDDFF89CC0C3F8A2
:101DD00014C0082800DD9C610B2925DD4FF00C0C98
:101DE0003AB10321397100217971B971F9717868BB
:101DF000186100216FF300016FF341016FF382015D
:101E00006FF3C501012363F38811CCF30A0363F375
:101E100053216FF31F5100230C4815F0A1F8AD4674
:101E2000B8E76FF00041CCE76FF01B0CD8E76FF01C
:101E30001504B2E76FF01504AFE700BFAFF3008001
:101E40006C100608140B07085C0A070874180608CB
:101E5000EC51B81E856B2040A4703D0AD763344016
:101E6000BA490C022B870D40780A070800000000D1
:101E70002DE9F04F85B006460F4615469846836813
:101E80005B6802AA984700282FDB029CDDF80C90C3
:101E9000A5FB04AB05FB09BB19A3D3E900235046FE
:101EA0005946FFF71BF905464FF0FF335345164BD4
:101EB00073EB0B031CD3A8FB04A408FB094410A379
:101EC000D3E9002350462146FFF708F903464FF0B7
:101ED000FF3252450C4AA2410DD3BDF83820009282
:101EE0002A46394630465DF001FF05B0BDE8F08F67
:101EF0006FF08500F9E76FF08500F6E7AFF300803B
:101F000000CA9A3B00000000FFC99A3B0000000095
:101F10002DE9F04F85B006460F4615469846836872
:101F20005B6802AA984700282FDB029CDDF80C9022
:101F3000A5FB04AB05FB09BB19A3D3E9002350465D
:101F40005946FFF7CBF805464FF0FF335345164B84
:101F500073EB0B031CD3A8FB04A408FB094410A3D8
:101F6000D3E9002350462146FFF7B8F803464FF067
:101F7000FF3252450C4AA2410DD3BDF838200092E1
:101F80002A46394630465EF09FF805B0BDE8F08F2E
:101F90006FF08500F9E76FF08500F6E7AFF300809A
:101FA00000CA9A3B00000000FFC99A3B00000000F5
:101FB00030B589B004460C9D0020C4F8E000C4F898
:101FC000E40004F1E800C4F8E800C4F8EC0004F10F
:101FD000F000C4F8F000C4F8F400EDB12879E8B9D5
:101FE0000120C4F8F8009FED107B8DED067B0020EA
:101FF000049003930290019000940D4B20465EF0F4
:10200000F8F925B1296811B120463DF053FD20466D
:102010005EF0DFF909B030BD0120E2E740F20110C7
:10202000DFE700BFAFF30080FFFFFFFFFFFFFFFF11
:10203000ADFF03080000000010B582B00446002385
:1020400004320ED27BB99FED0A7B8DED007B41F00F
:10205000040120465EF0E5F808B140F8044B02B0F8
:1020600010BD0123EEE70020F9E700BFAFF30080C9
:102070000000000000000000F8B52DED028B57ECC9
:10208000106B55EC114B00F0C3F85F4BB0EE408A7B
:10209000F0EE608A93F9003001332AD022462B46B5
:1020A00020462946FFF7CEF818BB32463B4630465D
:1020B0003946FFF7C7F800220023002842D13046F6
:1020C0003946FEF7F1FED8B100220023204629460A
:1020D000FEF7EAFE00283BD145EC104B3EF06AFFCC
:1020E00038B10022002320462946FEF7E7FE0028EB
:1020F00059D1B0EE480AF0EE680ABDEC028BF8BD8B
:10210000B0EE480AF0EE680A3EF054FF48B351ECD6
:10211000180B00220023FEF7C7FE0028E9D047EC89
:10212000106B3EF047FF0028E3D045EC104B3EF02B
:1021300041FF0028DDD04AF020F922239FED2A8BB1
:102140000360D6E720462946FEF7AEFE0028D0D031
:102150009FED278BB0EE480AF0EE680ABDEC028BCB
:10216000F8BD47EC106B3EF025FF0028CFD045ECC2
:10217000104B3EF01FFF0028C9D053EC182B10461F
:102180001946FFF75FF810BB4AF0F7F80346222222
:102190001A603046394600220023FEF78FFE48B908
:1021A0009FED158BA5E74AF0E8F8212303609FED2A
:1021B000148B9EE745EC104B3EF008FF224651EC95
:1021C000100B2B46FEF770FE0028E9D1EFE74AF02E
:1021D000D4F8002200232121016010461946FEF7A1
:1021E00025FD41EC180B84E7000000000000000012
:1021F000000000000000F03F000000000000F07F41
:10220000000000000000F0FF821A00200000000023
:102210002DE9F04F55EC114B25F0004A5AEA040322
:1022200093B000F0488359EC108BD94829F0004650
:1022300086424F464346324600F23783AB4621463C
:1022400000F03E83824500F2308300F0E283002FED
:10225000C0F28C83002900F04B830021009149ECEF
:10226000108B049302923EF09DFE049B029A002B79
:1022700000F0A183FB0F013B0A93C64B9A4500F285
:10228000FE83C34B3B40002B40F0658451EC100BA8
:102290000022C14BFEF7A0FB41EC100B10EE902A80
:1022A0006FF034011315A3F2FF335918BB4B0B9198
:1022B000C2F3130242F07F569A4246F4401640F3AE
:1022C0003B84B74B9A4240F323859FED9B7B8DED7A
:1022D000087B9FED9B7B8DED067B9FED977B8DEDC6
:1022E000107B01310B91A6F58016002753EC102BC3
:1022F00092465046DDE906233146FEF7B5F9B3466E
:10230000DDE906238046894650463146CDE90CABCF
:10231000FEF7ACF902460B460020A249FEF786FC08
:102320008C46834663465A4640464946CDE90EBC34
:10233000FEF752FB0A460146CDE90212CDE904122E
:10234000002102917610DDE902AB46F0005606F559
:1023500000230020D91906460F4602460B46504678
:102360005946FEF739FB02460B4640464946FEF702
:102370007BF9DDE906238046894630463946FEF77B
:1023800073F902460B46DDE90C01FEF76DF9524682
:102390005B46FEF721FB02460B4640464946FEF7E8
:1023A00063F9DDE90E23FEF717FBDDE90467CDE9EC
:1023B000060132463B4630463946FEF70DFB62A326
:1023C000D3E9002306460F46FEF706FB60A3D3E9D8
:1023D0000023FEF74BF932463B46FEF7FDFA5EA3BB
:1023E000D3E90023FEF742F932463B46FEF7F4FA02
:1023F0005BA3D3E90023FEF739F932463B46FEF7EB
:10240000EBFA59A3D3E90023FEF730F932463B46F5
:10241000FEF7E2FA56A3D3E90023FEF727F9324686
:10242000804689463B4630463946FEF7D5FA024695
:102430000B4640464946FEF7CFFA524606460F463F
:102440005B46DDE90401FEF711F9DDE90623FEF73D
:10245000C3FA32463B46FEF709F9524680468946A2
:102460005B4650465946FEF7B7FA02460B46CDE9A1
:102470000C234D4B0022FEF7F9F842464B46FEF77F
:10248000F5F800260F4632463B4650465946FEF7C1
:10249000A3FA454B82468B46002230463946FEF76A
:1024A000E3F8DDE90C23FEF7DFF802460B46404671
:1024B0004946FEF7D9F8DDE90423FEF78DFA3246E6
:1024C0003B4606460F46DDE90601FEF785FA024661
:1024D0000B4630463946FEF7C9F8804689464246E3
:1024E0004B4650465946FEF7C1F8002622A3D3E9D1
:1024F000002330460F46FEF76FFA5246CDE904013D
:102500005B4630463946FEF7AFF802460B4640467A
:102510004946FEF7A9F81AA3D3E90023FEF75CFAAF
:1025200002460B463046394616461F4616A3D3E9E7
:1025300000233BE0AFF3008000000000000000003B
:10254000000000000000F03FEF4E454A287ECA3FE1
:1025500065DBC9934A86CD3F01411DA96074D13F17
:102560004D268F515555D53FFFAB6FDBB66DDB3F29
:10257000033333333333E33F000000E009C7EE3F5A
:10258000FD033ADC09C7EE3FF5015B14E02F3EBEC8
:102590000000F07F0000E041000040438E980300FF
:1025A00079B60B000000F03F00000840FEF714FA77
:1025B00002460B4630463946FEF758F8DDE910234F
:1025C000FEF754F880460B988946FEF79BF9424681
:1025D00082468B464B46DDE90401FEF747F8DDE90C
:1025E0000823FEF743F852465B46FEF73FF8002605
:1025F00052465B4630460F46FEF736F8DDE90823C3
:10260000FEF732F8DDE90423FEF72EF802460B460A
:1026100040464946FEF728F8009B0A9A013B1343BF
:1026200082468B4600F083829FEDB77B8DED047B65
:102630000023CDE900450093DDE9008920464246AC
:1026400029464B46FEF710F832463B46FEF7C4F9E2
:1026500022462B4604460D4650465946FEF7BCF925
:1026600002460B4620462946FEF700F8424604463D
:102670000D464B4630463946CDE90245FEF7ACF9EA
:1026800006460F46204629463B463246FDF7EEFFFA
:10269000B14B994204460D46884640F3178201F13A
:1026A0003F4303F5E003034340F0F28298A3D3E9EC
:1026B0000023DDE90201FDF7D9FF02460B46204663
:1026C000294614461D4632463B46FDF7CDFF0246DD
:1026D0000B4620462946FEF70FFC002840F0D88222
:1026E0004FF400714144C1F30A539C48A3F2FF33F5
:1026F000C1F3130A18414AF4801AC3F114034AFAC9
:1027000003FAB8F1000F00EA01034FF0000230466F
:102710003946B8BFCAF1000AFDF7A6FF02460B46CC
:1027200006460F46DDE90201FDF7A0FF4FEA0A5B0E
:102730000D46002478A3D3E9002320462946FEF75E
:102740004BF93246804689463B4620462946FDF7EE
:102750008BFF02460B46DDE90201FDF785FF70A302
:10276000D3E90023FEF738F902460B4620462946F6
:1027700014461D466CA3D3E90023FEF72DF902464B
:102780000B4620462946FDF771FF06460F463246A6
:102790003B4640464946FDF769FF42464B460446E4
:1027A0000D46FDF761FF02460B4630463946FDF700
:1027B0005BFF2246804689462B4620462946FEF787
:1027C0000BF95BA3D3E9002306460F46FEF704F995
:1027D00059A3D3E90023FDF747FF32463B46FEF7F6
:1027E000FBF857A3D3E90023FDF740FF32463B46F1
:1027F000FEF7F2F854A3D3E90023FDF735FF324684
:102800003B46FEF7E9F852A3D3E90023FDF72EFF7C
:1028100032463B46FEF7E0F802460B462046294684
:10282000FDF722FF06460F4632463B462046294624
:10283000FEF7D2F802460B463046394616461F468A
:1028400000224FF08043FDF70FFF02460B46304653
:102850003946FEF7EBF9424606460F464B46204600
:102860002946FEF7B9F842464B46FDF7FFFE024601
:102870000B4630463946FDF7F7FE22462B46FDF75C
:10288000F3FE0B46024636490020FDF7EDFE0B46EF
:102890005B44B3F5801FC0F24B821946DDE9042387
:1028A000FEF79AF841EC100B07E006F1404606F5FA
:1028B00080161E4307D19FED140B13B0BDE8F08FB7
:1028C0000BB9B24505D9274813B0BDE8F04F00F069
:1028D00067BA7FF4BCAC002CF5D1234B9E4240F28A
:1028E0009881BBF1000FC0F2E08045EC104BE4E7AB
:1028F0001B48824540F0DC80BBF1000FC0F2EF8145
:1029000049EC108BD9E700BF000000000000F03F49
:10291000FE822B654715973C00000000432EE63FE2
:10292000EF39FAFE422EE63F396CA80C615C20BEFE
:10293000D0A4BE726937663EF16BD2C541BDBB3EC5
:102940002CDE25AF6A56113F93BDBE166CC1663FA3
:102950003E5555555555C53FFFFF8F400000F0FFD0
:102960000000F03F90910608FFFFEF3FC04882450E
:1029700073D8C04882450ED94FEA2A50A0F2FF30E2
:10298000142840F39481C0F1340021FA00FC0CFAC1
:1029900000F0884229D0002940F0BD80BBF1804F73
:1029A0002ED0009149EC108B049302923EF0FAFA7B
:1029B000049B029A2BB9B04B27F04041994233D087
:1029C00096B30099FB0F013B0A930B437FF455AC80
:1029D00042464B4610461946FDF746FE02460B4658
:1029E000FEF724F941EC100B67E70CF0010CCCF179
:1029F0000200009000297FF432ACBBF1804FD1D1AE
:102A000042464B4640464946FDF7E6FF41EC100B77
:102A100053E7002C7FF449AF06F1404202F58012E3
:102A20001A433FF448AF58E7BBF1000F07DA53EC05
:102A3000102B91490020FEF7F9F841EC100B002F04
:102A4000BFF63BAF009B06F1404606F580161E43DD
:102A500040F0518153EC102BBCE7002900F070814D
:102A600049EC108B029300923EF09CFA029B009A74
:102A7000002B00F03D810223009300230A937F4B3B
:102A80009A457C4B6AD99E420CD9BBF1000F0CDDF4
:102A900065A3D3E9002310461946FDF79DFF41ECDD
:102AA000100B0AE7BBF1000FF2DB9FED610B04E7AF
:102AB000BBF1804FA4D0724883457FF472AF49ECDC
:102AC000108B13B0BDE8F04F3EF0A0B9DFF8BCC1E9
:102AD00021F00043634540F2FA806A4B0B44034304
:102AE0000AD132463B46FDF7BFFDDDE90223FEF782
:102AF000F9F900283FF4F4AD4FA3D3E90023DDE951
:102B00000401FDF769FF4CA3D3E90023FDF764FF3F
:102B100041EC100BD1E649EC108B009302923EF091
:102B200041FA009B002B7FF453AF029A43E79FEDDD
:102B3000447B8DED047B7BE59FED3D7B8DED087B3C
:102B40009FED417B8DED067B9DED087B00278DED94
:102B5000107BFFF7CBBB0021FFF7A4BB9E42A1D3A4
:102B6000454B9E4291D851EC100B434B0022FDF790
:102B70007BFD37A3D3E9002306460F46FDF72CFF64
:102B800035A3D3E9002382468B4630463946FDF70C
:102B900023FF3D4BCDE90201002230463946FDF7C7
:102BA0001BFF02460B462EA1D1E90001FDF75CFD9B
:102BB00032463B46FDF710FF02460B4600203049E7
:102BC000FDF752FD3246804689463B46304639463F
:102BD000FDF702FF02460B4640464946FDF7FCFE64
:102BE00021A3D3E90023FDF7F7FE02460B46DDE9FA
:102BF0000201FDF739FD8046894642464B46504664
:102C00005946FDF733FD002652465B460F463046D7
:102C1000FAE4BBF1000FBFF648AF05F1004300EE48
:102C2000104A00EE903A48E69C7500883CE4377EF6
:102C3000000000000000000059F3F8C21F6EA5015B
:102C4000000000000000F0BF000000000000F03FA6
:102C5000000000604715F73F44DF5DF80BAE543EBF
:102C6000555555555555D53FFE822B654715F73FB0
:102C7000FFFF3F43FFFFEF3F0000F03F0000F04346
:102C80000000E03F00346F3F0000D03FFFCB90409A
:102C900041A3D3E90023DDE90401FDF79DFE3EA336
:102CA000D3E90023FDF798FE41EC100B05E600295F
:102CB0007FF431AFC0F114004AFA00FC0CFA00F0C6
:102CC000504544D0324882453FF416AE66E6314A5C
:102CD00093424AD8DDE900239346924629E52C49E0
:102CE000002042464B46FDF7A1FF41EC100BE4E506
:102CF000022300935FE6009B012B7FF4DEAD10EE14
:102D0000901A10EE102A01F1004343EC102BD4E589
:102D10009FED197B8DED087B9FED197B8DED107B71
:102D20009FED197B4FF480278DED067BFFF7DEBA10
:102D300041EC100B504600F03BF851EC100BADE5A8
:102D4000BBF1804F3FF45CAE022100912AE61049AE
:102D50008A453FF4D1ADBBF1804F3FF451AE0CF04A
:102D6000010CCCF1020100911CE61B15A3F2FE330D
:102D70004FF480111941B5E40000004003B8E23F70
:102D800006D0CF43EBFD4C3E000000000000F83FB2
:102D90000000F03F0000E03F9C7500883CE4377E77
:102DA0009FED010B704700BF000000000000F87F9E
:102DB00038B553EC102BC3F30A540546194674BBBF
:102DC00023F000411143104628D019460022364B0B
:102DD000364CFDF701FEA54202460B463EDBC1F331
:102DE0000A54363C05EB040C40F2FE70844520DCAE
:102DF000BCF1000F3ADC1CF1350F2ADB21F0FF415A
:102E00000CF1360C21F4E00141EA0C53104619464E
:102E10000022274BFDF7E0FD41EC100B38BD40F2DE
:102E2000FF708442DED11046FDF720FC41EC100B10
:102E300038BD002B14A1D1E9000102DA14A1D1E9B7
:102E4000000111A3D3E90023FDF7C6FD41EC100BEF
:102E500038BD002B10A1D1E9000110DB0EA3D3E98E
:102E60000023FDF7B9FD41EC100B38BD21F0FF4107
:102E700021F4E00141EA0C5343EC102B38BD08A1CA
:102E8000D1E90001EAE700BF9C7500883CE4377E89
:102E90009C7500883CE437FE59F3F8C21F6EA5010B
:102EA00059F3F8C21F6EA58100005043B03CFFFFEC
:102EB0000000903C000000002DE9F04F2DED028B4A
:102EC000D3B00C46CDE9080192460B9342F0B0F91D
:102ED000036813931846FDF793F9A38912901D0612
:102EE00003D52369002B00F08A870023CDF810A0BA
:102EF000CDE92733CDE91533CDE917330E9314937C
:102F00000793049B9FEDA27B1B7829AA8DED107B74
:102F100026929346002B00F0EB81DDF810A004E030
:102F20001AF8013F002B00F01C81252BF8D1049BDF
:102F3000BAEB030540F01A819AF80030002B00F03C
:102F4000D78100239AF801508DF87B3006930AF15F
:102F5000010A4FF0FF3903930AF1010AA5F120039A
:102F60005A2B00F23B81DFE813F0A5023901390149
:102F70009E023901390139016A00390139016602BD
:102F8000780239017102850239017E025B005B0023
:102F90005B005B005B005B005B005B005B0039017A
:102FA000390139013901390139013901CF013901BB
:102FB00034028700CF01CF01CF0139013901390136
:102FC0003901C20239013901B5003901390139012C
:102FD0003E023901B00239013901010739013901D5
:102FE000390139013901390139013901CF0139017B
:102FF00034028B00CF01CF01CF01F2028B008000A1
:103000003901E8023901DA02B900C9028000390148
:103010003E027D00250739013901280739017D006D
:10302000A5F1300300221AF8015B02EB820203EBE8
:103030004202A5F13003092BF5D906928EE7089DCF
:10304000284642F0F5F8436817931846FDF7D8F87C
:1030500018900446284642F0EBF883681593002C3C
:1030600040F070869AF8005076E7039B9AF800507B
:1030700043F0200303936FE7039B43F01003039394
:10308000039B9C0640F194810B9B073323F00703BD
:103090001A46596852F8083B0B920A460029C0F2BA
:1030A000BB85B9F1FF3F00F0F587039921F0800659
:1030B00053EA020100F05A850A2B72F1000180F0F8
:1030C0007C8730338DF847310DF247130396049314
:1030D000012634E0039B43F010030393039B13F09A
:1030E000200200F054810B9B073323F0070319469D
:1030F0005A6851F8083B0B91039921F4806600212E
:103100000020B9F1FF3F8DF87B0000F0938226F09C
:103110008000039053EA020040F08B82B9F1000F67
:1031200040F0C187002940F0268516F001061BBF3C
:1031300030238DF8473152AB0DF24713049300232F
:10314000B145CDE90C3349469DF87B200A93B8BFC1
:10315000314605910F93002A52D0059B0133059308
:103160004EE0049BBAEB030500F0C280049B289F4D
:10317000CBE90035279B01332F44072B2897279352
:103180000ADC0BF1080B079B2B440793D4E600BF26
:103190000000000000000000DDE9080126AA42F05E
:1031A000F7FE80B90DF1A40BEDE7DDE9080126AAD1
:1031B00042F0EEFE002800F08A800A9B1BB10A99BB
:1031C000089841F043FD099B9B89590601F1E5826E
:1031D000079853B0BDEC028BBDE8F08F002D00F0D6
:1031E000878000228DF8E4508DF87B200123CDE903
:1031F0000C2205931E4639AB0A9291460F92049316
:10320000039B13F0020302D0059902310591039943
:1032100011F0840405D1DDE905010F1A002F00F338
:103220004183289F8AB1279A0DF17B010132013732
:10323000CBF80010072A4FF0010128972792CBF80E
:10324000041000F387830BF1080B83B1279B1FAA9F
:1032500001330237CBF80020072B4FF002022897EA
:103260002793CBF8042000F383830BF1080B802C09
:1032700000F0FC81A9EB0608B8F1000F00F34282D0
:10328000039BDA0500F16D81049BCBF80030279B8E
:10329000CBF804600133F519072B2895279300F329
:1032A000AA820BF1080B039B580705D5DDE905231E
:1032B0009C1A002C00F36E83DDE9062305998A42EF
:1032C000ACBF9B185B180793002D7FF46EAF0023F3
:1032D00027930A9B1BB10A99089841F0B7FC0DF19E
:1032E000A40BCDF810A0049B1B78002B7FF415AE27
:1032F000289B002B3FF467AF099C089826AA21461B
:1033000042F046FEA38960E70B9B073323F00703D7
:10331000B3EC027B57EC176B0B9327F000431B9326
:103320008DED1A7ADDE91A01AE4B4FF0FF328DEDCB
:10333000107BFDF787FF002840F09B84DDE91A0130
:10334000A84B4FF0FF32FDF7C3FD002840F09184F9
:103350000022002330463946FDF7B0FD002840F03A
:103360005B879DF87B20039B9F4C23F08003039396
:103370009E4B472DC8BF1C4603210023CDE90C33CB
:1033800004940A9305910E4699460F93E3E60B9930
:1033900051F8043B0B91039911F010017FF4ACAE8E
:1033A000039A12F0400000F019879BB20A46A3E688
:1033B0000B9A52F8043B0B92039AD00600F1558405
:1033C000039A510640F14D8443F3C03211461BB2BB
:1033D00064E60B9B002253F8041B8DF87B208DF8CC
:1033E000E4100B9302E70B9F57F8043B049300266D
:1033F0008DF87B60002B00F09E86B9F1FF3F00F056
:103400000D8504984A463146FDF7DAF80A900028FF
:1034100001F025810A9B049A0B97B1469E1A26EA71
:10342000E673CDE90C999DF87B200593CDF82890A3
:10343000CDF83C908FE60B9B53F8042B0692002AA4
:1034400080F20A84069A0B9352420692039B9AF8E2
:10345000005043F0040303937EE52B239AF80050B9
:103460008DF87B3078E5039B9AF8005043F0800399
:10347000039371E5524612F8015B2A2D01F019827F
:10348000A5F13003092B92464FF000093FF666ADD7
:103490001AF8015B09EB890903EB4909A5F130032F
:1034A000092BF5D95AE5039B9AF8005043F0010324
:1034B000039351E59DF87B309AF80050002B7FF480
:1034C0004BAD20238DF87B3046E5039B43F010067F
:1034D00016F0200200F089830B9B073323F00703CB
:1034E00019465A6851F8083B0B91012108E6039BE5
:1034F0009AF8005043F0080303932DE50B9A039BC1
:1035000043F0020652F8043B0B9247F63002ADF846
:103510007C20374A1492022100227825F0E5039B93
:103520009E0640F1FD830B9B079A1B681A60D21719
:103530005A600B9B04330B93D3E69AF80050039B1D
:103540006C2D00F0538443F01003039304E59AF8C4
:103550000050039B682D00F0408443F04003039328
:10356000FAE4652D40F35381DDE9100100220023C8
:10357000FDF79AFC002800F04982279B1D4ACBF8F2
:103580000020013301370122072B28972793CBF81E
:10359000042000F38E850BF1080B209B0E9A9342BA
:1035A00004DB039BDB0701D43D467CE6129B139AA8
:1035B000DD19CBE90023279B28950133072B27939F
:1035C00000F3FE830BF1080B0E9B5C1E002C7FF7B3
:1035D0006AAE102C279B084F40F37885DDE90889F7
:1035E000102611E0FFFFEF7F68110708F886060834
:1035F0007411070884760608901107080BF1080B70
:10360000103C102C40F3628501331035072BCBE9B9
:103610000076CDE92735F1DD26AA4946404642F03D
:10362000B7FC00287FF4C9ADDDE927350DF1A40B07
:10363000E6E7039E01293FF43FAD022900F07681C1
:1036400052AC03F00701DB0843EA4273D208303181
:1036500053EA0207204604F8011DF2D1F70704944B
:1036600000F1768252AB03961E1B68E5DDE9052367
:10367000A3EB0208B8F1000F7FF7FCADB8F1100F13
:103680003A46279BC04F29DD19951C961024DDE989
:103690000865194606E0A8F11008B8F1100F0BF103
:1036A000080B18DD013110320729CBE90074CDE990
:1036B0002712F0DD26AA294630460DF1A40B42F070
:1036C00067FC00287FF479ADA8F11008B8F1100F5D
:1036D000DDE92712E6DC199D1C9E0B460133CBF871
:1036E0000070072B08EB0207CDE92737CBF80480E1
:1036F00000F30E85A9EB0608B8F1000F0BF1080BDB
:103700007FF7BEADB8F1100F3A46279B9E4F2EDDD6
:103710005946089CC3464FF01009B84637462E4616
:10372000099D06E0ABF1100BBBF1100F01F1080190
:1037300018DD013394481032072BC1E90009CDE9A7
:103740002732EFDD26AA2946204642F021FC002838
:103750007FF433ADABF1100BBBF1100FDDE9273275
:1037600029A9E6DC35463E464746D8468B46013316
:10377000CBF80070072B08EB0207CDE92737CBF811
:10378000048000F325820BF1080B79E5279B7F4924
:10379000CBF8001001337D1C0121072B28952793BE
:1037A000CBF8041000F34A850BF1080B002A40F017
:1037B000E084039B0E9A03F0010313433FF473ADBF
:1037C000129B139A5919CBE90023279B28910133A7
:1037D000072B279300F3EF850BF1080B049ACBF826
:1037E00000200E9ACBF8042001335518072BCDE9A1
:1037F00027357FF756ADDDE9080126AA42F0C8FB60
:1038000000287FF4DAAC289D0DF1A40B4BE50E9B4C
:10381000012B0BF1080640F37A81049BCBF80030B2
:10382000279B013301370122072B28972793CBF8D9
:10383000042000F3F981129A03F10108139BD519B2
:10384000B8F1070FC6E90032CDE9278500F3F8810A
:1038500008360E9BDDE9100103F1FF390022002339
:10386000FDF722FB002840F08B81049CC6F80490F1
:1038700008F1010801344D44B8F1070FCDE927855F
:10388000346000F359810836169A726008F101031A
:103890001544072B22AACDE927353260ABDC06F1AF
:1038A000080B00E5102FDDE92721DFF8E4802DDD8E
:1038B00019934346CDE91C45B046DDE908451E464F
:1038C00004E0103F102F0BF1080B19DD013210310D
:1038D0001023072ACDE92721CBF80060CBF804306C
:1038E000EFDD26AA294620460DF1A40B42F050FB3D
:1038F00000287FF462AC103F102FDDE92721E5DCC2
:10390000DDE91C453046199B464680460132394464
:10391000072ACBF80080CBF804702891279200F397
:10392000A9839DF87B200BF1080B7AE4149C52A923
:1039300003F00F001B09205C01F8010D43EA02733C
:10394000120953EA0200F3D152ABCDE903615E1ACA
:10395000FFF7F5BBDDE9080126AA199342F018FB31
:1039600000287FF42AAC289F199B0DF1A40B6CE46E
:10397000DDE9080126AA42F00BFB00287FF41DAC0C
:10398000289F0DF1A40B72E49011070884760608B5
:10399000A0110708102C279BDFF8CC8323DD4746B6
:1039A000DDF82490DDF82080102604E0103C102C77
:1039B0000BF1080B16DD01331035072BCBE9007630
:1039C000CDE92735F2DD26AA494640460DF1A40B84
:1039D00042F0DEFA00287FF4F0AB103C102CDDE959
:1039E0002735E8DCB84601332544072BCBE90084B2
:1039F000CDE927357FF760ACDDE9080126AA42F062
:103A0000C7FA00287FF4D9AB289D55E4209A002AF4
:103A10007FF7BCAE0C9E0E9B049A9E42A8BF1E462A
:103A2000002E134419930BDD279B01333744072BDA
:103A3000CBE900262897279300F39F850BF1080B0D
:103A40000C9D002EA8BFAD1B002D00F3EF81049B41
:103A50000C9A13449946039B5E0500F10C82209C4E
:103A60000E9B9C4203DB039AD50740F18E84129B88
:103A7000139ADD19CBE90023279B28950133072BE7
:103A8000279300F3DE850BF1080B0E9B1C1B199B83
:103A9000A3EB0906A642A8BF2646002E0DDD279BF4
:103AA000CBF8009001333544072BCBF80460289500
:103AB000279300F3E0850BF1080B002EA8BFA41B91
:103AC000002C7FF7F0AB102C279BA64F40F3FE8213
:103AD000DDE90889102605E00BF1080B103C102CDD
:103AE00040F3F48201331035072BCBE90076CDE9A2
:103AF0002735F1DD26AA4946404642F049FA00281A
:103B00007FF45BABDDE927350DF1A40BE6E7039B02
:103B1000DC073FF582AE049BCBF80030279B03F116
:103B200001087D1C0123B8F1070F2895CDF89C8072
:103B3000CBF804307FF7A8AEDDE9080126AA42F0F1
:103B400027FA00287FF439ABDDE9278529AE9BE60B
:103B5000302900F0C882049A03963023023802F814
:103B6000013C52AB1E1A0490FFF7E9BAB9F1000FFD
:103B70007FF4A7AA039652AB4E460493FFF7DFBA31
:103B80000E9B012B7FF780AE112B764F40F3E48222
:103B900043461024DDE9088B06E00836A9F1100938
:103BA000B9F1100F40F3D78201331035072BC6E966
:103BB0000074CDE92735F0DD26AA5946404642F08B
:103BC000E7F900287FF4F9AADDE9273529AEE5E712
:103BD000DDE9080126AA42F0DBF900287FF4EDAA0E
:103BE000289F0DF1A40BFFF74BBB0B9951F8043B39
:103BF0000B9116F010010CD116F0400004D00A46CB
:103C00009BB20121FFF77CBA16F400721CBFDBB235
:103C100002460121FFF774BA5B42039E62EB420247
:103C20002D200121FFF76DBADDE9080126AA42F037
:103C3000AFF900287FF4C1AADDE9273729AEFAE5FC
:103C4000DDE9080126AA42F0A3F900287FF4B5AA0D
:103C5000DDE9278529AEFCE59AF800500B93FFF7C4
:103C60007BB9039A920500F1A083DA171146FFF79A
:103C700015BADDE9100102460B46FDF7E3FA00280C
:103C800040F0CC85612D00F09584412D00F0038536
:103C9000B9F1FF3F00F0AA8325F02003472B04D1A0
:103CA000B9F1000F08BF4FF00109DDE91001039CD5
:103CB000002944F480720592C0F2B584002341ECDF
:103CC000180B19930A93A5F14103252B00F2C48226
:103CD000DFE813F09603C202C202C2028F0393030D
:103CE000C202C202C202C202C202C202C202C202B4
:103CF000C202C202C202C202C202C202C202C202A4
:103D0000C202C202C202C202C202C202C202C20293
:103D1000C202C202C202C202C202C2028F039303E3
:103D2000039BDD0600F10182039B5C0600F13783F3
:103D3000039B980540F1F9810B9B079A1B681A7049
:103D4000FFF7F7BB159B9AF80050002B3FF404A92E
:103D50001B78002B3FF400A9039B43F4806303937B
:103D6000FFF7FAB890110708A0110708BD4B14938C
:103D7000039B13F0200200F002810B9B073323F01A
:103D8000070319465A6851F8083B0B910398C1077D
:103D90000AD553EA020107D040F002010391302115
:103DA0008DF87D508DF87C10039921F480660221F6
:103DB000FFF7A6B9039EFFF78BBBAB4B1493D7E776
:103DC000DDE9080126AA42F0E3F800287FF4F5A90E
:103DD000289D0DF1A40BFFF7F7BB43F400739AF88D
:103DE000015003930AF1010AFFF7B6B843F020032C
:103DF0009AF8015003930AF1010AFFF7ADB8089849
:103E000040213DF0E9FA099B18601861002800F094
:103E1000C184099A40235361FFF767B804980B9750
:103E2000FCF7EEF9B1460646FFF7F9BA102D3A460F
:103E3000279B8E4F40F3E181DDE90848102605E01D
:103E40000BF1080B103D102D40F3D78101331032D8
:103E5000072BCBE90076CDE92732F1DD26AA4146D2
:103E6000204642F095F800287FF4A7A9DDE9273223
:103E70000DF1A40BE6E70D99CDF870A05A4638462F
:103E80007A4EDDF854A0189BDDF824B04F464FF071
:103E90001008DDF83C9081B3B9F1000F00F0FD800F
:103EA00009F1FF391799C2E9001327990131184424
:103EB00007292890279173DC0832199C9AF8001082
:103EC000E51B8D42A8BF0D46002D0CDD2799013161
:103ED00028440729C2E900752890279100F3098139
:103EE0009AF800100832002DACBF4C1B0C46002C79
:103EF00012DC0F440D990029CED1B9F1000FCFD1BA
:103F0000199BCDF854A0B9469945DDF870A09346A9
:103F1000074628BF9946A2E5102C279940F39084C4
:103F2000089D04930C9604E0103C102C02F108024A
:103F300015DD013110300729C2E90068CDE92710ED
:103F4000F2DD26AA5946284642F022F800287FF4DE
:103F500034A9103C102CDDE9271029AAE9DC049BC8
:103F60000C9D1560013120440729CDE927105460CC
:103F700000F310839AF8001008320F44BAE70B9947
:103F800051F8043B0B91039911F010017FF4FEAE40
:103F9000039A12F0400000F029819BB20A46F5E630
:103FA0000898049326AA594641F0F2FF00287FF4AE
:103FB00004A92898049B29AA7FE70021CDE904568B
:103FC00006F48067DFF8A880159ECDF80CA052ACEF
:103FD0008C4605E00A2B72F1000235D353462A467F
:103FE000991841F10001A8FB010525F0030000EB41
:103FF0009500091A581A4FF0CC3562F1000E05FBF6
:1040000000F508FB0E55A0FB08A005440AF0010EC0
:104010000520AEFB000E40184FEA5A0A303004F873
:10402000010C4AEAC57A0CF1010C013C6D08002F25
:10403000D0D031788C45CDD1BCF1FF0FCAD00A2B3E
:1040400072F1000280F0ED801596DDE9045652AB66
:10405000DDF80CA0CDF838C0CDE903641E1BFFF7D6
:104060006EB800BFA08806087411070890110708F1
:10407000CDCCCCCCDDE9080126AA199341F088FF0C
:1040800000287FF49AA89DF87B20199B0DF1A40BC2
:10409000FFF7C7B8039EFFF70FB80D9901390AF172
:1040A000FF3A0D91FEE60129039E7FF4C6AAFFF7B1
:1040B00008B8DDE9080126AA41F06AFF00287FF46C
:1040C0007CA8289F0DF1A40BFFF767BA01332544A4
:1040D000072BCBF80070CBF80440CDE927357FF7EC
:1040E000E0A8FFF788BB049A039652AB9E1AFFF72D
:1040F00026B80898049326AA594641F049FF00289B
:104100007FF45BA89AF800102898049B29AAEAE695
:10411000DDE9080126AA41F03BFF00287FF44DA805
:10412000289F0DF1A40BFFF7A5B80B9B079A1B68FE
:104130001A60FFF7FEB94E46062E1A4628BF06261D
:1041400099460A93C14B0596CDE90C220B9704932F
:104150000F92FFF700B8984608F101084D44B8F1F6
:10416000070FCDE927853760C6F804907FF78BAB42
:10417000E2E4129B13985919CBE90003279B28917D
:104180000133072B279300F316810BF1080B002A4C
:10419000BFF624AB56421032AD4F80F2D382DDE938
:1041A0000848102505E00BF1080B103E102E40F3D7
:1041B000C98201331031072BCBE90075CDE92731D6
:1041C000F1DD26AA4146204641F0E2FE00287EF4B9
:1041D000F4AFDDE927310DF1A40BE6E7039A12F401
:1041E00000721CBFDBB20246FEF786BF039A12F4D0
:1041F00000721CBFDBB20246C8E50133CBF8007089
:10420000072B05EB0207CDE92737CBF8045000F365
:10421000E0800BF1080B1AE42D228DF87B20FFF7CC
:10422000A2B8189B1799E41A1A4620463EF06CFD76
:10423000737803B101364FF0000CCFE6DDE90801D9
:1042400026AA41F0A5FE00287EF4B7AF209A289D4B
:104250000DF1A40BFFF7AABA4F46022124AB01933C
:1042600021AB00930898B0EE480AF0EE680A20AB44
:104270003A4600F041FB672D049000F00E82472D76
:1042800000F09D82049B25F02008B8F1460F03EB57
:10429000070605D11B78302B00F0E482209F3E44B6
:1042A00051EC180B00220023FCF7FEFD002800F063
:1042B00040813346049A9B1A0E93209A0C92B8F1CF
:1042C000470F00F02481B8F1460F00F0FE81531E25
:1042D000612D209300F0DE82412D40F0208150219D
:1042E0000120002BB6BFC2F101032B222D22092B86
:1042F0008DF888108DF8892040F33D820DF19706E6
:10430000544F32461046A7FB0312D20802EB82013B
:10431000A3EB4101303100F8011C19466329134613
:1043200000F1FF32EEDC303302F8013C831EB34271
:1043300080F0BC820DF1890213F8011B02F8011F05
:10434000B342F9D152AB181AA0F1AD0316930E9BEC
:10435000169A012B03EB020640F32D82129B1E449A
:1043600024F4806343F4807303930023CDE90C337A
:1043700026EAE6720F930592199B002B40F0D2803B
:104380009DF87B209946FEF7E6BE199A1C1BA2EB0E
:104390000906A6423D46A8BF2646FFF78EBB0B9BEB
:1043A000079A1B681A80FFF7C4B843F3C01211467E
:1043B0005BB2FEF773BEDDE9080126AA41F0E8FD15
:1043C00000287EF4FAAEDDE92731209A0DF1A40B26
:1043D000DDE6DDE9080126AA41F0DAFD00287EF4D9
:1043E000ECAE289F0DF1A40BFFF731BB4FF006098F
:1043F0005BE409F10107022130E74F4603212DE775
:1044000020A8B0EE480AF0EE680A41F0D5FC002280
:104410004FF07F5351EC100BFCF7DEFA0022002323
:1044200006460F46FCF740FD002840F0BB810A4BD2
:10443000039309F1FF33CDE91C9B0D95CDE90E4A9D
:10444000DDF81080DDF80CB01D460DE0881107087E
:1044500090110708CDCCCCCCA08806080022002300
:10446000FCF722FDF0B94D46AD4B002230463946EF
:10447000FCF7B2FA0F460646FCF748FD0446FCF787
:1044800041FA0B46024639463046FCF7EDF81BF878
:104490000430C24608F8013B6B1C05F1FF390646A3
:1044A0000F46DBD19F4B0C950022304639460D9DBF
:1044B0000D94DDE91C9B0E9CCDF838A0DDF83CA0E6
:1044C000FCF71AFD002840F00E81964B3046394625
:1044D0000022FCF7E9FC18B10D9BDF0700F1038116
:1044E0000C9B002BC0F21A810C9B013343443022F9
:1044F00008F8012B4345FBD1049A9B1A0E9325F033
:104500002008DAE6049A249B9B1A209A0E93D31C67
:104510000C9201DB914518DA531E023D2093E9B25B
:104520000020DEE62D228DF87B204FF00009FEF7FB
:1045300014BE249BB342BFF4BDAE30215A1C24925A
:104540001970249B9E42F9D8B4E60E9B934200F367
:10455000AB80E30740F16081129BD618670502D556
:10456000002A00F33381059B039326EAE673059343
:10457000672500230F930D93FEE6DDE9080126AAC7
:1045800041F006FD00287EF418AE289F0DF1A40B23
:10459000FFF756BA0898049326AA594641F0F8FC4A
:1045A00000287EF40AAE9AF800102898049B29AAE5
:1045B0000F449FE478238DF87D3030238DF87C30D4
:1045C000039BB9F1630F43F0020400F3AF800023B3
:1045D0000A9339AB0493039B43F481730593119BB6
:1045E000002B23DB9DED108B00231993612D7FF4AD
:1045F0006AABB0EE480AF0EE680A20A841F0DCFB96
:1046000000224FF07F5351EC100BFCF7E5F900222C
:10461000002306460F46FCF747FC002840F0C28006
:10462000414B039305E70023039C0A93DDE9102324
:1046300003F1004308EE903A2D2308EE102A199357
:10464000D4E7DDE9080126AA41F0A2FC00287EF4A7
:10465000B4AD209C289D0DF1A40BFFF716BA4E4671
:10466000CDF81490CDE90C009DF87B200B97814686
:104670000F90FEF770BDDDE9080126AA41F088FC25
:1046800000287EF49AAD209C0E9B289D1C1B0DF1EA
:10469000A40BFFF712BA58238DE7E6077FF532AF78
:1046A000C6194FF04708FBE50E9B129A9E180C9B0B
:1046B000002B40F3C8806725620500F18880059BC8
:1046C000039326EAE673059353E70C9A04F001037B
:1046D000002A43EA090340F3D580002B40F0BD8057
:1046E0000C9E6625E8E70E9B039A2493D17B18F86D
:1046F000013C8B42424609D1302002F8010C249A39
:10470000531E249312F8013C9942F6D0392B0BBF6B
:10471000039B01339B7ADBB202F8013C4346EBE694
:10472000000030400000E03F74110708089809F1CC
:1047300001013CF051FE0490002800F0C980049B68
:104740000A9348E701333144072BCDE92731CBF8F1
:104750000070CBF804607FF73FA8DDE9080126AAC6
:1047600041F016FC00287EF428ADDDE927310DF17B
:10477000A40BFFF733B8002840F0818030228DF879
:104780008A200DF18B02303302F8013B22ABD31AA1
:104790001693DCE5089A0C2313604FF0FF33079360
:1047A000FEF716BD4E4B4F4A612D18BF1A46012326
:1047B000039220933DE6E2077FF5D2ADCEE5E10717
:1047C0007FF5A0AE049BA846DE1969E5672515991B
:1047D0000B78FF2B78D000240C9A204603E00130A0
:1047E0000131FF2B08D0934206DAD21A4B78002B06
:1047F000F5D10B780134F4E715910D900F940C92DC
:10480000059B0D9A03930F9B1344189A02FB0366B2
:1048100026EAE6730593AFE516469FE6119B324CF8
:10482000002B039BA8BF9DF87B2023F08003B8BF1B
:104830002D220393B8BF8DF87B202C4BFEF799BD3A
:104840002B4DFFF78EBBC3F101031E44059A039263
:1048500026EAE673059367258BE6129BD6184E442D
:10486000662529E751EC180B00220023FCF71CFBFE
:1048700000287FF413ADC7F1010720970FE50DF174
:104880008A0280E743B9059B0393012305936625BC
:104890001E466EE6702123E5059B0393129B5E1C6A
:1048A0004E4426EAE6730593662562E602231693D4
:1048B0004DE50B9B9AF80150924653F8042B0B934D
:1048C00042EAE279FEF748BB00230F930D9397E786
:1048D00009998B8943F0400213468A81FEF775BC23
:1048E000A0880608741107086C11070870110708E2
:1048F00090110708000000002DE9F04F9FB08DEDEA
:10490000040B0091016C289D029057EC106B0A92E9
:10491000089349B1426C4A600123934004468B607E
:1049200040F012FD00232364B7F10009B4BF012356
:1049300000232B60764BBCBF29F00049CDF81490C2
:1049400033EA090300F0A8809DED047B002251ECBE
:10495000170B00238DED067BFCF7A6FA804668B1A5
:10496000089A01231360299B13B1299A694B13609C
:10497000694B039303981FB0BDE8F08F9DED060BC4
:1049800002981CAA1DA941F015F85FEA1955824644
:1049900040F09880DDE91C85454405F23243202B28
:1049A00040F38483C3F1400309FA03F905F212438B
:1049B00026FA03F349EA0300FBF794FF0123013DC4
:1049C0001193A1F1F871554B0022FBF74DFE4AA35C
:1049D000D3E90023FCF700F849A3D3E90023FBF750
:1049E00045FE064628460F46FBF78CFF46A3D3E953
:1049F0000023FBF7F1FF02460B4630463946FBF732
:104A000035FE06460F46FCF781FA00228346002356
:104A100030463946FCF752FA002840F01B83A8EBD9
:104A20000508BBF1160F08F1FF3400F28D813C4DF3
:104A300005EBCB05D5E90023DDE90601FCF73EFADD
:104A4000002873D00023002C0BF1FF3B1093C0F221
:104A5000808100230B93BBF1000F6DDA0B9BA3EB5E
:104A60000B030B93CBF10003CDE90EB3009B092B95
:104A70004FF0000B68D8052B40F31D83043B0093D7
:104A80000025009B023B032B00F22486DFE813F095
:104A900060045D0455043904089AC9F3130942F20D
:104AA0000F7359EA060913601CD1299B002B00F0F3
:104AB0002C861C4B03930833299A039813601FB06C
:104AC000BDE8F08FDDE90612C2F31303084643F098
:104AD0007F51CDF84480A5F2FF35DDF8708041F4B8
:104AE000401170E7299B002B40F0E8830E4B0393A5
:104AF00040E700BFAFF3008061436F63A787D23FF9
:104B0000B3C8608B288AC63FFB799F501344D33FBC
:104B10000000F07F85760608847606080000F83FDE
:104B2000A01906087814070884140708B8F1000FC4
:104B300040F35D8410900B9000230F93009BCDF801
:104B400038B0092B5C4496D900234FF0FF32CDE9F1
:104B50000923012500930C95029B00215964099BB0
:104B60001893029840F0CAFB0390002800F0BB8520
:104B7000DDE902321A64099B0E2B00F21481002D2C
:104B800000F011810E9A002A40F33884B14D02F0F2
:104B90000F0305EBC3031511D205D3E9008940F1DA
:104BA000F883AD4BDDE90601D3E90823FCF73EF8B5
:104BB000CDE9120105F00F0503277DB1A64EEB07E5
:104BC00008D540464946D6E90023FBF705FF0137E3
:104BD000804689466D1006F10806F0D142464B46E4
:104BE000DDE91201FCF722F880468946109B43B1AB
:104BF0009A4B002240464946FCF760F9002840F0F5
:104C0000F0843846FBF77EFE42464B46FBF7E4FE57
:104C1000934B0022FBF72AFD099B0646A1F1507732
:104C2000002B00F0A9800E9B1993099B1293039B04
:104C3000884D49464046CDE914675E1CFCF766F98D
:104C4000129905EBC10313ED027B07468DED167B30
:104C5000FBF758FE02460B4640464946FBF704FD6B
:104C600089460C993037DDE916238046FFB20029CA
:104C700000F052847B490020FBF7D8FFDDE91423C4
:104C8000FBF7F2FC039D02460B46CDE914232F707F
:104C900042464B46FCF730F9002840F09684CDE9B7
:104CA0001AB4CDF858A0129DDDE914AB00272AE014
:104CB0000137AF4280F2DD846B4B504659460022EB
:104CC000FBF78AFE684B002282468B4640464946E7
:104CD000FBF782FE89468046FCF718F90446FBF78D
:104CE00011FE02460B4640464946FBF7BDFC3034F8
:104CF00006F8014B52465B4680468946FCF7DEF8D3
:104D0000002840F0B38442464B4654490020FBF74C
:104D1000ABFC52465B46FCF7D1F80028C8D0199B83
:104D2000DDF858A0039A374603F1010802E09742E4
:104D300000F07B843E4617F8013D392BF7D0013354
:104D4000DBB23B70454674E10123002C1093BFF6A3
:104D500080AEC8F101030B9300247CE63846FBF7D4
:104D6000D1FD42464B46FBF737FE3D4B0022FBF799
:104D70007DFC0646A1F150773C4B40464946002257
:104D8000FBF772FC32463B4680468946FCF7B4F896
:104D9000002840F0598440464946324607F1004316
:104DA000FCF78CF828BB1D9B002BC0F291800E9A5B
:104DB0000E2A00F38D80274D0E9B05EBC30595ED64
:104DC000007B0A9B002B8DED007B19DA099B002BE1
:104DD00016DC0ED1254B0022DDE90001FBF7FCFDBE
:104DE00002460B46DDE90601FCF772F8002800F0E8
:104DF0002B844FF00009039E4F460A9BDD4324E2BB
:104E0000DDE90045DDE9068922462B464046494654
:104E1000FBF70CFFFCF77AF80646FBF773FD22461A
:104E20002B46FBF7D9FD039F0B46024649464046F9
:104E3000FBF71AFC06F1300307F8013B099B012B35
:104E400000F010830125CDF810A09946DDE900ABF4
:104E5000A8462BE0A0190608781906080000F03FC4
:104E600000001C400000E03F00002440000014400F
:104E700052465B4620462946FBF7D8FEFCF746F82B
:104E80000646FBF73FFD52465B46FBF7A5FD08F1E2
:104E900001080B46024629462046FBF7E5FB06F1D2
:104EA0003003C84507F8013B00F0DA82B94B002215
:104EB000FBF792FD0022002304460D46FBF7F4FFAA
:104EC0000028D5D00E9DDDF810A001353E46B0E09B
:104ED0000C9A002A40F0D28000230F9E0B9D0C9369
:104EE0001F4655B1002C08DDA5420B9A2B46A8BFE2
:104EF0002346D21A0B92ED1AE41A0F9B53B10C9B66
:104F000013B1002E40F0E78251460F9A029840F00C
:104F1000ABFB82460298012140F0C2FA8146BBF108
:104F2000000F40F0B681009B012B40F3CC810120A3
:104F3000204410F01F0000F09A80C0F12003042BE1
:104F400040F3DA810B9BC0F11C0003440B93054432
:104F500004440B9B002B05DD514602981A4640F095
:104F6000DDFB8246002C05DD49460298224640F0D2
:104F7000D5FB8146109B002B40F07081099B002BD4
:104F800040F348810C9B002B40F0A4800E9D01351E
:104F9000DDF80C80099CDDF808B0012607E05146D9
:104FA00000230A22584640F0D9F901368246494684
:104FB00050463FF01DFCA64200F1300308F8013BCB
:104FC000EDDB099A002AC8BF1646039AD8BF01260E
:104FD00002EB060B0024514601220298009340F098
:104FE0009DFB4946824640F011FC002840F3E281D7
:104FF000039A02E05A4500F0E8815E460BF1FF3B60
:1050000016F8013C392BF5D001338BF80030DDF870
:1050100008804946404640F097F957B12CB1BC4250
:1050200003D02146404640F08FF90298394640F0BF
:105030008BF90298514640F087F900233370089BA2
:105040001D60299B002B3FF495AC03981E601FB098
:10505000BDE8F08F5846FBF755FC32463B46FBF760
:1050600023FF00287FF4DBAC0BF1FF3BD7E41C23CC
:105070000B9A1A440B921D441C446AE7009A012AB9
:1050800040F3A881099B0F9A5E1EB242C0F26A816A
:10509000002BA2EB060680F2DD820B9B099A9D1A7B
:1050A0000298012140F0FCF907461AE7C3F12003FA
:1050B00006FA03F080E40125E3E439460023029870
:1050C0000A2240F04BF9189B002B074640F3EF8271
:1050D0000E960993002D00F33E81BBF1000F40F0C6
:1050E000DE81B846039E099C731E1C44049B03F09A
:1050F0000103CDE90B43029C494650463FF078FB43
:1051000039468346504640F081FB424649460546B3
:10511000204640F09DFBC26801460BF13003002A97
:105120003AD1CDE90903504640F070FB0999069049
:10513000204640F009F9069A0A9B002A5AD1009AA3
:105140001AB90C9A002A00F09A82002D45DB0B9ABE
:10515000B346B2420BF8013B00F0B8815146002340
:105160000A22204640F0FAF84745824639464FF079
:1051700000034FF00A02204636D040F0EFF84146D7
:10518000074600230A22204640F0E8F85E468046A3
:10519000B2E700BF000024400298069340F0D4F824
:1051A000002D069B06DB049A009902F001020D43D4
:1051B0002A432AD1514601220298009340F0AEFAC8
:1051C0004946824640F022FB0028009B40F3E780DE
:1051D000392B00F02F820BF131030E9D06F8013BB5
:1051E0003C460135474612E740F0B8F85E460746B0
:1051F000804681E7002DC0F27D8200990D430C9915
:105200000D4300F07782002AA1DD392B00F01282D5
:105210000133E2E7009B022B7FF7B4AE099B002B22
:1052200040F01C8149460522029840F097F801465B
:105230008146504640F0EAFA002840F30F81039E71
:105240000E9D312306F8013B013502984946013590
:1052500040F07AF8002F7FF4E8AEEAE6494650467F
:1052600040F0D4FA0028BFF689AE514600230298D8
:105270000A2240F073F80E9B5E1E0C9B8246002BA8
:105280007FF41BAF189B002B40F3FF810E9D099309
:105290007EE601465A46029840F0E6F9009B012B53
:1052A00081466BDD4FF0000BD9F8103009EB83031A
:1052B000186940F0A3F8C0F1200039E6924B03933F
:1052C0000333FFF7F9BB049B002B7FF430AEDDE91D
:1052D0000412C2F31303002B7FF429AE8B4B13404F
:1052E00023B10B9B01330B9301340123BBF1000F5E
:1052F00040F0AE819B461AE63FF42BAEC0F13C0372
:10530000B6E601230C930A9B0E9A134418930133BB
:10531000012B1E460993B8BF0126172E40F3D581F5
:10532000012204235B0003F11400B042114602F194
:105330000102F7D9029B596413E401230C930A9EDE
:10534000002E32DD18960996E7E700230C93DAE782
:1053500000230C93F3E7394602982A4640F0DEF921
:105360000746BAE60F9B0B9A0F96F31A9B44099BCC
:1053700015461A441C440B92002691E6049B002B10
:1053800090D1DDE90401C1F313030A46002B89D152
:10539000A4E79DED067B02278DED127B0DE47FF4E3
:1053A0001CAFDA077FF519AF12E70123CDE9093306
:1053B000FFF7D2BB03D1009BDB073FF519AE5E467A
:1053C0001BF8013D302BFAD021E6039A3123013539
:1053D00013701CE6119A002A00F0FA8003F233439E
:1053E0000B9A0F9E15461A441C440B9258E6C8F1BE
:1053F000010304460B931090FFF79EBB00F0EC8076
:105400000E9B434D5E4206F00F0305EBC303D3E949
:105410000023DDE90601FBF7DFFA3511CDE91201C2
:1054200000F04E813B4E0023022780468946E80764
:1054300009D5D6E9002340464946FBF7CDFA0137A6
:105440008046894601236D1006F10806EFD1002B36
:105450007FF4CCABDDE91289FFF7C8BB039ECCE437
:10546000DDF810A00E9D02460B46FBF7FFF8024642
:105470000B46CDE904230135DDE90023A846FBF7FF
:105480003BFD40B9DDE90023DDE90401FBF70CFD3C
:1054900018B1F10701D5039A4CE43E46C9E5796895
:1054A00002983FF02BFF0546002800F027813B695A
:1054B00002339A0007F10C010C30FBF729FE029829
:1054C0002946012240F02AF980460BE60E9D3C4613
:1054D000013547467FE5DDF80880394632464046CB
:1054E00040F0C2F8524601460746404640F006F8F2
:1054F0005146824640463FF027FF0F9B9B1B0F9370
:105500003FF408AD00E500BF841407080000F07FF9
:10551000A019060878190608DDE91401FBF75CFA02
:10552000039B1F70129B012BCDE90C0100F0C6807C
:10553000129F039BCDF844B01F447C4B0022404691
:105540004946FBF749FA89468046FBF7DFFC83466C
:10555000FBF7D8F90BF1300B02460B4640464946A3
:10556000FBF782F806F801BBB74280468946E4D1D2
:10557000DDF844B06E4B0022DDE90C01FBF776F854
:1055800002460B4640464946FBF7B6FC002867D169
:10559000DDE90C2366490020FBF766F802460B465E
:1055A00040464946FBF78AFC48B91D9B002BFFF695
:1055B00093AC0E9B0E2B3FF78FACFFF7FDBB3E4627
:1055C000013F16F8013C302BF9D0199D013530E52B
:1055D0001C9BC3F1360303E7DDE906890227FFF7C9
:1055E00005BB099B002B3FF4B9AB189B002B7FF741
:1055F000DAAB0E9A1293013A4C4B199240460022B4
:105600004946FBF7E9F980468946781CFBF77AF9A9
:1056100042464B46FBF7E0F9464B0022FBF726F8E3
:105620000646A1F15077FFF702BB08F101083123CC
:10563000FFF787BB0E9D039AB34639233C460BF810
:10564000013B01354746D8E44FF000094F46F6E5E7
:105650009B4629E60B9A15461A441C440B921FE5FB
:10566000199B039A03F10108FFF764BBDDF858A00A
:10567000ABE7DDE91AB4DDF858A0FFF794BB392B8E
:10568000D8D0002D3FF7A7ADA7E5009B022B0ADC81
:10569000189B099349460E9D3FF0AAF8039A00F122
:1056A000300313708DE4189B09930E96B6E5009BAA
:1056B000022BF8DC189B0E9609930BE5374659E749
:1056C000DDE912890227FFF791BA029B0021596494
:1056D000FFF747BA029B00255D64294618463FF054
:1056E0000DFE0390A8B9144B144800224FF4D57155
:1056F0003BF004FD002A7FF770AD5BE50E4B0F48D1
:105700002A4640F2EA213BF0F9FC0D4B0393FFF7E8
:1057100031B9DDE902321A644FF0FF3301220A95F4
:1057200018930C920993FFF73EBB00BF0000244082
:105730000000E03F00001C40881407089C14070884
:105740007814070808B591F90220002A10DB002020
:105750000B7803F01803182B17D0002A01DB03B9CC
:105760000220002A13DB0D4B1B6803B1984708BDCC
:105770000B7803F01803102B03D0082B03D0002064
:10578000E6E70120E4E70120E2E70320E5E74B78C4
:1057900013F0380FE7D00420E5E700BF387700208A
:1057A000014B186000207047387700202DE9F04148
:1057B00084B000AF06468846384839F03DFE78B1DF
:1057C000044685682B6807F10C0198473B7B03F082
:1057D0001803102B58D0082B56D00323337055E0F4
:1057E0006D4600233B7202237B7288B06C4614F135
:1057F000100212D00E201AB1042801DD284B63617B
:1058000000233B7102237B71A2B1082801DD234BE9
:10581000A36104F11C0300210AE06FF00040EAE7F5
:1058200001F110063E4416F80C6C03F8016B0131CF
:105830000129F5D90D2824DD0E2342B10321397247
:1058400000217972B9720121F972B86820610021D2
:105850006FF300016FF341016FF382016FF3C50134
:10586000012060F38811C3F30A0363F353216FF33C
:105870001F5100230B4811F073FBAD466FF005007C
:1058800008E06FF01B03D8E7012333706B694146D2
:10589000204698471037BD46BDE8F081681A0608D3
:1058A000741A06089C160608B0B582B000AF3248DC
:1058B00039F0C2FD58B1044685682B6A2F499847D4
:1058C0002B693221204698470837BD46B0BD6D464A
:1058D00000233B7102237B7188B06C4614F11002E7
:1058E00012D00E201AB1042801DD254B636100237C
:1058F0003B7002237B70A2B1082801DD1E4BA3611F
:1059000004F11C0300210AE06FF00040EAE701F116
:10591000080CBC441CF808CC03F801CB0131012968
:10592000F5D90D2824DD0E2342B103213971002160
:105930007971B9710121F9717868206100216FF3E3
:1059400000016FF341016FF382016FF3C501012084
:1059500060F38811C3F30A0363F353216FF31F51FC
:105960000023084811F0FCFAAD466FF00500ABE7E4
:105970006FF01B03D8E700BF681A060845570008F8
:10598000741A06089C16060808B50122114602483A
:105990005AF027FE002008BD3C770020F0B583B008
:1059A00000AF664839F048FD88B3044685684FF07B
:1059B000FF324FF0FF3362483AF042FA2B6820463C
:1059C00098470546002800F0B1806E4600233B71E1
:1059D00002237B718AB06C4614F110026BD0122046
:1059E0001AB1042801DD574B636100233B70022389
:1059F0007B70002A6CD00346082801DD4F49A16165
:105A00000C2B00DDE56104F1200300215EE06D4612
:105A100000233B7102237B7188B06C4614F11002A5
:105A200012D00E201AB1042801DD474B6361002318
:105A30003B7002237B70A2B1082801DD3F4BA361BC
:105A400004F11C0300210AE06FF00040EAE701F1D5
:105A500008063E4416F8086C03F8016B0131012971
:105A6000F5D90D2824DD0E2342B10321397100211F
:105A70007971B9710121F9717868206100216FF3A2
:105A800000016FF341016FF382016FF3C501012043
:105A900060F38811C3F30A0363F353216FF31F51BB
:105AA00000232A4811F05CFAAD466FF0050536E098
:105AB0006FF01B03D8E76FF0004091E701F1080C8D
:105AC000BC441CF808CC03F801CB01310129F5D9FD
