:020000040800F2
:1000000000500224E174020823D6050899740208FE
:10001000997402089974020899740208000000009B
:100020000000000000000000000000003D76020813
:100030009974020800000000A9750208515C0308C9
:1000400041790208417902084179020841790208A0
:100050004179020841790208417902084179020890
:100060004179020841790208417902084179020880
:100070004179020841790208417902084179020870
:1002C00090F800F06DE9024520F007016FF0000C96
:1002D00010F0070491F820F040F049804FF000043E
:1002E0006FF00700D1E9002391F840F000F1080019
:1002F00082FA4CF2A4FA8CF283FA4CF3A2FA8CF351
:100300004BBBD1E9022382FA4CF200F10800A4FAB7
:100310008CF283FA4CF3A2FA8CF3E3B9D1E904230B
:1003200082FA4CF200F10800A4FA8CF283FA4CF342
:10033000A2FA8CF37BB9D1E9062301F1200182FAFC
:100340004CF200F10800A4FA8CF283FA4CF3A2FA02
:100350008CF3002BC6D0002A04BF04301A4612BA10
:10036000B2FA82F2FDE8024500EBD2007047D1E913
:10037000002304F00305C4F100004FEAC50514F0A2
:10038000040F91F840F00CFA05F562EA05021CBF73
:1003900063EA050362464FF00004A9E7000000008D
:1003A000A2EB0300704700BF02780B78012A28BF38
:1003B0009A42F5D16DE9044540EA0104CDE90267AE
:1003C0006FF0000C4FEA447212B380EA010414F09B
:1003D000070F6AD100F0070420F0070004F00305BE
:1003E00021F007014FEAC505F0E8042314F0040FDB
:1003F000F1E804670CFA05F462EA040266EA04060E
:100400000AD063EA0403624667EA0407664603E02B
:10041000F0E80423F1E8046782FA4CF582EA060466
:10042000A4FA8CF46CBB83FA4CF583EA0705A5FAB1
:100430008CF595B950E9022351E9026782FA4CF52F
:1004400082EA0604A4FA8CF483FA4CF583EA0705E1
:10045000A5FA8CF52543DBD09CB92DBAB5FA85F405
:1004600024F0070427FA04F1DDE9026723FA04F314
:1004700003F0FF0001F0FF01FDE80445A0EB0100DF
:10048000704724BAB4FA84F424F0070426FA04F17D
:10049000DDE9026722FA04F202F0FF0001F0FF0139
:1004A000FDE80445A0EB0100704714F0030F3CD1B8
:1004B00010F0030428D150F8082B51F8083B82FAB9
:1004C0004CF582EA0305A5FA8CF55DB950F8042CC9
:1004D00051F8043C82FA4CF582EA0305A5FA8CF542
:1004E000002DE8D02DBAB5FA85F424F0070423FADC
:1004F00004F122FA04F202F0FF0001F0FF01FDE82E
:100500000445A0EB010070474FEAC40420F003004B
:1005100050F8082B21F0030151F8083B0CFA04F4C1
:1005200062EA040263EA0403C9E710F003041AD084
:10053000A1EB040120F00300E40750F8042B06D0DF
:100540000FD28B785FFAA2F4E41A06D12BB1CB78E4
:100550005FFAB2F4E41A00D11BB920465DF8104BE3
:10056000704701F1040150F8042BCC0721F003017E
:1005700051F8043B48D824D222F07F4482FA4CF54B
:1005800094EA1325A5FA8CF50AD165B951F8043B14
:1005900084EA0204B4EB036F0ED150F8042BEBE7AE
:1005A0004FEA132355E035F07F454DD10878FDE83B
:1005B0000445C0F1000070474FEA126203F0FF03E8
:1005C00047E002EA1C4482FA4CF594EA1345A5FA86
:1005D0008CF50AD165B951F8043B84EA0204B4EB06
:1005E000034F0CD150F8042BEBE74FEA134330E0F4
:1005F00015EA1C4528D10B884FEA124229E04FEA40
:10060000124203EA1C4324E002F0FF0482FA4CF594
:1006100094EA1365A5FA8CF50AD165B951F8043B43
:1006200084EA0204B4EB032F09D150F8042BEBE762
:100630004FEA13630DE015F0FF0F05D10B684FEA89
:10064000122223F07F4304E04FF00000FDE8044550
:10065000704712BA1BBA82FA4CF482EA0304A4FA75
:100660008CF5B5FA85F402FA04F203FA04F34FEAC2
:100670001260FDE80445A0EB136070470000000025
:1006800001F0FF01102A2BDB10F0070F08D010F843
:10069000013B013A8B422DD010F0070F42B3F6D147
:1006A000F0B441EA012141EA014122F007047FF060
:1006B00000070023F0E80256083C85EA010586EAB7
:1006C000010685FA47F5A3FA87F586FA47F6A5FAF3
:1006D00087F68EB9EED1F0BC01F0FF0102F00702FF
:1006E00032B110F8013B013A83EA010313B1F8D1AA
:1006F0000020704701387047002D06BF354603388B
:10070000073815F0010F07D1013015F4807F02BFC3
:10071000013015F4C03F0130F0BC0138704700BF14
:100720009FED0B7B41EC160B9FED0B5B26EE077BE1
:10073000BCEEC77BB8EE474BA4EE456BFCEEC67B28
:1007400017EE101A17EE900A704700BFAFF3008043
:10075000000000000000F03D000000000000F0413B
:1007600081F0004102E000BF83F0004330B54FEA62
:1007700041044FEA430594EA050F08BF90EA020FCF
:100780001FBF54EA000C55EA020C7FEA645C7FEA62
:10079000655C00F0E2804FEA5454D4EB5555B8BF85
:1007A0006D420CDD2C4480EA020281EA030382EAF6
:1007B000000083EA010180EA020281EA0303362D88
:1007C00088BF30BD11F0004F4FEA01314FF4801C5B
:1007D0004CEA113102D0404261EB410113F0004F6D
:1007E0004FEA03334CEA133302D0524263EB430324
:1007F00094EA050F00F0A780A4F10104D5F1200EC2
:100800000DDB02FA0EFC22FA05F2801841F100011C
:1008100003FA0EF2801843FA05F359410EE0A5F1F0
:1008200020050EF1200E012A03FA0EFC28BF4CF021
:10083000020C43FA05F3C01851EBE37101F00045D7
:1008400007D54FF0000EDCF1000C7EEB00006EEBE4
:100850000101B1F5801F1BD3B1F5001F0CD349086E
:100860005FEA30004FEA3C0C04F101044FEA4452C5
:1008700012F5800F80F09A80BCF1004F08BF5FEA4C
:10088000500C50F1000041EB045141EA050130BD2C
:100890005FEA4C0C404141EB0101013C28BFB1F53E
:1008A000801FE9D291F0000F04BF01460020B1FA89
:1008B00081F308BF2033A3F10B03B3F120020CDA5C
:1008C0000C3208DD02F1140CC2F10C0201FA0CF03A
:1008D00021FA02F10CE002F11402D8BFC2F1200C9F
:1008E00001FA02F120FA0CFCDCBF41EA0C01904055
:1008F000E41AA2BF01EB0451294330BD6FEA04049E
:100900001F3C1CDA0C340EDC04F11404C4F1200288
:1009100020FA04F001FA02F340EA030021FA04F39A
:1009200045EA030130BDC4F10C04C4F1200220FAF1
:1009300002F001FA04F340EA0300294630BD21FA2F
:1009400004F0294630BD94F0000F83F4801306BFF5
:1009500081F480110134013D4EE77FEA645C18BFE9
:100960007FEA655C29D094EA050F08BF90EA020F80
:1009700005D054EA000C04BF1946104630BD91EA78
:10098000030F1EBF0021002030BD5FEA545C05D17B
:100990004000494128BF41F0004130BD14F58004BA
:1009A0003CBF01F5801130BD01F0004545F0FE412E
:1009B00041F470014FF0000030BD7FEA645C1ABF63
:1009C000194610467FEA655C1CBF0B46024650EA9A
:1009D000013406BF52EA033591EA030F41F40021C6
:1009E00030BD00BF90F0000F04BF0021704730B54C
:1009F0004FF4806404F132044FF000054FF0000121
:100A000050E700BF90F0000F04BF0021704730B5E1
:100A10004FF4806404F1320410F0004548BF4042B6
:100A20004FF000013EE700BF42004FEAE2014FEA0B
:100A300031014FEA02701FBF12F07F4393F07F4FE6
:100A400081F06051704732F07F4208BF704793F0E9
:100A50007F4F04BF41F40021704730B54FF46074FC
:100A600001F0004521F000411CE700BF50EA0102FF
:100A700008BF704730B54FF000050AE050EA0102A8
:100A800008BF704730B511F0004502D5404261EB18
:100A900041014FF4806404F132045FEA915C3FF459
:100AA000D8AE4FF003025FEADC0C18BF03325FEAF6
:100AB000DC0C18BF033202EBDC02C2F1200300FAA7
:100AC00003FC20FA02F001FA03FE40EA0E0021FACC
:100AD00002F11444BDE600BF7BB972B90029BEBF64
:100AE00000204FF0004106E008BF00281CBF6FF057
:100AF00000414FF0FF3000F057B8ADF1080C6DE940
:100B000004CE002909DB002B1ADB00F014F9DDF814
:100B100004E0DDE9022304B07047404261EB41018B
:100B2000002B1BDB00F007F9DDF804E0DDE9022310
:100B300004B0404261EB4101524263EB4303704712
:100B4000524263EB430300F0F6F8DDF804E0DDE920
:100B5000022304B0404261EB41017047524263EB13
:100B6000430300F0E8F8DDF804E0DDE9022304B017
:100B7000524263EB4303704753B94AB9002908BF97
:100B800000281CBF4FF0FF314FF0FF3000F00CB8D1
:100B9000ADF1080C6DE904CE00F0CDF8DDF804E00D
:100BA000DDE9022304B07047704700BF844641EA84
:100BB000000313F003036DD1403A41D351F8043BD5
:100BC00040F8043B51F8043B40F8043B51F8043B27
:100BD00040F8043B51F8043B40F8043B51F8043B17
:100BE00040F8043B51F8043B40F8043B51F8043B07
:100BF00040F8043B51F8043B40F8043B51F8043BF7
:100C000040F8043B51F8043B40F8043B51F8043BE6
:100C100040F8043B51F8043B40F8043B51F8043BD6
:100C200040F8043B51F8043B40F8043B51F8043BC6
:100C300040F8043B51F8043B40F8043B403ABDD235
:100C4000303211D351F8043B40F8043B51F8043BD7
:100C500040F8043B51F8043B40F8043B51F8043B96
:100C600040F8043B103AEDD20C3205D351F8043B66
:100C700040F8043B043AF9D2043208D0D2071CBF32
:100C800011F8013B00F8013B01D30B88038060465B
:100C9000704700BF082A13D38B078DD010F00303D1
:100CA0008AD0C3F10403D21ADB071CBF11F8013B41
:100CB00000F8013B80D331F8023B20F8023B7BE790
:100CC000043AD9D3013A11F8013B00F8013BF9D2BB
:100CD0000B7803704B7843708B7883706046704755
:100CE000430803F05533C01A00F03333800800F096
:100CF0003330184400EB10104FF0013300F00F3088
:100D00005843000E704708B502460B4643EC172BBC
:100D1000B5EEC07BF1EE10FA03D4BDE80840FFF752
:100D2000FFBCB1EE477B51EC170BFFF7F9FC4042DB
:100D300061EB410108BD2DE9F04786468C46084627
:100D4000089E154674461946002B40F0C280854225
:100D5000B2FA82F245D94AB1C2F1200300FA02FC8C
:100D60002EFA03F3954043EA0C0C94404FEA154EDB
:100D7000A8B2BCFBFEF8230C0EFB18CC08FB00F954
:100D800043EA0C43994528D9EB1808F1FF3704D200
:100D9000994502D9A8F102072B44A3EB0903A4B299
:100DA000B3FBFEFC0EFB1C330CFB00F044EA0344D7
:100DB000A04214D92C190CF1FF3304D2A04202D95D
:100DC000ACF102032C44241A43EA07401EB1D4407C
:100DD000002334607360BDE8F0874746DDE7634673
:100DE000F1E792BB431B01214FEA154EAFB2B3FBB3
:100DF000FEFC200C0EFB1C330CFB07F840EA0343FF
:100E0000984562D9EB180CF1FF3004D2984502D90D
:100E1000ACF102002B44A3EB0803A4B2B3FBFEFC2D
:100E20000EFB1C330CFB07F744EA0344A7424ED9E0
:100E30002C190CF1FF3304D2A74202D9ACF1020302
:100E40002C44E41B43EA0040C0E7C2F1200320FA2F
:100E500003F1954090402EFA03F303434FEA154EF9
:100E6000AFB2B1FBFEFC0EFB1C10190C0CFB07F81B
:100E700041EA0041884504FA02F422D969180CF1CC
:100E8000FF3004D2884502D9ACF102002944A1EB1D
:100E900008019BB2B1FBFEFC0EFB1C110CFB07F71B
:100EA00043EA01439F420ED9EB180CF1FF3104D203
:100EB0009F4202D9ACF102012B44DB1B41EA004105
:100EC00092E76046E3E76146F7E76046A3E76346DB
:100ED000B7E7834206D916B9002108467BE7C6E981
:100EE00000E0F9E7B3FA83F78FB9834201D3724583
:100EF00008D8BEEB020460EB030301209C461EB938
:100F0000002168E73846FAE7C6E9004CF8E7C7F180
:100F1000200CBB4022FA0CF41C432EFA0CF120FAF0
:100F20000CF3B84001434FEA14490EFA07F5B3FB3E
:100F3000F9F81FFA84FE09FB18300B0C08FB0EFAB7
:100F400043EA00439A4502FA07F240D9E31808F150
:100F5000FF3004D29A4502D9A8F102002344A3EB42
:100F60000A0389B2B3FBF9F809FB183308FB0EFE3C
:100F700041EA03418E452CD9611808F1FF3304D2B0
:100F80008E4502D9A8F10203214443EA0040A0FBA8
:100F90000298A1EB0E014145CE46434602D306D14D
:100FA0004D4504D2B9EB020E68EB04030138002E64
:100FB000A6D0B5EB0E0261EB030101FA0CFC22FA9C
:100FC00007F34CEA0303F940C6E9003198E74046CD
:100FD000C5E74346D9E7000030B583B0044614485E
:100FE0004DF066FAE8B1054657F0B5FBAB681B69F2
:100FF0006A46302128469847DDED007AB8EEE76B67
:10100000DDED017AB8EEE75B9FED074B85EE047BE3
:1010100037EE067BB7EEC77B84ED007A002003B085
:1010200030BD6FF00500FAE70000000080842E411B
:10103000BC0E0708000000009FED1D7BB4EEC70B3F
:10104000F1EE10FA26D49FED1C7BB4EEC70BF1EE47
:1010500010FA22DCFDEEC07BB8EEE76B30EE460BFB
:101060009FED176B20EE060B9FED116BB4EEC60BD8
:10107000F1EE10FA14D49FED106BB4EEC60BF1EE46
:1010800010FA10DCC0ED007ABDEEC00B80ED010A55
:10109000002070476FF0210070476FF0210070470B
:1010A0006FF0210070476FF021007047AFF30080B0
:1010B000000000000000E0C10000C0FFFFFFDF41B2
:1010C0000000000080842E41F0B585B000AF0446DA
:1010D0000D460822B9189C480FF04CFD002865D039
:1010E0009A4B1B6813F0070F5ED06E4600233B71CE
:1010F00002237B7188B0EC461CF110022CD00E212B
:10110000131E18BF012308460429D4BF4FF0000E58
:1011100003F0010EBEF1000F02D08D49CCF814107F
:1011200000213970022179700828D4BF002303F010
:10113000010313B1844BCCF8183082B10CF11C03BD
:10114000002101290BD801F1100EBE441EF810EC4D
:1011500003F801EB0131F4E76FF00041D0E70D280F
:1011600042DD0E234AB10321397100217971B97131
:101170000121F9717868CCF8100000216FF30001AB
:101180006FF341016FF382016FF3C501012060F33A
:101190008811C3F30A0363F353216FF31F51002334
:1011A0006A481FF035FDB546002323703B7A237053
:1011B00010F0E4FA20281AD803B2002B55D00138D9
:1011C0001F2852D8DFE800F0B4B151AE515151ABF5
:1011D00051515151515151A85151515151515151A8
:1011E00051515151515151A56FF01B03BAE780285D
:1011F00002D0B0F5807F36D10822B91855480FF0DB
:10120000B9FC002867D0514B1B6813F0070F60D062
:101210006E4600233B7102237B7188B06C4614F14B
:10122000100225D00E21131E18BF012308460429E1
:10123000D4BF4FF0000C03F0010CBCF1000F01D043
:101240004349616100213970022179700828D4BFB7
:10125000002303F001030BB13E4BA361AAB104F1DB
:101260001C0300210FE04028C6D01437BD46F0BD56
:101270006FF00041D7E701F1100CBC441CF810CC12
:1012800003F801CB01310129F5D90D283EDD0E23EC
:1012900042B10321397100217971B9710121F971CC
:1012A0007868206100216FF300016FF341016FF353
:1012B00082016FF3C501012060F38811C3F30A03B3
:1012C00063F353216FF31F51002320481FF0A0FC4C
:1012D000B546214B2B60D7ED027AB8EEE77BD7ED10
:1012E000036AB8EEE66B9FED144B86EE045B37EEB7
:1012F000057BB7EEC77BB7EEC77A9FED116B27EE84
:10130000067BB7EEC77B85ED007AAEE76FF01B0377
:10131000BEE7114B2B60A8E70F4B2B60A5E70E4BE8
:101320002B60A2E70C4B2B609FE70B4B2B609CE7DD
:10133000094B2B6099E700BF0000000080842E411C
:10134000C74B378941845840BC130708281C002428
:10135000C4130708EC13070800004843000000000E
:10136000B0B590B000AF02294DD0092900F08780B8
:10137000674B1B6803F00703022B51D96C4688B0FA
:10138000EC461CF1100200F0B7804FF00C0E131E5B
:1013900018BF01237046BEF1040FD4BF002503F02F
:1013A000010515B15B4DCCF814500828D4BF0023BB
:1013B00003F001030BB1CCF818100B2840F39F8009
:1013C0000C2342B10321397200217972B972F9728A
:1013D000B868CCF8100000216FF300016FF34101F1
:1013E0006FF382016FF3C501032060F38811C3F32B
:1013F0000A0363F353216FF31F51002344481FF086
:1014000007FCA5460CE0424B1B6803F00703022BC8
:1014100009D807F108000AF021FC3B7A012B23D000
:101420004037BD46B0BD3C4BFB6302233B720023FB
:101430007B72BB72FB72BA68BA63194663F3000130
:1014400063F3410163F3820163F3C501032262F395
:101450008811082262F3532163F31F5107F1380208
:101460002B481FF0D5FBD4E700200BF0B1FA07F1B1
:1014700008000AF0F3FB3B7A012BF8D0D0E70023F9
:10148000BB60FB603B617B61BB61FB613B627B627C
:1014900007F108000FF054FB204907F10800FEF7A0
:1014A00083FF30B11E4907F10800FEF77DFF0028D9
:1014B000B6D1391DF81CFFF707FE97ED017AB7EE9C
:1014C000C77A9FED116B87EE060BB7EEC00B0CF0E1
:1014D00055FC144C4FF0FF324FF0FF3320464DF0D7
:1014E000BFFD114B01221A7020464DF091FD0F4BAC
:1014F00018684EF0B5F893E76FF0004E47E76FF0CD
:101500001B035EE7AFF30080C74B37894184584027
:10151000281C00242CC307086C120708BC130708FA
:10152000EC130708AC430024EE9A0124584300242E
:1015300030B59DB00BF038FF022801D01DB030BD92
:1015400000241494159416941794189419941A94CA
:10155000ADF86C4021462C4B58686BF0BAF80BF094
:10156000ABFB05461290139428480FF0BDFB0FF01B
:1015700093FC14AA12A9806C57F02BFB012114A82C
:101580000CF0F6F8022122480CF0F2F81E22214657
:1015900014A84FF0D5FA75B1012D16D024220021E0
:1015A0000DEB02004FF0CCFA09A80AF0ABF809A83D
:1015B0000CF00CFCC2E7174A14AB07CA03C31A802D
:1015C000032114A80CF0D4F8E8E702A80BF03CFBC8
:1015D0009DED077AB7EEC77A9FED096B27EE067B84
:1015E0008DED007B0C4B1E22002114A84FF098FBC0
:1015F000032114A80CF0BCF8D0E700BFAFF30080C3
:10160000DB8AFD65F764244050440024BC130708BE
:10161000F04300244C23070858230708000000006B
:1016200070B582B005460E46254B1B683BB11C6861
:1016300004B113B100218C4627E01C46FAE71C4692
:10164000F8E793F82020AA4223D16946D86957F0D9
:1016500026F9844698B9DDED007AB8EEE77BDDED3A
:10166000016AB8EEE66B9FED144B86EE045B37EE35
:10167000057BB7EEC77B86ED007A012109E04FF0CC
:10168000FF3C10E02246234614465BB19A880E2A9E
:10169000D7D0002CF6D02268002AF4D0002CF2D14A
:1016A0002246F0E711B1604602B070BD00233360FE
:1016B0004FF0FF3CF7E700BF0000000080842E41A0
:1016C000A448002400000000F0B583B007462A4B70
:1016D0001D6835B12C6804B10DB1002139E02C46EC
:1016E000FBE72C46F9E70C2101204EF05FFD064692
:1016F00020B36946E86957F0D2F8014608BB95F86F
:1017000020303371DDED007AB8EEE77BDDED016A64
:10171000B8EEE66B9FED164B86EE045B37EE057B6D
:10172000B7EEC77B86ED027A002333607B6813B186
:101730001E607E6012E07E603E600FE06FF00B0185
:1017400001E04FF0FF31084603B0F0BD23462546C7
:101750001C46002DF7D0AB880E2BC4D0002CF5D042
:101760002368002BF3D0002CF1D12346EFE700BF14
:101770000000000080842E41A448002400000000E6
:1017800070B582B005460E46254B1B683BB11C6800
:1017900004B113B100218C4627E01C46FAE71C4631
:1017A000F8E793F82020AA4223D16946D86957F078
:1017B00087F8844698B9DDED007AB8EEE77BDDED79
:1017C000016AB8EEE66B9FED144B86EE045B37EED4
:1017D000057BB7EEC77B86ED007A012109E04FF06B
:1017E000FF3C10E02246234614465BB19A880D2A3E
:1017F000D7D0002CF6D02268002AF4D0002CF2D1E9
:101800002246F0E711B1604602B070BD002333609C
:101810004FF0FF3CF7E700BF0000000080842E413E
:10182000A448002400000000F0B583B007462A4B0E
:101830001D6835B12C6804B10DB1002139E02C468A
:10184000FBE72C46F9E70C2101204EF0AFFC0646E1
:1018500020B36946E86957F033F8014608BB95F8AC
:1018600020303371DDED007AB8EEE77BDDED016A03
:10187000B8EEE66B9FED164B86EE045B37EE057B0C
:10188000B7EEC77B86ED027A002333607B6813B125
:101890001E607E6012E07E603E600FE06FF00B0124
:1018A00001E04FF0FF31084603B0F0BD2346254666
:1018B0001C46002DF7D0AB880D2BC4D0002CF5D0E2
:1018C0002368002BF3D0002CF1D12346EFE700BFB3
:1018D0000000000080842E41A44800240000000085
:1018E0002DE9F04786B007468A4691469846384B20
:1018F0001D683DB12C6804B115B10022114647E0C6
:101900002C46FAE72C46F8E795F82030BB4243D145
:101910006946E86908F04AFC014698BBDDED007AAB
:10192000B8EEE77BDDED016AB8EEE65B9FED266B76
:1019300085EE064B37EE047BB7EEC77B8AED007A67
:10194000DDED027AB8EEE77BDDED035AB8EEE55B3C
:1019500085EE064B37EE047BB7EEC77B89ED007A48
:10196000DDED047AB8EEE77BDDED055AB8EEE55B18
:1019700085EE064B37EE047BB7EEC77B88ED007A29
:10198000012209E04FF0FF3110E02646254634469B
:101990005DB1AE88032EB7D0002CF6D02668002E9D
:1019A000F4D0002CF2D12646F0E71AB1084606B072
:1019B000BDE8F0870023CAF80030C9F80030C8F845
:1019C00000304FF0FF31F1E70000000080842E412D
:1019D000A44800240000000070B58AB0054623F03A
:1019E00021F806466A48FFF76FFE002840D1012D16
:1019F00007D1674B1A68D2B11468ECB1E2B914464A
:101A00001AE0644A032130465BF0DBF8F1E792ED1F
:101A1000027AB7EEC77A9FED5C6B27EE067B8DED01
:101A2000007B5D4A032130465BF0CBF817E014469B
:101A300002E0234622461C46D2B1012DE7D013799D
:101A400092ED027AB7EEC77A9FED4F6B27EE067BD9
:101A50008DED007B514A032130465BF0B2F8002C3B
:101A6000E7D02368002BE5D0002CE3D12346E1E743
:101A7000474857F04DF84A48FFF7D6FE002838D1BE
:101A8000012D07D1464B1A68B2B11468CCB1C2B966
:101A9000144616E0434A032130465BF092F8F1E722
:101AA00092ED027AB7EEC77A8DED007B3A4A0321B8
:101AB00030465BF086F813E0144602E023462246E7
:101AC0001C46B2B1012DEBD0137992ED027AB7EE3C
:101AD000C77A8DED007B344A032130465BF071F804
:101AE000002CEBD02368002BE9D0002CE7D1234653
:101AF000E5E72B4857F030F807AB08AA09A92B48AF
:101B00000078FFF7EDFE012D1FD09DED077AB7EEAF
:101B1000C77A8DED047B9DED087AB7EEC77A8DED1F
:101B2000027B9DED097AB7EEC77A8DED007B204AE6
:101B3000032130465BF045F81E4A082130465BF031
:101B400040F8012D19D00AB070BD9DED077AB7EEAF
:101B5000C77A8DED047B9DED087AB7EEC77A8DEDDF
:101B6000027B9DED097AB7EEC77A8DED007B124AB4
:101B7000032130465BF025F8E3E7104A03213046A5
:101B80005BF01FF8DFE700BFDB8AFD65F7642440E8
:101B90008C49002498750708A4750708AC750708D8
:101BA00084490024CC75070880750708FB9A012436
:101BB000F07507081C760708DC750708F49B070812
:101BC00070B58CB0054622F02DFF06466C48FFF735
:101BD0007BFD002840D1012D07D1694B1A68D2B195
:101BE0001468ECB1E2B914461AE0664A03213046A3
:101BF0005AF0E7FFF1E792ED027AB7EEC77A9FED70
:101C00005E6B27EE067B8DED007B5F4A032130463D
:101C10005AF0D7FF17E0144602E0234622461C463E
:101C2000D2B1012DE7D0137992ED027AB7EEC77ADF
:101C30009FED516B27EE067B8DED007B534A032110
:101C400030465AF0BEFF002CE7D02368002BE5D0C9
:101C5000002CE3D12346E1E7494856F059FF4C48B0
:101C6000FFF7E2FD002838D1012D07D1484B1A6853
:101C7000B2B11468CCB1C2B9144616E0454A03218A
:101C800030465AF09EFFF1E792ED027AB7EEC77A3E
:101C90008DED007B3C4A032130465AF092FF13E061
:101CA000144602E0234622461C46B2B1012DEBD079
:101CB000137992ED027AB7EEC77A8DED007B364A42
:101CC000032130465AF07DFF002CEBD02368002B17
:101CD000E9D0002CE7D12346E5E72D4856F03CFF3C
:101CE00005A80AF0B1FF012D25D0059B0093079BA5
:101CF0002A4A032130465AF064FF09F0A7FC012864
:101D000022D028B303A806F0C9FB02A806F0ACFC59
:101D1000039B029A9B1A002BB8BF5B42012D1BD07C
:101D20000093049B1E4A032130465AF04AFF012DBE
:101D30001AD00CB070BD059B0093079B194A032174
:101D400030465AF03EFFD8E704A806F0F5FBD9E785
:101D500004A806F055FBD5E70093049B124A032123
:101D600030465AF02EFFE2E7104A032130465AF07F
:101D700028FFDEE7AFF30080DB8AFD65F7642440CF
:101D8000A449002498750708A4750708AC750708CE
:101D90009C490024CC75070880750708EC87070864
:101DA00014880708E48707080C880708F49B0708CD
:101DB00010B590B0F8B1284C20601CF0D9FB226817
:101DC000264B19689FED227B8DED067B0023049343
:101DD00001200390029301910092214B4FF4806205
:101DE000204921486DF091F9204B186020494CF0B2
:101DF0000FFF10B010BD1F4B1B6813F0070F02D16F
:101E00004FF0FF30F5E71C4B0F9302238DF8243081
:101E100000238DF825308DF826308DF82730099A6B
:101E20000E92194663F3000163F3410163F38201EB
:101E300063F3C501012262F38811082262F3532182
:101E400063F31F510EAA0B481EF0E2FED8E700BF55
:101E50000000000000000000985400249454002466
:101E6000779B050800FB0124982900246C5400246A
:101E7000A0980708C81C0024A898070800000000C4
:101E80002DE9F04F8FB00B900C4615466DF028FDF4
:101E90000022431880F0858013444F4FA7FB032C8A
:101EA0002CF0030202EB9C029B1AC01A61F10002A3
:101EB0004FF0CC3100FB01F107FB0211A0FB07033F
:101EC0001944400840EAC1704F088046012C6AD08E
:101ED0006C6821464148FEF767FA28B12146404820
:101EE000FEF762FA002867D139A3D3E90023404600
:101EF0003946FEF7F1FD0C900E4635A3D3E90023D9
:101F000040463946FEF7E8FD15461C46354A002393
:101F100028462146FEF7E0FD07460D91314A002391
:101F200028462146FEF7D8FD15461C464EF660228F
:101F3000002328462146FEF7CFFD814688464EF60F
:101F40006022002328462146FEF7C6FD15461C46A2
:101F50004FF47A72002328462146FEF7BDFD8346E2
:101F60008A464FF47A72002328462146FEF7B4FDD4
:101F7000CDE90823CDF818B0CDF81CA0CDF810900D
:101F8000CDF8148002970D9B03930C9B0093019650
:101F9000154A08210B985AF014FE00200FB0BDE836
:101FA000F08F012278E700900197104A08210B98E2
:101FB0005AF007FE0020F1E723460D4A01210B9855
:101FC0005AF0FFFD6FF00400E8E700BFAFF30080B8
:101FD000005C260500000000CDCCCCCC48A707084B
:101FE0004CA7070880EE360070A7070834A707083B
:101FF00058A70708000000002DE9F04F85B00646FD
:102000000F461546984683685B6802AA98470028E1
:102010002FDB029CDDF80C90A5FB04AB05FB09BB94
:1020200019A3D3E9002350465946FEF7A5FD0546FE
:102030004FF0FF335345164B73EB0B031CD3A8FB38
:1020400004A408FB094410A3D3E900235046214609
:10205000FEF792FD03464FF0FF3252450C4AA24173
:102060000DD3BDF8382000922A46394630466BF031
:1020700052FE05B0BDE8F08F6FF08500F9E76FF014
:102080008500F6E7AFF3008000CA9A3B000000002D
:10209000FFC99A3B00000000DFED097A20EE270A15
:1020A000B7EEC00A9FED046B80EE067BBCEEC77BEB
:1020B00017EE103A98B270476666666666660A4022
:1020C00000008045000000002DE9F04182B000AF23
:1020D0000669B7EEC07A9FED506BB4EEC67BF1EEA9
:1020E00010FA00F19080F3EE086AB4EEE60AF1EE21
:1020F00010FA00F38B809FED486B37EE467B9FED27
:10210000486B87EE060BB7EEC00BFFF7C5FF044622
:1021100045486CF0DAFEF0B1434DD5F80880D8F8A8
:1021200000304249284698474FF0FF324FF0FF33C6
:1021300030464CF095FFD8F804302246012128465D
:102140009847044678B930464CF062FF204608377D
:10215000BD46BDE8F081344B1968354857F004FEA0
:102160004FF0FF34F2E7334B1B6813F0070FEAD050
:102170006D4688B0694611F110023ED04FF00C0C4C
:10218000131E18BF01236046BCF1040FD4BF4FF0EB
:10219000000E03F0010EBEF1000F03D0DFF898C06F
:1021A000C1F814C00828D4BF002303F0010303B111
:1021B0008C610B2824DD0C233AB1032038710020F8
:1021C0007871B871F8717868086100216FF30001C7
:1021D0006FF341016FF382016FF3C501012060F3DA
:1021E0008811C3F30A0363F353216FF31F510023D4
:1021F00010481EF00DFDAD46A5E76FF0004CBFE79F
:102200006FF01B03D8E76FF015049FE76FF015041C
:102210009CE700BFAFF30080EC51B81E856B2040F7
:10222000BA490C022B870D40C0010708882F080807
:10223000A02E0808101D0024BC2E08080000000075
:102240002DE9F04F85B006460F461546984683683F
:102250005B6802AA984700282FDB029CDDF80C90EF
:10226000A5FB04AB05FB09BB19A3D3E9002350462A
:102270005946FEF781FC05464FF0FF335345164B98
:1022800073EB0B031CD3A8FB04A408FB094410A3A5
:10229000D3E9002350462146FEF76EFC03464FF07B
:1022A000FF3252450C4AA2410DD3BDF838200092AE
:1022B0002A46394630466BF0FEFD05B0BDE8F08F8A
:1022C0006FF08500F9E76FF08500F6E7AFF3008067
:1022D00000CA9A3B00000000FFC99A3B00000000C2
:1022E0002DE9F04F85B006460F461546984683689F
:1022F0005B6802AA984700282FDB029CDDF80C904F
:10230000A5FB04AB05FB09BB19A3D3E90023504689
:102310005946FEF731FC05464FF0FF335345164B47
:1023200073EB0B031CD3A8FB04A408FB094410A304
:10233000D3E9002350462146FEF71EFC03464FF02A
:10234000FF3252450C4AA2410DD3BDF8382000920D
:102350002A46394630466BF03BFE05B0BDE8F08FAB
:102360006FF08500F9E76FF08500F6E7AFF30080C6
:1023700000CA9A3B00000000FFC99A3B0000000021
:102380002DE9F04F2DED028B89B000AF0C463A617C
:10239000BB4B5B5C012B40F08685BA4B1B6803F09E
:1023A0000703022B3FD96D4688B0694611F1100230
:1023B0003ED00C26131E18BF01233046042ED4BF76
:1023C0004FF0000C03F0010CBCF1000F01D0AE4E39
:1023D0004E610828D4BF002303F0010303B18C61D0
:1023E0000B2828DD0C233AB10320387700207877BA
:1023F000B877F877F869086100216FF300016FF38F
:1024000041016FF382016FF3C501032060F388116E
:10241000C3F30A0363F353216FF31F510023994859
:102420001EF0F6FBAD46994B195D0B46002206E007
:102430006FF00046BEE76FF01B03D4E70132914214
:102440000ADDC4EBC4001044914D55F82000B0F1F2
:10245000804FF3D3013BF1E78E4A1355DBB23A6963
:102460001360884A126802F00702022A50D96D46AA
:1024700088B06E4616F1100250D04FF0100E101EAC
:1024800018BF0120F446BEF1040FD4BF4FF000087E
:1024900000F00108B8F1000F03D0DFF804E2C6F83D
:1024A00014E0BCF1080FD4BF4FF0000E00F0010E95
:1024B000BEF1000F00D0B161BCF10C0FD4BF002001
:1024C00000F0010000B1F361BCF10F0F29DD102312
:1024D0003AB10421397700217977B977F977F8692A
:1024E000306100216FF300016FF341016FF382014E
:1024F0006FF3C501032060F38811C3F30A0363F38C
:1025000053216FF31F5100235E481EF081FBAD463F
:10251000DFED618A0025D7F814801EE16FF0004ED0
:10252000ADE76FF01B03D3E7681C07EE902AB8EE07
:10253000E77B9FED4D3B87EE034B9FED4D6B34EEFC
:10254000064B07EE903AB8EEE77B87EE035B35EE7D
:10255000065BB7EEC82A9FED483B82EE037B37EE61
:10256000067B6E461C230C2213F0070F07D108329E
:10257000083313F0070F05D004320433F9E70432AF
:102580000433F1E70832083313F0070F02D00432A6
:102590000433F9E702F108010B461F3222F007026B
:1025A000ADEB020D6A4629B102F1100E032918D8CD
:1025B0006FF01B036FF3000B6FF3410B6FF3820B94
:1025C0006FF3C50B032161F3881B63F3532B6FF388
:1025D0001F5B1032002359462A481EF019FBB546EE
:1025E000F4E0BEF1000C18BF4FF0010C0429D4BF79
:1025F00000230CF001030BB1284B53610829D4BF11
:1026000000230CF0010303B190611C200C237861BE
:1026100010F0070F0ED1FB608B42ACBF00200CF016
:10262000010010B1734483ED004BF86808307B69FA
:10263000083304E004330430E9E7043004337B61F9
:1026400013F0070FF9D1F8608842ACBF00230CF0FB
:10265000010313B1704480ED005BFB6808337869B7
:10266000083021E0AFF300800000000000408F4000
:1026700000000000000000000000000080842E41E7
:10268000909901240C1D00245839080898990124B8
:102690009C9901249499012400000000B039080895
:1026A000903908080433043010F0070FFAD11846A7
:1026B0008B42ACBF4FF0000C0CF0010CBCF1000FD2
:1026C00002D0734483ED007B083081420EDB034669
:1026D000BEF1000F3FF46EAFC0F3870038770021E2
:1026E0007977B977F977F869106163E76FF01B03C1
:1026F000EEE7BD49C4EBC4032B4401EB83025288CF
:10270000C2F30912322000FB02F27A6151F8232051
:10271000C2F3892200FB02F231F82360C6F30906F6
:1027200006EB86067600B14B1B6803F00703022B0D
:1027300056D87B6906FB03F3AD4A82FB0312DB1715
:10274000C3EBA25307EE903AF8EEE77AF4EEE78A8D
:10275000F1EE10FA40F24C830135A64B1B5DAB4203
:1027600040F34983C4EBC4022A449F4B03EB82032A
:10277000DB789B09022BBCD0032B00F00982012BD4
:1027800000F0F7809849134651F82220C2F38922BD
:10279000322000FB02F231F82330C3F3090303EBCC
:1027A00083035B0003FB02F108EE101AB8EEC88A3F
:1027B000691C3E6906EBC10046F8312043608B4935
:1027C000096801F0070102293FF6AEAEF4EEC88AAF
:1027D000F1EE10FAC0D8DFED887AC8EE278ABBE7A1
:1027E000681C07EE902AB8EEE77B9FED7B6B87EEC7
:1027F000063B9FED7B7B33EE073BD7ED055AB8EEEA
:10280000E54B84EE065B35EE074B05EE906AB8EEBD
:10281000E52B82EE065B35EE075BC7F80CD01C2378
:102820000C2213F0070F07D10832083313F0070FFB
:1028300005D004320433F9E704320433F1E70832F7
:10284000083313F0070F02D004320433F9E702F122
:1028500008010B461F3222F00702ADEB020D6A465B
:1028600029B102F1100E032919D86FF01B036FF381
:10287000000A6FF3410A6FF3820A6FF3C50A03215E
:1028800061F3881A63F3532A6FF31F5A103200233F
:10289000514656481EF0BCF9D7F80CD049E7BEF1B6
:1028A000000318BF0123BB600429D4BF002303F039
:1028B00001030BB1514B5361BB680829D4BF0023FE
:1028C00003F0010303B190611C200C23786010F029
:1028D000070F0FD19C46B8688B42ACBF002000F0B8
:1028E000010010B1734483ED003B0CF1080C7868D3
:1028F000083005E004330430E8E70CF1040C043040
:10290000034610F0070FF8D1C7F804C0B8688C452B
:10291000ACBF002000F0010010B1F4448CED004B7E
:1029200078680830083301E00430043313F0070FEF
:10293000FAD17860BB688842ACBF002303F0010382
:1029400013B1704480ED005B7868083081420DDB84
:102950000346BEF1000F8AD0C0F38700387700210C
:102960007977B977F977F869106180E76FF01B0321
:10297000EFE71D48C4EBC4032B4400EB83025288ED
:10298000C2F30912322606FB02F250F82310C1F3FB
:10299000892106FB01F130F82330C3F30903FA2043
:1029A00000FB03F307EE903AB8EEE78A0F4B1B6883
:1029B00003F00703022B25D89FED117AC8EE077AA2
:1029C000F4EEE87AF1EE10FAFFF6C6AEF0EE678AA2
:1029D000C2E600BFAFF300800000000000408F405F
:1029E00000000000000000009C9901240C1D002440
:1029F0006BCA5F6B9899012400247449E439080874
:102A000000007A44681C07EE901AB8EEE77B9FED51
:102A1000C23B87EE035B9FEDC24B35EE045B07EED6
:102A2000902AB8EEE77B87EE036B36EE046BDFEDA2
:102A3000BE7A88EE277ADFEDBD7A37EE277A6E46CA
:102A40001C230C2213F0070F07D10832083313F0B0
:102A5000070F05D004320433F9E704320433F1E7F9
:102A60000832083313F0070F02D004320433F9E7B9
:102A700002F108010B461F3222F00702ADEB020DF6
:102A80006A4629B102F1100E032918D86FF01B0312
:102A90006FF300096FF341096FF382096FF3C50902
:102AA000032161F3881963F353296FF31F5910321F
:102AB000002349469E481EF0ABF8B5467CE7BEF1C0
:102AC000000C18BF4FF0010C0429D4BF00230CF0F8
:102AD00001030BB1974B53610829D4BF00230CF0BD
:102AE000010303B190611C200C23786110F0070FE3
:102AF0000ED1FB608B42ACBF00200CF0010010B186
:102B0000734483ED005BF86808307B69083304E0A8
:102B100004330430E9E7043004337B6113F0070F1A
:102B2000F9D1F8608842ACBF00230CF0010313B167
:102B3000704480ED006BFB6808337869083001E071
:102B40000433043010F0070FFAD118468B42ACBFA3
:102B50004FF0000C0CF0010CBCF1000F04D07344DA
:102B6000B7EEC77A83ED007B083081420DDB034668
:102B7000BEF1000F8CD0C0F3870038770021797741
:102B8000B977F977F869106182E76FF01B03EFE717
:102B90006949C4EBC4032B4401EB83004288C2F3B0
:102BA00047024FF0640C0CFB02F246780CFB06F671
:102BB00011F8233003F07F03322101FB03F303FB01
:102BC00002F107EE901AF8EEE77A9FED5C7A87EE55
:102BD000878A5749096801F00701022908D8F4EEED
:102BE000C88AF1EE10FA3FF6B7ADF0EE488AB3E5C9
:102BF000681C07EE906AB8EEE77B9FED475B87EEB7
:102C0000053B9FED476B33EE063B07EE902AB8EE8F
:102C1000E77B87EE052B32EE062B07EE903AB8EEF7
:102C2000E77B87EE054B34EE064B9FED407A38EE9E
:102C3000077A6E461C230C2213F0070F07D10832C7
:102C4000083313F0070F05D004320433F9E70432D8
:102C50000433F1E70832083313F0070F02D00432CF
:102C60000433F9E70832083313F0070F02D00432B7
:102C70000433F9E702F108010B461F3222F0070284
:102C8000ADEB020D6A4629B102F1100E032918D8E6
:102C90006FF01B036FF300086FF341086FF38208B6
:102CA0006FF3C508032161F3881863F353286FF3AA
:102CB0001F581032002341461D481DF0A9FFB5469C
:102CC0008DE7BEF1000C18BF4FF0010C0429D4BFF2
:102CD00000230CF001030BB1194B53610829D4BF39
:102CE00000230CF0010303B190611C200C237861D8
:102CF00010F0070F26D1FB608B42ACBF00200CF018
:102D0000010010B1734483ED003BF86808307B6923
:102D100008331CE0AFF300800000000000408F404B
:102D2000000000000000000000007A4400000000E5
:102D30000C1D0024283A08089C9901240024744999
:102D40006C3A080804330430D1E7043004337B6163
:102D500013F0070FF9D1F8608842ACBF00230CF0E4
:102D6000010313B1704480ED002BFB6808337869D0
:102D7000083001E004330430786110F0070FF9D116
:102D8000FB608B42ACBF00200CF0010010B173441B
:102D900083ED004BFB6808337869083001E00433A9
:102DA000043010F0070FFAD118468B42ACBF4FF039
:102DB000000C0CF0010CBCF1000F04D07344B7EE12
:102DC000C77A83ED007B083081420EDB0346BEF1FB
:102DD000000F3FF45FAFC0F38700387700217977A9
:102DE000B977F977F869106154E76FF01B03EEE7E4
:102DF000F0EE678AB0E4544B1B6803F00703022B24
:102E000040F2A080DFED517A38EEA77A6C4688B0A8
:102E1000694611F1100240D01025131E18BF01237E
:102E20002846042DD4BF002603F001060EB1484DFC
:102E30004D610828D4BF002303F001031BB1B7EE96
:102E4000C77A81ED067B0F282ADD10233AB10420D2
:102E5000387700207877B877F877F869086100212B
:102E60006FF300016FF341016FF382016FF3C5014E
:102E7000032060F38811C3F30A0363F353216FF354
:102E80001F51002330481DF0C3FEA5460020243703
:102E9000BD46BDEC028BBDE8F08F6FF00045BCE78E
:102EA0006FF01B03D2E7284B1B6803F00703022BCC
:102EB0003FD96D4688B06B4613F110023CD00C2010
:102EC000111E18BF012106460428D4BF4FF0000C84
:102ED00001F0010CBCF1000F01D01E485861082E12
:102EE000D4BF002101F0010101B19C610B2E26DD50
:102EF0000C243AB10321397700217977B977F97732
:102F0000F869186100216FF300016FF341016FF35D
:102F100082016FF3C501032363F38811C4F30A042C
:102F200064F353216FF31F51002307481DF070FE17
:102F3000AD464FF0FF30AAE76FF00040C0E76FF0FA
:102F40001B04D6E70020A2E70C1D002400000000AF
:102F5000C03A0808D03A080830B589B004460C9D3C
:102F60000020C4F8F800C4F8FC0004F58070C4F830
:102F70000001C4F8040104F58470C4F80801C4F821
:102F80000C01EDB12879E8B90120C4F810019FEDDA
:102F9000107B8DED067B002004900393029001903E
:102FA00000940D4B20466CF0B0F825B1296811B1A2
:102FB00020464BF02DFE20466CF097F809B030BD4E
:102FC0000120E2E740F20110DFE700BFAFF300802D
:102FD000FFFFFFFFFFFFFFFFDDF10408000000001F
:102FE00010B582B00446002304320ED27BB99FEDA7
:102FF0000A7B8DED007B41F0040120466BF08EFFD3
:1030000008B140F8044B02B010BD0123EEE70020E8
:10301000F9E700BFAFF300800000000000000000EF
:103020002DE9F04F1C462DED0A8BB34B1B6897B072
:103030000025824618468B46079208931295FDF7A5
:103040003FF900220023CDE9042307465946119198
:10305000884611F8013B2D2B5ED801A252F823F0CF
:1030600031320008193100081931000819310008FF
:103070001931000819310008193100081931000808
:10308000193100084F3000084F3000084F30000859
:103090004F3000084F30000819310008193100087E
:1030A00019310008193100081931000819310008D8
:1030B00019310008193100081931000819310008C8
:1030C00019310008193100081931000819310008B8
:1030D00019310008193100081931000819310008A8
:1030E0004F30000819310008193100081931000863
:1030F0001931000819310008193100081931000888
:103100001931000819310008193100082738000862
:10311000193100083F38000800220992302B00F0D6
:10312000948000220A922F2B1C4640F2AF844FF06D
:10313000000940464E464D4613E00130082D1190DF
:10314000C8BF09EB89090478C6BF03EB4903A3F1A3
:103150003009A2F130062F2C05F10105234640F37A
:10316000B68006EB8602392C03EB4202E5DD0899B6
:103170003A464EF0CFFD034600287BD11199084610
:1031800039441191C45D002D40F00585302C40F08C
:10319000EB840A461346013211921478302CF9D090
:1031A000C1F101010B44A4F13102082A34D8DDF841
:1031B00044800133A4F1300E0B93012544464FF0B7
:1031C000000C06EB86060EEB46060023621C1192ED
:1031D0006478A4F13001092900F20B83119C0133BA
:1031E0008E460029F2D0012B08BF6F1C00F03F86ED
:1031F0005F19781E03E05600A84200F03886082DBB
:1032000006EB860205F10105F5D9102DDCBF09EBAF
:1032100089094FEA4909EFE7652C40F013834FF025
:10322000000CCDF82CC001220A99194340F0F98214
:10323000079B9FED2F8B0BB1C3F800B0B0EE480B8E
:1032400017B0BDEC0A8BBDE8F08F98F8013003F0A1
:10325000DF03582B18BF424600F0D683013211928B
:103260001378302BFAD09046002B00F0A382012275
:103270000A9258E70023AC460B931A46652C41D0BE
:10328000452C3FD00027002D40F089800A99194332
:1032900040F09082002ACBD1692C00F0198400F311
:1032A0008E83492C00F014844E2CC1D1134911A8EF
:1032B00051F014FC0028BBD0119B1B78282B00F088
:1032C000D9840F4804F038FEB0EE408B74E20899C0
:1032D0003A464EF01FFD03460028CBD111990B93BF
:1032E000C8191190CC5DAC4673E700BFAFF3008006
:1032F000000000000000000040440808083F0808E3
:103300006CA80708002D8FD0DDF844B00BF1010147
:1033100011919BF801402B2C00F06D822D2C00F0B8
:103320005C8200210891A4F13007092F00F25D8230
:10333000302C11990AD1013111910C78302CFAD02E
:10334000A4F1310008289DD8A4F13007481C119041
:103350004C782F2C40F3AC838646CDF8308008E0C3
:10336000013011909EF801402F2CA8F1300706DDA6
:10337000864607EB8708392C04EB4808F0DD401A35
:103380000828DDF8308040F3938344F61F670899DE
:1033900000293FF478AF7F42002D3FF477AF07EE6E
:1033A000906A0B9BB8EE677BFB1ABCF1000F08BF5D
:1033B000AC46102D0A932B46A8BF1023092D8DED86
:1033C000047B0FDD4C4A02EBC30212ED125B06EEEA
:1033D000909A0F2DB8EE666BA7EE056B8DED046B22
:1033E00000F393810A9A002A00F018820A9A40F3A7
:1033F0002E82162A40F362830A99C5F125028A4279
:1034000080F2B583EB1A0B4413F00F010AD03A4A4D
:1034100002EBC1029DED046B92ED007B27EE067B73
:103420008DED047B33F00F0242D0B2F59A7F00F3AA
:103430002383102A4FEA221340F3A7842F4C9DEDDB
:10344000047B00202246014613F0010F01F1010127
:103450004FEA630304D092ED006B012027EE067B58
:10346000012B02F10802EFD108B18DED047B059B21
:10347000A3F15473059304EBC1049DED046B94ED2B
:10348000007B1F4B27EE067B17EE902A1D49134049
:103490008B428DED047B00F2EF82A1F580118B420F
:1034A00040F2E483DFF860E04FF0FF33CDE9043E03
:1034B00000230893414600962B466246504651F041
:1034C00061FD8046002800F0D7820B9BDF1B0A9B22
:1034D000002BB4BF3A4600224FF0000923EAE37301
:1034E0009FED039B0B920C934C46CFE0AFF3008013
:1034F0000000C0FFFFFFDF41000D0708D80C0708E0
:103500000000F07F0000A07CFFFFEF7F991A1F29C9
:10351000A5EB010500F31882012202FA01F30D93D5
:1035200000230E932F44089B5D44AB455A461F442D
:10353000A8BF2A46BA42A8BF3A46002A03DDAD1A00
:10354000BF1AABEB020B0B9B002B00F3A781002DE6
:1035500000F3BD810A9B002B00F3EC81002F00F3E8
:10356000DE81BBF1000F08DD21465A46504651F07E
:10357000F1FE0446002800F0DB81129932465046E5
:1035800051F082FF8146002800F0D2810023C568F7
:10359000C360214651F056FF0028C0F29D83059F6D
:1035A00000F024832146484652F010F9B0EE007B2B
:1035B000B4EEC70BF1EE10FA00F25881002D40F086
:1035C000D381049B002B40F04A82C7F31303002BE6
:1035D00040F0F981B7EE007BB4EEC70BF1EE10FAC4
:1035E00000F1DD82B6EE00BB20EE0BBBB1EE4BABC3
:1035F000A548DFF8A4C207EA0001614553EC1A2B85
:1036000000F0B7810898E0B1B1F1D46F19D8B4EEE9
:10361000C9BBF1EE10FA11D8BCEECBBB1BEE103AD1
:10362000012B38BF01230BEE103AB8EE4BBB002D37
:1036300040F06382B1EE4B7B53EC172B03F1D66065
:10364000431AB0EE480B43EC1A2B0D9151F0CEFF0C
:10365000AAEE008B8DED048B18EE907A0D99089BE5
:1036600023B9894B3B40994200F0B28112995046F0
:1036700051F02EFC3146504651F02AFC214650466E
:1036800051F026FC4946504651F022FCD8F804106F
:10369000504651F0F7FB0646002800F04981D8F863
:1036A00010209DED048B0232920008F10C010C30C9
:1036B000FDF77CFAB0EE480B14AA13A9504652F05D
:1036C00025F81290002800F00B810121504651F09E
:1036D00003FD0446002800F02B81139A002AC0F253
:1036E00019810B9B0C9F02EB030B089B149DD21AB4
:1036F0002A44664B013A9A42C5F13605FFF606AFF9
:1037000001230020CDE90D300CE70A9AEB1A13448F
:10371000002B3FF779AE3FF4CBAE5B4213F00F01C5
:103720000AD05B4A02EBC1029DED046B92ED007B77
:1037300086EE077B8DED047B1B113FF4B9AE1F2B8A
:1037400035DC13F0100218BF6A229DED047B08924D
:10375000504A0021DC0704D592ED006B012127EED1
:10376000067B5B1002F10802F4D109B18DED047BF8
:10377000089BA3B1DDE90401C1F30A52C2F16B0356
:10378000002B0ADD1F2B40F31A830020342B0490FA
:1037900040F31D834FF05C7305936A2308939DEDFE
:1037A000047BB5EE407BF1EE10FA7FF483AE22236A
:1037B000CAF800309FED328B079A0AB1119B136053
:1037C000099B002B3FF43AADB1EE488BB0EE480BAD
:1037D00017B0BDEC0A8BBDE8F08F012108910BF109
:1037E000020111919BF802409DE5CDF844B00027FD
:1037F00049E5012242E500210891F0E7149A04927C
:10380000159A03F2334322F4801242EA03530593DC
:10381000230742BF059B43F0004305939DED048BB6
:10382000CAE7002570E50023099308F10101119111
:1038300098F80130002B3FF4FBAC88466EE401237E
:103840000993F2E7452C3FF4EAAC01221EE516325B
:10385000FFF65BAF0B9BDF1B0D4B03EBC70393ED39
:10386000007B9DED046B86EE078BA5E7B6EE00BBF3
:1038700020EE0BBB002D74D1B1EE4BABB8E600BF10
:1038800000000000000000000000F07F02FCFFFFCD
:10389000000D0708B00C07080000E07F21461A461B
:1038A000504651F0FDFC0446002841D00146129AD2
:1038B000504651F03FFC00283AD00F9012995046E4
:1038C00051F006FB0F9A1292002D7FF743AE12992A
:1038D0002A46504651F03EFD129000287FF43AAE41
:1038E0009FEDB18B2223CAF800300146504651F0BB
:1038F000EFFA3146504651F0EBFA2146504651F06E
:10390000E7FA4146504651F0E3FA4946504651F035
:10391000DFFA51E70C9BDDF82CB09F1AE5E6314643
:103920003A46504651F016FD064600287FF419AE7F
:103930001298D5E731460C9A504651F0B1FC064634
:1039400000287FF40BAEF3E7C2F17F4202F57F025D
:1039500002F57B420121E23201FA02F3CDE90D13B7
:10396000E0E5B0EE4BAB43E6B7EE00ABB0EE4ABBE2
:103970003EE6A7F1547305939DED04CBB0EE4C0BDE
:103980000D9151F033FE9248A0EE0ACB1CEE907AD6
:10399000904B0D99384098428DED04CB72D918EEBA
:1039A000902A03F154739A4203D118EE103A01336E
:1039B000BED0894A4FF0FF33CDE9043256E66E2C73
:1039C0003FF474AC34E4BFEE00ABB7EE00BB0FE6DF
:1039D00051EC1B0BFDF797F9FDF750F8049B41ECF8
:1039E000170B1D43C7F313073D433BEE477B26D11F
:1039F0009FED6F6BB4EEC67BF1EE10FA7FF536AE3D
:103A00009DED048B129870E7099B019312AB029411
:103A10000093724A13AB11A9504650F06FFD10F09D
:103A2000070504463FF4C6AE062D69D1079A12B1C8
:103A300008F1010313609FED608BFFF7FFBB9FED63
:103A4000606BB4EEC67BF1EE10FAD9D49FED5E6BDD
:103A5000B4EEC67BF1EE10FA7FF708AED0E7049B18
:103A6000012BB0D1002FAED1129B184622239FED1F
:103A7000528BCAF8003038E722239FED4B8BCAF8EF
:103A8000003099E607F154770597E8E508993A463A
:103A900040464EF03FF900285DD04FF0000CE14663
:103AA00066466346CDF82CC065466246FFF7E8BB24
:103AB00044F61F618F42A8BF0F4668E4484B03EBF2
:103AC000C20393ED008B9DED047B28EE078B73E61C
:103AD000444911A851F002F800283FF4A9AB119B0A
:103AE0004149013B11A8119350F0F8FF10B9119B07
:103AF000013311939FED2C8B5EE6B0EE4B7B9BE583
:103B0000129A3AB1352114A851F092FE12995046FA
:103B100051F0DEF9013D139B042D3FF679AE01A271
:103B200052F825F0FD3700084D3B0008473B0008E0
:103B3000393B0008FD3700084FF0FF336FF00042BB
:103B4000CDE9043264E6224B059361E6149B0493AD
:103B5000159B05935CE611990B4639441191DC5D88
:103B600006468146FFF712BB0023FFF71CBB0A9BEA
:103B7000C5F10F055A1B1A4B03EBC50503EBC20336
:103B800095ED008B93ED007B9DED046B28EE068B8D
:103B900028EE078B10E6AC460B93FFF71ABBBEEE80
:103BA00000ABB6EE00BB23E5000000000000F07F94
:103BB0009535A094FFFFCF3F0000000000000000FB
:103BC0009535A094FFFFDF3F35E5AF350000E03FBE
:103BD0000000F07FFFFF9F7CFFFFEF7F203F080882
:103BE000000D0708FC3E0808003F0808DDE90DC28B
:103BF000B149C7F31303002D4FD08B4200F0C980A9
:103C000062BB049B1CEA030F2AD0B0EE480B51F0B4
:103C1000EDFC089B002B00F0F580C7F30A53C3F1BD
:103C20006B03002B40F31F811A0502F17F51002026
:103C300001F5401141EC170B129BA0EE078B9FED95
:103C40009A7B184628EE078B18EE903A18EE102A49
:103C5000134304BF2223CAF8003046E63A42D4D1C7
:103C6000129B089A1846002AE9D13EE602F15473E5
:103C700005931DE4914911A814AA50F04BFF0528A3
:103C80007FF41FAB159B43F0FF4343F4E003059320
:103C9000149B04939DED048B8EE5002B4FD1DDE941
:103CA00004010346002840F08480089B002B40F06C
:103CB000B680059B23F000473F0D3F05A7F5801711
:103CC0006FEA17536FEA035305934FF0FF330493E2
:103CD0009DED048B129808E6DDE904120D43BFD177
:103CE000C2F31303002BBBD122F000473F0D3F0569
:103CF000B7F1D66F3D46B3D9D9F814301BB9D9F80E
:103D00001030012BACDD49460122504651F022FB18
:103D10002146814651F096FB0028A1DD089B002B2F
:103D2000CCD0A5F580156FEA15536FEA03530593C0
:103D30004FF0FF3304939DED048B129B7FE7002A25
:103D400039D1049B1CEA030F8AD0B0EE480B51F026
:103D50004DFC089B002B74D0C7F30A53C3F16B03CF
:103D6000002B40F396801B0503F17F51002001F5E5
:103D7000401141EC170BA0EE478BB5EE408BF1EEF6
:103D800010FA3FF471AE129B59E74D4C0021FFF73A
:103D90006EBBDDE90401089B054603BB0346013306
:103DA0005AD0002A7FF45AAF15EA0C0F3FF458AFEF
:103DB0002BE7002AC6D03A423FF452AFC5E74FF096
:103DC000FF3202FA03F3049A1A400492E5E4C2F1C6
:103DD0004B024FF0FF3393400B400593DDE4394B2A
:103DE0003B40B3F1D46F11D9691CDAD1364A9742FE
:103DF0003FF49EAD03F580130593002304939DEDDE
:103E0000048B2DE7129838EE008B6EE5180DC0F18B
:103E10006B004FF0FF3181408D42C2D1EAE7294D5E
:103E20003D40B5F1D66F3FF67CAF1298B5F15C7F9F
:103E300003463FF604AF22239FED1D8BCAF80030E6
:103E400053E5129B38EE408BB5EE408BF1EE10FA45
:103E500018467FF44AAD08E61B4B9F423FF468AD1D
:103E600001333B40C6E7129B38EE008BE7E60B9A26
:103E7000082D1A440B9202DC3D46FFF7A2B9102F21
:103E8000DCBF09EB890901EB49093D460023FFF737
:103E90009DB938EE408BB5EE408BF1EE10FA7FF411
:103EA00072AFE1E5AFF30080000000000000503980
:103EB0000000000000000000FFFF0F000C3F08089A
:103EC000D80C07080000F07FFFFFEF7F0000000024
:103ED00010B51D4C1D4B84460A4620686146FFF70D
:103EE0009FF8B4EE400BF1EE10FAB0EE407B17D61F
:103EF000B7EEC00BDFED166AB0EEC06AB4EE666ACC
:103F0000F1EE10FA0BDDB0EEC77B9FED0D6BB4EE5A
:103F1000467BF1EE10FA02DC236822221A6010BD03
:103F200017EE903A002B0B4804DA51F07FFEB1EE09
:103F3000400A10BDBDE8104051F078BEAFF30080DC
:103F4000FFFFFFFFFFFFEF7FBC190024D4190024FF
:103F5000FFFF7F7F6CA807082DE9F04F2DED048B44
:103F6000CFB00C46CDE9060192460A9350F00EFF01
:103F7000036811931846FCF7A3F9A389109018065B
:103F800003D52369002B00F0178754460023CDE9A1
:103F90002333CDE91333CDE915330E9312930593F3
:103FA000237825AA9FED708B22929346002B00F078
:103FB0005881264604E016F8013F002B00F09D8052
:103FC000252BF8D1351B40F09B803378002B00F077
:103FD0004881002375788DF86B30049301364FF0DB
:103FE000FF399A460136A5F120035A2B00F2C4800E
:103FF000DFE813F0D802C200C200CD02C200C20046
:10400000C2006A00C200C2002A02E202C2003502F7
:104010007A02C20076025B005B005B005B005B0023
:104020005B005B005B005B00C200C200C200C2001C
:10403000C200C200C2004301C200CD01B50243016B
:1040400043014301C200C200C200C200B102C2006B
:10405000C2009302C200C200C200D801C2003902ED
:10406000C200C200A806C200C200C200C200C20054
:10407000C200C200C2004301C200CD0100024301E0
:1040800043014301A70200027F00C2000703C200F0
:10409000F802CF06E7027F00C200D8017D00CB0600
:1040A000C200C200D206C2007D00A5F1300300228A
:1040B00016F8015B02EB820203EB4202A5F130032A
:1040C000092BF5D904928EE7069F384650F05EFE24
:1040D000436815931846FCF7F3F8169005463846E2
:1040E00050F054FE83681393002D40F0B885357866
:1040F00078E735784AF0200A74E7351B00F0B18084
:10410000239B249A01332A44072BCBE900452492B0
:10411000239305DC0BF1080B059B2B44059354E717
:10412000DDE9060122AA51F03FFE80B90DF1940BA2
:10413000F2E7DDE9060122AA51F036FE002800F080
:104140008180099B1BB1099906984FF0E3FE079BFC
:104150009B895A0601F1D28205984FB0BDEC048BC1
:10416000BDE8F08FAFF30080000000000000000009
:10417000FFFFFFFFFFFFEF7F0B95002D71D00022A7
:104180008DF8D4508DF86B200123CDE90832CDE9AC
:104190000C22039391460F9235AC1AF0020302D021
:1041A0000399023103911AF0840505D1DDE9030179
:1041B0000F1A002F00F39380002A40F0D480249A35
:1041C00083B1239B1BA901330232CBF80010072BCC
:1041D0004FF0020124922393CBF8041000F3C28322
:1041E0000BF1080B802D00F0A482089BA9EB0307BC
:1041F000002F00F3E5821AF4807F40F00C82089BC8
:10420000CBF804301A44239BCBF800400133072B32
:104210002492239300F345830BF1080B1AF0040F4B
:1042200005D0DDE903135C1A002C00F3A783DDE958
:10423000041303988142ACBF5B181B180593002A36
:104240007FF477AF00232393099B1BB1099906984C
:104250004FF060FE0DF1940B34462378002B7FF471
:10426000A8AE249B002B3FF472AF079C069822AAAD
:10427000214651F099FDA3896BE70A9B0B95073303
:1042800023F00703B3EC028B1FED477BB0EEC86B46
:10429000B4EE476BF1EE10FA0A9340F3FE84B5EEEC
:1042A000C08BF1EE10FA00F1AC879DF86B20BA4C90
:1042B000BA4B2AF0800A0B994729C8BF1C46002335
:1042C000CDE90C33032109930391089199460F938B
:1042D000002A3FF462AF039B013303935DE7102F85
:1042E000DDE92321DFF8B8822BDDCDE917631995CD
:1042F0004646079DA046069C04E0103F102F0BF198
:10430000080B19DD013210311023072ACDE92321D2
:10431000CBF80060CBF80430EFDD22AA2946204616
:104320000DF1940B51F040FD00287FF40AAF103FCF
:10433000102FDDE92321E5DCDDE918354446B046E0
:10434000179ECBF8008001323944072ACBF804705D
:104350002491239200F372869DF86B200BF1080BD9
:10436000002A3FF42CAF2399249A01310DF16B0000
:104370000132CBF8000007294FF00100249223916D
:10438000CBF8040000F3E0820BF1080B18E70A9B5E
:104390000B9553F8041B8DF8D41000228DF86B2078
:1043A0000A93F1E60A9F0B9557F8044B00258DF808
:1043B0006B50002C00F0A086B9F1FF3F00F0338570
:1043C0004A4629462046FCF75BF90990002801F08F
:1043D000FA80099B0A971B1BA946089323EAE373FB
:1043E000CDE90C999DF86B200393CDF82490CDF87E
:1043F0003C906DE71AF0200F0B9500F0B7800A9BF8
:10440000073323F007031A46596852F8083B0A920B
:104410000A460029C0F2F383B9F1FF3F00F01E867F
:1044200053EA02012AF0800500F086830A2B72F11C
:10443000000180F0A28530338DF837310123AA4680
:1044400008930DF237143DE00A9B53F8042B0492B5
:10445000002A80F2F883049A0A9352420492357833
:104460004AF0040ABEE50B954AF0100515F020024B
:1044700000F0B0830A9B073323F0070319465A68FC
:1044800051F8083B0A9101200021B9F1FF3F8DF856
:104490006B1000F01B8153EA020125F0800A40F006
:1044A0001481B9F1000F40F0E285002840F0498303
:1044B00015F0010308931DBF30238DF837310DF23D
:1044C00037144EAC08999DF86B2049454FF0000316
:1044D000B8BF4946CDE90C33099303910F93F7E632
:1044E00035784AF0800A7DE5324612F8015B2A2DC4
:1044F00001F08A81A5F13003092B16464FF000091F
:104500003FF671AD16F8015B09EB890903EB490928
:10451000A5F13003092BF5D965E50B954AF0100A92
:104520001AF0200200F047830A9B073323F00703A9
:1045300019465A6851F8083B0A912AF48065002010
:10454000A2E73578682D03BF75784AF4007A013602
:104550004AF0400A46E535784AF0080A42E54AF052
:10456000100A1AF0200F0B957FF449AF0A9A1AF03F
:10457000100F52F8043B0A9240F06D831AF0400F7E
:1045800000F0658343F3C03211461BB241E7357832
:104590004AF0010A26E500BF343F0808509B07088F
:1045A0006C3F08089DF86B303578002B7FF41AAD0E
:1045B00020238DF86B3015E52B2335788DF86B3083
:1045C00010E50A9A52F8043B0A9247F63002ADF819
:1045D0006C207821B94A12924AF00205002202208A
:1045E0000B9151E71AF0200F00F046830A9B059AC1
:1045F0001B681A60D2175A600A9B04330A93344628
:104600002BE635786C2D03BF75784AF0200A013609
:104610004AF0100AE6E40B9B652B40F35581B5EE9A
:10462000408BF1EE10FA40F0E781239BA449CBF8D0
:104630000010013301320121072B24922393CBF880
:10464000041000F31A850BF1080B1C9B0E998B428A
:1046500080F2F482109B11991A44CBE90013239B3A
:1046600024920133072B239300F39A830BF1080B59
:104670000E9B5C1E002C7FF7D1AD102C239BDFF826
:10468000448240F30A854146DDE90679B0461025AB
:104690000E4605E00BF1080B103C102C40F3FA8499
:1046A00001331032072BCBE90065CDE92332F1DD70
:1046B00022AA4946384651F077FB00287FF441ADE5
:1046C000DDE923320DF1940BE6E7554601283FF46E
:1046D000ADAE02284EAC11D1129803F00F011B09A8
:1046E000415C04F8011D43EA0273120953EA020116
:1046F000F3D14EAB1B1BAA460893E3E603F0070178
:10470000DB0843EA4273D208303153EA02072046FD
:1047100004F8011DF2D1EF07EBD53029E9D03023A1
:10472000023804F8013C4EAB1B1AAA460893044613
:10473000C8E6DDE903135F1A002F7FF756AD102F8F
:10474000239BDFF8808128DD194643461796A04653
:10475000069E10251C4604E0103F102F0BF1080B9D
:1047600016DD013110320729CBE90045CDE92312CE
:10477000F2DD079922AA30460DF1940B51F014FB9B
:1047800000287FF4DEAC103F102FDDE92312E8DCB7
:104790000B46179E21464446884601333A44072B70
:1047A000CDE92332CBF80080CBF8047000F391847C
:1047B000089BA9EB0307002F0BF1080B7FF71BAD3C
:1047C000102F239BDFF8FC802ADD5946069DBB464F
:1047D0004FF010092746079C06E0ABF1100BBBF128
:1047E000100F01F1080118DD013336481032072B94
:1047F000C1E90009CDE92332EFDD22AA214628468E
:1048000051F0D2FA00287FF49CACABF1100BBBF155
:10481000100FDDE9233225A9E6DC3C465F468B46D6
:1048200001333A44072BCDE92332CBF80080CBF893
:10483000047000F3B3810BF1080BDCE4239B2048E8
:10484000CBF80000013301320120072B249223937F
:10485000CBF8040000F3DA840BF1080B002940F0D8
:104860005C840E990AF001030B433FF4D7AC109B14
:1048700011991A44CBE90013239B24920133072B8F
:10488000239300F37B850BF1080B0E99CBF80040C6
:1048900001330A44072BCDE92332CBF804107FF70C
:1048A000BBACDDE9060122AA51F07EFA00287FF4B4
:1048B00048AC249A0DF1940BB0E400BF403F0808C7
:1048C000547407085C3F08080E9B012B0BF108018C
:1048D00040F31581239BCBF80040013301320120C6
:1048E000072B24922393CBF8040000F38F811098B8
:1048F000119D01330244072BC1E90050CDE9233259
:1049000000F3908108310E98B5EE408BF1EE10FA6D
:1049100000F1FF3500F01981013301342A44072BDF
:10492000CDE923320C604D6000F3FA800831149811
:10493000486001330244072B1EA8CDE923320860EA
:10494000AFDC01F1080B69E4DDE9060122AA179347
:1049500051F02AFA00287FF4F4AB249A179B0DF14A
:10496000940B2DE4DDE9060122AA51F01DFA00287E
:104970007FF4E7AB249A0DF1940B33E4102C239BC6
:10498000DFF8AC8625DD4146DDE90679B046102525
:104990000E4604E0103C102C0BF1080B16DD013321
:1049A0001032072BCBE90065CDE92332F2DD22AAD4
:1049B000494638460DF1940B51F0F6F900287FF482
:1049C000C0AB103C102CDDE92332E8DC3146464612
:1049D000884601332244072BCBE90084CDE92332FA
:1049E0007FF725ACDDE9060122AA51F0DDF90028A8
:1049F0007FF4A7AB249A1AE41C9900297FF71EAF15
:104A00000C9F0E9B9F42A8BF1F46002F2344089374
:104A10000BDD239B01333A44072BCBE9004724925B
:104A2000239300F37E850BF1080B0C9D002FA8BF8C
:104A3000ED1B002D00F3CF810C9B1AF4806F2344F3
:104A4000984640F0F9811C9C0E9B9C4203DB1AF0B7
:104A5000010F00F07E84109B11991A44CBE90013DA
:104A6000239B24920133072B239300F39E850BF1A4
:104A7000080B0E9B1C1B089BA3EB0805A542A8BFB7
:104A80002546002D0DDD239BCBF8008001332A4401
:104A9000072BCBF804502492239300F3A1850BF14C
:104AA000080B002DA8BF641B002C7FF7B7AB102CA0
:104AB000239BDFF8808540F3F0824146DDE90679EB
:104AC000B04610250E4605E00BF1080B103C102CEB
:104AD00040F3E08201331032072BCBE90065CDE9CA
:104AE0002332F1DD22AA4946384651F05DF900280B
:104AF0007FF427ABDDE923320DF1940BE6E71AF0E2
:104B0000010F7FF4E7AE239BCBF800400133013265
:104B10000120072B24922393CBF804007FF707AFE3
:104B2000DDE9060122AA51F03FF900287FF409AB24
:104B3000DDE9233225A9FAE6B9F1000F7FF47BAC59
:104B4000AA46CDF820904EACBCE40E9801287FF721
:104B5000EEAE1128DFF8DC8440F31A834046DDE92D
:104B60000679B0461024064604E00831103D102DA9
:104B700040F30B8301331032072BC1E90064CDE908
:104B80002332F2DD22AA4946384651F00DF90028B9
:104B90007FF4D7AADDE9233225A9E7E7DDE906019D
:104BA00022AA51F001F900287FF4CBAA249A0DF132
:104BB000940BFFF720BB0A9951F8043B0A911AF0B5
:104BC00010017FF4BAAC1AF0400000F0F2829BB200
:104BD0000A46B2E40A9951F8043B0A9115F0100113
:104BE0000BD115F0400003D09BB20A4601204BE4E4
:104BF00015F400721CBFDBB20246012044E45B42A4
:104C000062EB420255462D2101203EE4DDE906011A
:104C100022AA51F0C9F800287FF493AADDE92332D3
:104C200025A964E6DDE9060122AA51F0BDF80028B5
:104C30007FF487AADDE9233225A964E61AF0010F83
:104C40003FF4ECAA06E535780A93FFF7CBB91AF4DE
:104C5000007F40F08783DA171146FFF7DABB139B1A
:104C60003578002B3FF4BEA91B78002B3FF4BAA97E
:104C70004AF4806AFFF7B6B91AF0100F40F0368296
:104C80001AF0400F40F074831AF4007F00F02E8277
:104C90000A9B059A1B681A70AEE4B4EE488BF1EEDD
:104CA00010FA80F13E850B9B612B00F04784412B6D
:104CB00000F0A684B9F1FF3F00F07B830B9B23F04B
:104CC0002003472B04D1B9F1000F08BF4FF00109B1
:104CD00018EE903A002B4AF48077C0F25E84B0EE72
:104CE000489B0023D046179309930B9B413B252BF0
:104CF00000F29A82DFE813F06703980298029802A4
:104D0000600364039802980298029802980298023D
:104D100098029802980298029802980298029802C3
:104D200098029802980298029802980298029802B3
:104D300098029802980298029802980298029802A3
:104D400060036403B84B0B9512931AF0200200F035
:104D5000F8800A9B073323F0070319465A6851F875
:104D6000083B0A911AF0010F0AD053EA020107D05A
:104D70000B998DF86D1030214AF0020A8DF86C10F5
:104D80002AF480650220FFF77FBB0B955546FFF79D
:104D90006DBB0B95FFF7C4BBA44B0B951293D4E7E7
:104DA000DDE9060122AA50F0FFFF00287FF4C9A91F
:104DB000249A0DF1940B5BE4069840214BF040FBE4
:104DC000079B18601861002800F09584079A40231B
:104DD0005361FFF7DAB8102D239BDFF8588240F3B8
:104DE000F3815946DDF81890B34610274646A04691
:104DF000079C04E00831103D102D40F3E1810133A0
:104E00001032072BC1E90067CDE92332F2DD22AA77
:104E10002146484650F0C8FF00287FF492A9DDE9FA
:104E2000233225A9E7E720460A97FBF749FAA94666
:104E300003460890FFF7D2BA10460D9A1796CDF8A0
:104E400060A01E465946DFF8EC91DDF84CA0169B99
:104E5000DDF83C80DDF81CB0102782B3B8F1000FFC
:104E600000F0FF8008F1FF38159AC1E90023239A6A
:104E700001321844072A2490239271DC0831089CDF
:104E80009AF80020A51B9542A8BF1546002D0CDD01
:104E9000239A01322844072AC1E90065249023920D
:104EA00000F308819AF800200831002DACBF541B94
:104EB0001446002C12DC16440D9A002ACED1B8F10B
:104EC000000FCFD1089BCDF84CA0B0469845DDE946
:104ED000176A8B46024628BF9846B4E5102C239AE1
:104EE00040F37884CDE90B39069D04E0103C102C8A
:104EF00001F1080115DD01321030072AC1E90097E0
:104F0000CDE92320F2DD22AA5946284650F04CFF75
:104F100000287FF416A9103C102CDDE9232025A9D8
:104F2000E9DCDDE90B3501322044072ACDE92320F5
:104F30000D604C6000F3E5829AF8002008311644B9
:104F4000BAE70A9951F8043B0A911AF010017FF46C
:104F500009AF1AF0400000F026819BB20A4601E733
:104F600006980B9322AA594650F01EFF00287FF4A2
:104F7000E8A824980B9B25A981E705F4806100200F
:104F8000CDE908590396DFF8B080DDF84C904EACBF
:104F90004FF0050A84460E4605E00A2B72F1000226
:104FA00034D33B462A46991841F10001A8FB01057C
:104FB00025F0030000EB9500091A581A4FF0CC3584
:104FC00062F1000705FB00F508FB0755A0FB087020
:104FD00007F0010E0544AEFB0A0E40187F08303082
:104FE00004F8010C47EAC5770CF1010C013C6D088F
:104FF000002ED2D099F800108C45CED1BCF1FF0F15
:10500000CBD00A2B72F1000280F0EC80CDF84C90EE
:10501000DDE908594EAB1B1B039ECDF838C0AA46EC
:105020000893FFF74FBA00BF80A20708403F080867
:105030006C3F08085C3F0808CDCCCCCCDDE906010C
:1050400022AA179350F0B0FE00287FF47AA89DF8AA
:105050006B20179B0DF1940BFFF7AEB85546FFF789
:10506000E5B90D9A013A0AF1FF3A0D92FCE60128E2
:1050700055467FF42EABFFF7DEB9DDE9060122AA23
:1050800050F092FE00287FF45CA8249A0DF1940B56
:10509000FFF7DBBA31464646884601332244072BE8
:1050A000CBF80080CBF80440CDE923327FF7B4A8D9
:1050B000FFF7F7BB06980B9322AA594650F074FEEF
:1050C00000287FF43EA89AF8002024980B9B25A97D
:1050D000EBE6DDE9060122AA50F066FE00287FF427
:1050E00030A8249A0DF1940BFFF77FB80A9B059A1C
:1050F0001B681A60FFF780BA4B46062BA14628BFF3
:10510000062309942246CDE90C99BA4C03930A97D9
:105110000893CDF83C90FFF7DBB8109B11981A4428
:10512000CBE90003239B24920133072B239300F345
:1051300025810BF1080B0029BFF6A7AB4D421031BA
:10514000DFF8BC8280F2A48240465946A046DDE9E1
:10515000069B1027044604E00831103D102D40F353
:10516000938201331032072BC1E90047CDE9233286
:10517000F2DD22AA5946484650F016FE00287EF479
:10518000E0AFDDE9233225A9E7E730464646804611
:1051900001332A44072BCDE92332C1F800804D604A
:1051A0007FF7C4ABBCE41AF400721CBFDBB202464A
:1051B000D8E51AF400721CBFDBB20246FFF7BDB996
:1051C0004446B0465E468B4601332A44072BCDE960
:1051D0002332CBF80080CBF8045000F3DD800BF1D4
:1051E000080B29E4169B1599E41A1A4620464CF040
:1051F000D3FD99F801300BB109F101094FF0000C12
:10520000CFE62D228DF86B20FFF751B8DDE90601BE
:1052100022AA50F0C9FD00287EF493AF1C99249A6D
:105220000DF1940BFFF71ABB4D46022120AB019301
:105230001DAB00930698B0EE490B1CAB2A4601F05B
:10524000CBFF0B9B672B044600F016810B9B472B73
:1052500000F012810B9B23F02000462804EB05018F
:1052600005D12378302B00F09D821C9B1944B5EEAC
:10527000409BF1EE10FA40F01C810B461B1B0E9375
:105280001C9A0C92472800F0FF80462800F0D1813C
:105290000B99531E61291C9300F09F82412940F015
:1052A000FD8050210120002BB6BFC2F101032B224B
:1052B0002D22092B8DF878108DF8792040F301828A
:1052C0000DF187054C4F2A461046A7FB0312D20862
:1052D00002EB8201A3EB4101303100F8011C1946B9
:1052E0006329134600F1FF32EEDC303302F8013C53
:1052F000831EAB4280F085820DF1790213F8011B09
:1053000002F8011FAB42F9D14EAB181AA0F1AD0360
:1053100014930E9B149A012B1A44089240F3F381C4
:10532000089B109A1344089328F48063089A43F466
:10533000807A0023CDE90C3322EAE2720F930392C4
:10534000179B002B40F0AE809DF86B209946FEF72E
:10535000BFBF08991C1BA1EB0805A542A8BF2546A5
:10536000FFF79FBB43F3C01211465BB2FFF751B882
:105370000A9B059A1B681A80FFF73EB9DDE9060112
:1053800022AA50F011FD00287EF4DBAEDDE92332C5
:105390001C990DF1940BCEE6DDE9060122AA50F02E
:1053A00003FD00287EF4CDAE249A0DF1940BFFF797
:1053B00043BB4FF006098BE409F10105022135E7F3
:1053C0004D46032132E71CA8B0EE490B02F078FDF0
:1053D000B4EE007B20EE077BB5EE407BF1EE10FAD9
:1053E00000F096810548B3EE004B09F1FF322346E9
:1053F0000EE000BF543F0808CDCCCCCC80A20708FB
:105400005C3F0808B5EE407BF1EE10FA12D00A4678
:1054100027EE047BFDEEC76B1D4616EE901A415C2D
:1054200003F8011B511CB8EEE65B02F1FF3137EEC9
:10543000457BE7D1B6EE005BB4EEC57BF1EE10FA2A
:1054400000F30781B4EE457BF1EE10FA04D116EEBD
:10545000901AC90700F1FD80002AC0F213810132C1
:105460001A44302103F8011B9A42FBD1131B0E93FF
:105470000B9B23F0200003E718F0010F40F0C280DF
:10548000209B1C9A1B1B0E93D31C0C9201DB914595
:105490001BDA0B9B023B0B93531E1C939DF82C10A5
:1054A000002000E72D228DF86B204FF00009FEF759
:1054B00012BF209B8B42BFF4E1AE30255A1C2092D4
:1054C0001D70209B9942F9D8D8E60E9B934200F3B9
:1054D0009C8018F0010F00F03481109BD3180893C2
:1054E00018F4806F02D0002A00F32D81089B23EA74
:1054F000E37303936723BA460B9300230F930D9333
:105500001EE706980B9322AA594650F04DFC00283E
:105510007EF417AE9AF8002024980B9B25A9164418
:10552000CAE4DDE9060122AA50F03EFC00287EF420
:1055300008AE249A0DF1940BFFF777BA78238DF813
:105540006D30B9F1630F4FF030038DF86C304AF0D5
:10555000020800F3C5800023099335AC18EE903A99
:10556000002B4AF481771BDBB0EE489B0023179396
:105570000B9B612B7FF4B9ABB0EE490B1CA802F07A
:105580009FFCB4EE007B20EE077BB5EE407BF1EE96
:1055900010FA00F0BD80A74825E70023D046099304
:1055A0002D231793B1EE489BE2E7DDE9060122AA1D
:1055B00050F0FAFB00287EF4C4AD1C9C249A0DF137
:1055C000940BFFF756BACDF80C90CDF82090CDE9AA
:1055D0000C009DF86B200A9781460F90FEF778BE6D
:1055E000DDE9060122AA50F0DFFB00287EF4A9AD18
:1055F0001C9C0E9B249A1C1B0DF1940BFFF751BAB7
:1056000058239CE76119472031E60E9B109A9A189F
:105610000C9B0892002B40F3CF8067230B9318F468
:10562000806F40F09280089B23EAE373BA460393AD
:1056300063E70C9A08F00103002A43EA090340F3E8
:10564000CE80002B40F0A7800C9B089366230B9321
:10565000E5E7209513F8011C90F80FC061451A4644
:1056600009D1302502F8015C209A511E209112F8D0
:10567000011C8C45F6D0392916BF0131817AC9B297
:1056800002F8011C1A46F1E68B462146444688463C
:1056900001332A44072BCDE92332CBF80080CBF825
:1056A00004507FF7F0A8DDE9060122AA50F07CFB48
:1056B00000287EF446ADDDE923320DF1940BFFF7AF
:1056C000E4B8002840F0838030228DF87A200DF174
:1056D0007B02303302F8013B1EABD31A149318E659
:1056E000069809F101014AF0ABFE0446002800F0DB
:1056F0009580099032E7069A0C2313604FF0FF3330
:105700000593FEF729BD18F0010F3FF40DAE07E633
:10571000494B48480B9A612A18BF184601231C932D
:1057200061E618EE903A002BB4BF2D229DF86B2055
:10573000424C434BB8BF8DF86B202AF0800AFEF72D
:10574000BABD0892CCE667230B9313990B78FF2B15
:105750006CD000250C9A284603E001300131FF2B64
:1057600008D0934206DAD21A4B78002BF5D10B7889
:105770000135F4E713910D900F950C920D9A0F9B44
:1057800016991344089A01FB0323089323EAE37351
:10579000BA460393D4E5109BD3184B440893662371
:1057A0000B933CE7B5EE409BF1EE10FA3FF45DAD94
:1057B000C5F101031C9359E5C3F101031A4422EA20
:1057C000E27303936723BA4608920B9395E60DF1B3
:1057D0007A027EE71B4DFFF7A6BB702162E5BA4651
:1057E0002BB90123662203930B92089385E6109B45
:1057F00001334B44089323EAE373039366230B932B
:105800007BE60223149384E50A9B7578164653F8C9
:10581000042B0A9342EAE279FEF7E4BB07998B89ED
:1058200043F0400213468A81FEF793BC00230F9396
:105830000D93A3E7403F080880A20708383F0808F7
:105840003C3F08085C3F08082DE9F04F2DED048B24
:10585000CFB01C46CDE90410934605464FF096FAAA
:105860000368119318460A94FAF72AFD10901DB1A7
:10587000AB6B002B00F04482049A536EB2F90C20FB
:10588000D80702D4910540F16A86130740F1BE8023
:10589000049B1B69002B00F0B98002F01A030A2B4D
:1058A00000F0C3805C460023CDE92333CDE91333F8
:1058B000CDE915330E9312930793237825AA9FED14
:1058C000848B22929246002B00F07F81264604E0D2
:1058D00016F8013F002B00F0BF80252BF8D1351BB7
:1058E00040F0BD803378002B00F06F810023757885
:1058F0008DF86B30069301364FF0FF399B46013629
:10590000A5F120035A2B00F2EB80DFE813F0D80258
:10591000E900E900D402E900E900E9006A00E900D1
:10592000E9005902B202E9006402BB02E900B702D1
:105930005B005B005B005B005B005B005B005B008F
:105940005B00E900E900E900E900E900E900E9009D
:105950006501E90001021F03650165016501E900B8
:10596000E900E900E9001B03E900E900E202E900BF
:10597000E900E9000C02E9000903E900E900E0069A
:10598000E900E900E900E900E900E900E900E900CF
:105990006501E90001023402650165016501FF024C
:1059A0003402FD01E9003703E900A302DE066802C4
:1059B000FD01E9000C027D000207E900E90005078E
:1059C000E9007D00A5F13003002216F8015B02EB2F
:1059D000820203EB4202A5F13003092BF5D90692AE
:1059E0008EE7059F38464FF0D1F943681593184666
:1059F000FAF766FC1690054638464FF0C7F98368FB
:105A00001393002D40F0FF85357878E7049D0598C5
:105A100029464DF0EBFF002841F0D582B5F90C2066
:105A200002F01A030A2B7FF43DAF0499B1F90E304E
:105A3000002BFFF637AF4B6EDD0702D4900541F126
:105A4000F180DDE9041023465A464FB0BDEC048BCB
:105A5000BDE8F04F4DF036BF351B00F0B680239BFC
:105A6000249A01332A44072BCAE900452492239340
:105A700005DC0AF1080A079B2B44079332E7DDE9AE
:105A8000041022AA4DF004F880B90DF1940AF2E74F
:105A9000DDE9041022AA4CF0FBFF002800F086800C
:105AA000099B1BB1059819464EF034FA049B5A6EB7
:105AB000B3F90C30D00740F119815A0601F18F82F9
:105AC00007984FB0BDEC048BBDE8F08FAFF30080BA
:105AD0000000000000000000FFFFFFFFFFFFEF7F5E
:105AE0000B95002D71D000228DF8D4508DF86B20CD
:105AF0000123CDE90832CDE90C22039391460F92A0
:105B000035AC1BF0020302D00399023103911BF064
:105B1000840505D1069903980F1A002F00F38E8093
:105B2000002A40F0CF80249A83B1239B1BA9013324
:105B30000232CAF80010072B4FF00201249223937F
:105B4000CAF8041000F3C2830AF1080A802D00F09D
:105B5000AD82089BA9EB0307002F00F3EE821BF434
:105B6000807F40F01582089BCAF804301A44239BBA
:105B7000CAF800400133072B2492239300F33883A3
:105B80000AF1080A1BF0040F05D0069B03995C1A62
:105B9000002C00F3A783DDE9061303988142ACBF14
:105BA0005B181B180793002A7FF472AF002323931E
:105BB000099B1BB1099905984EF0ACF90DF1940AB7
:105BC00034462378002B7FF481AE249B002B41F0D8
:105BD00097810023239369E70A9B0B95073323F0F2
:105BE0000703B3EC028B1FED447BB0EEC86BB4EE41
:105BF000476BF1EE10FA0A9340F31285B5EEC08BB5
:105C0000F1EE10FA00F1D3869DF86B20BB4CBC4B33
:105C10002BF0800B0B994729C8BF1C460023CDE908
:105C20000C33032109930391089199460F93002A9D
:105C30003FF467AF039B0133039362E7102FDDE965
:105C40002321DFF8C4822BDDCDE917351996049D99
:105C50004646A046059C04E0103F102F0AF1080AB2
:105C600019DD013210311023072ACDE92321CAF8AA
:105C70000060CAF80430EFDD22AA294620460DF163
:105C8000940A4CF005FF00287FF40AAF103F102F54
:105C9000DDE92321E5DCDDE917354446B046199EF0
:105CA000CAF8008001323944072ACAF804702491E6
:105CB000239200F3E9859DF86B200AF1080A002A77
:105CC0003FF431AF2399249A01310DF16B00013279
:105CD000CAF8000007294FF0010024922391CAF866
:105CE000040000F3E5820AF1080A1DE799053FF573
:105CF000E4AE049CA06D57F063FDB4F90C30DCE613
:105D000005984EF033F8B7E535784BF0200BF6E503
:105D10000A9B0B9553F8041B8DF8D41000228DF8C4
